{
  "contractName": "Boardroom",
  "abi": [
    {
      "inputs": [
        {
          "internalType": "contract IERC20",
          "name": "_cash",
          "type": "address"
        },
        {
          "internalType": "contract IERC20",
          "name": "_share",
          "type": "address"
        }
      ],
      "payable": false,
      "stateMutability": "nonpayable",
      "type": "constructor"
    },
    {
      "anonymous": false,
      "inputs": [
        {
          "indexed": true,
          "internalType": "address",
          "name": "previousOperator",
          "type": "address"
        },
        {
          "indexed": true,
          "internalType": "address",
          "name": "newOperator",
          "type": "address"
        }
      ],
      "name": "OperatorTransferred",
      "type": "event"
    },
    {
      "anonymous": false,
      "inputs": [
        {
          "indexed": true,
          "internalType": "address",
          "name": "previousOwner",
          "type": "address"
        },
        {
          "indexed": true,
          "internalType": "address",
          "name": "newOwner",
          "type": "address"
        }
      ],
      "name": "OwnershipTransferred",
      "type": "event"
    },
    {
      "anonymous": false,
      "inputs": [
        {
          "indexed": true,
          "internalType": "address",
          "name": "user",
          "type": "address"
        },
        {
          "indexed": false,
          "internalType": "uint256",
          "name": "reward",
          "type": "uint256"
        }
      ],
      "name": "RewardAdded",
      "type": "event"
    },
    {
      "anonymous": false,
      "inputs": [
        {
          "indexed": true,
          "internalType": "address",
          "name": "user",
          "type": "address"
        },
        {
          "indexed": false,
          "internalType": "uint256",
          "name": "reward",
          "type": "uint256"
        }
      ],
      "name": "RewardPaid",
      "type": "event"
    },
    {
      "anonymous": false,
      "inputs": [
        {
          "indexed": true,
          "internalType": "address",
          "name": "user",
          "type": "address"
        },
        {
          "indexed": false,
          "internalType": "uint256",
          "name": "amount",
          "type": "uint256"
        }
      ],
      "name": "Staked",
      "type": "event"
    },
    {
      "anonymous": false,
      "inputs": [
        {
          "indexed": true,
          "internalType": "address",
          "name": "user",
          "type": "address"
        },
        {
          "indexed": false,
          "internalType": "uint256",
          "name": "amount",
          "type": "uint256"
        }
      ],
      "name": "Withdrawn",
      "type": "event"
    },
    {
      "constant": true,
      "inputs": [
        {
          "internalType": "address",
          "name": "account",
          "type": "address"
        }
      ],
      "name": "balanceOf",
      "outputs": [
        {
          "internalType": "uint256",
          "name": "",
          "type": "uint256"
        }
      ],
      "payable": false,
      "stateMutability": "view",
      "type": "function"
    },
    {
      "constant": true,
      "inputs": [],
      "name": "isOperator",
      "outputs": [
        {
          "internalType": "bool",
          "name": "",
          "type": "bool"
        }
      ],
      "payable": false,
      "stateMutability": "view",
      "type": "function"
    },
    {
      "constant": true,
      "inputs": [],
      "name": "operator",
      "outputs": [
        {
          "internalType": "address",
          "name": "",
          "type": "address"
        }
      ],
      "payable": false,
      "stateMutability": "view",
      "type": "function"
    },
    {
      "constant": true,
      "inputs": [],
      "name": "owner",
      "outputs": [
        {
          "internalType": "address",
          "name": "",
          "type": "address"
        }
      ],
      "payable": false,
      "stateMutability": "view",
      "type": "function"
    },
    {
      "constant": false,
      "inputs": [],
      "name": "renounceOwnership",
      "outputs": [],
      "payable": false,
      "stateMutability": "nonpayable",
      "type": "function"
    },
    {
      "constant": true,
      "inputs": [],
      "name": "share",
      "outputs": [
        {
          "internalType": "contract IERC20",
          "name": "",
          "type": "address"
        }
      ],
      "payable": false,
      "stateMutability": "view",
      "type": "function"
    },
    {
      "constant": true,
      "inputs": [],
      "name": "totalRewards",
      "outputs": [
        {
          "internalType": "uint256",
          "name": "",
          "type": "uint256"
        }
      ],
      "payable": false,
      "stateMutability": "view",
      "type": "function"
    },
    {
      "constant": true,
      "inputs": [],
      "name": "totalSupply",
      "outputs": [
        {
          "internalType": "uint256",
          "name": "",
          "type": "uint256"
        }
      ],
      "payable": false,
      "stateMutability": "view",
      "type": "function"
    },
    {
      "constant": false,
      "inputs": [
        {
          "internalType": "address",
          "name": "newOperator_",
          "type": "address"
        }
      ],
      "name": "transferOperator",
      "outputs": [],
      "payable": false,
      "stateMutability": "nonpayable",
      "type": "function"
    },
    {
      "constant": false,
      "inputs": [
        {
          "internalType": "address",
          "name": "newOwner",
          "type": "address"
        }
      ],
      "name": "transferOwnership",
      "outputs": [],
      "payable": false,
      "stateMutability": "nonpayable",
      "type": "function"
    },
    {
      "constant": true,
      "inputs": [],
      "name": "latestSnapshotIndex",
      "outputs": [
        {
          "internalType": "uint256",
          "name": "",
          "type": "uint256"
        }
      ],
      "payable": false,
      "stateMutability": "view",
      "type": "function"
    },
    {
      "constant": true,
      "inputs": [
        {
          "internalType": "address",
          "name": "director",
          "type": "address"
        }
      ],
      "name": "getLastSnapshotIndexOf",
      "outputs": [
        {
          "internalType": "uint256",
          "name": "",
          "type": "uint256"
        }
      ],
      "payable": false,
      "stateMutability": "view",
      "type": "function"
    },
    {
      "constant": true,
      "inputs": [],
      "name": "rewardPerShare",
      "outputs": [
        {
          "internalType": "uint256",
          "name": "",
          "type": "uint256"
        }
      ],
      "payable": false,
      "stateMutability": "view",
      "type": "function"
    },
    {
      "constant": true,
      "inputs": [
        {
          "internalType": "address",
          "name": "director",
          "type": "address"
        }
      ],
      "name": "earned",
      "outputs": [
        {
          "internalType": "uint256",
          "name": "",
          "type": "uint256"
        }
      ],
      "payable": false,
      "stateMutability": "view",
      "type": "function"
    },
    {
      "constant": false,
      "inputs": [
        {
          "internalType": "uint256",
          "name": "amount",
          "type": "uint256"
        }
      ],
      "name": "stake",
      "outputs": [],
      "payable": false,
      "stateMutability": "nonpayable",
      "type": "function"
    },
    {
      "constant": false,
      "inputs": [
        {
          "internalType": "uint256",
          "name": "amount",
          "type": "uint256"
        }
      ],
      "name": "withdraw",
      "outputs": [],
      "payable": false,
      "stateMutability": "nonpayable",
      "type": "function"
    },
    {
      "constant": false,
      "inputs": [],
      "name": "exit",
      "outputs": [],
      "payable": false,
      "stateMutability": "nonpayable",
      "type": "function"
    },
    {
      "constant": false,
      "inputs": [],
      "name": "getReward",
      "outputs": [],
      "payable": false,
      "stateMutability": "nonpayable",
      "type": "function"
    },
    {
      "constant": false,
      "inputs": [
        {
          "internalType": "uint256",
          "name": "amount",
          "type": "uint256"
        }
      ],
      "name": "allocateSeigniorage",
      "outputs": [],
      "payable": false,
      "stateMutability": "nonpayable",
      "type": "function"
    }
  ],
  "bytecode": "0x608060405260006009553480156200001657600080fd5b50d380156200002457600080fd5b50d280156200003257600080fd5b5060405162002c6038038062002c60833981810160405260408110156200005857600080fd5b810190808051906020019092919080519060200190929190505050600062000085620002f360201b60201c565b905080600460006101000a81548173ffffffffffffffffffffffffffffffffffffffff021916908373ffffffffffffffffffffffffffffffffffffffff1602179055508073ffffffffffffffffffffffffffffffffffffffff16600073ffffffffffffffffffffffffffffffffffffffff167f8be0079c531659141344cd1fd0a4f28419497f9722a3daafe3b4186f6b6457e060405160405180910390a35062000134620002f360201b60201c565b600560006101000a81548173ffffffffffffffffffffffffffffffffffffffff021916908373ffffffffffffffffffffffffffffffffffffffff160217905550600560009054906101000a900473ffffffffffffffffffffffffffffffffffffffff1673ffffffffffffffffffffffffffffffffffffffff16600073ffffffffffffffffffffffffffffffffffffffff167f74da04524d50c64947f5dd5381ef1a4dca5cba8ed1d816243f9e48aa0b5617ed60405160405180910390a381600660006101000a81548173ffffffffffffffffffffffffffffffffffffffff021916908373ffffffffffffffffffffffffffffffffffffffff160217905550806000806101000a81548173ffffffffffffffffffffffffffffffffffffffff021916908373ffffffffffffffffffffffffffffffffffffffff1602179055506200027c620002fb565b60405180606001604052804381526020016000815260200160008152509050600881908060018154018082558091505090600182039060005260206000209060030201600090919290919091506000820151816000015560208201518160010155604082015181600201555050505050506200031c565b600033905090565b60405180606001604052806000815260200160008152602001600081525090565b612934806200032c6000396000f3fe608060405234801561001057600080fd5b50d3801561001d57600080fd5b50d2801561002a57600080fd5b506004361061013a5760003560e01c8063570ca735116100c757806397ffe1d71161008b57806397ffe1d7146103fb578063a694fc3a14610429578063a8d5fd6514610457578063e9fad8ee146104a1578063f2fde38b146104ab5761013a565b8063570ca735146102ad57806370a08231146102f7578063714b46581461034f578063715018a6146103a75780638da5cb5b146103b15761013a565b80632e1a7d4d1161010e5780632e1a7d4d146102175780633d18b912146102455780633f9e3f041461024f5780634456eda21461026d578063446a2ec81461028f5761013a565b80628cc2621461013f5780630e15561a1461019757806318160ddd146101b557806329605e77146101d3575b600080fd5b6101816004803603602081101561015557600080fd5b81019080803573ffffffffffffffffffffffffffffffffffffffff1690602001909291905050506104ef565b6040518082815260200191505060405180910390f35b61019f6105b5565b6040518082815260200191505060405180910390f35b6101bd6105bb565b6040518082815260200191505060405180910390f35b610215600480360360208110156101e957600080fd5b81019080803573ffffffffffffffffffffffffffffffffffffffff1690602001909291905050506105c5565b005b6102436004803603602081101561022d57600080fd5b810190808035906020019092919050505061069b565b005b61024d610a74565b005b610257610ce0565b6040518082815260200191505060405180910390f35b610275610d00565b604051808215151515815260200191505060405180910390f35b610297610d5f565b6040518082815260200191505060405180910390f35b6102b5610d72565b604051808273ffffffffffffffffffffffffffffffffffffffff1673ffffffffffffffffffffffffffffffffffffffff16815260200191505060405180910390f35b6103396004803603602081101561030d57600080fd5b81019080803573ffffffffffffffffffffffffffffffffffffffff169060200190929190505050610d9c565b6040518082815260200191505060405180910390f35b6103916004803603602081101561036557600080fd5b81019080803573ffffffffffffffffffffffffffffffffffffffff169060200190929190505050610de5565b6040518082815260200191505060405180910390f35b6103af610e31565b005b6103b9610fbc565b604051808273ffffffffffffffffffffffffffffffffffffffff1673ffffffffffffffffffffffffffffffffffffffff16815260200191505060405180910390f35b6104276004803603602081101561041157600080fd5b8101908080359060200190929190505050610fe6565b005b6104556004803603602081101561043f57600080fd5b8101908080359060200190929190505050611461565b005b61045f6117d9565b604051808273ffffffffffffffffffffffffffffffffffffffff1673ffffffffffffffffffffffffffffffffffffffff16815260200191505060405180910390f35b6104a96117fe565b005b6104ed600480360360208110156104c157600080fd5b81019080803573ffffffffffffffffffffffffffffffffffffffff169060200190929190505050611819565b005b6000806104fa611a29565b604001519050600061050b84611a81565b6040015190506105ac600760008673ffffffffffffffffffffffffffffffffffffffff1673ffffffffffffffffffffffffffffffffffffffff1681526020019081526020016000206001015461059e670de0b6b3a76400006105906105798688611adc90919063ffffffff16565b6105828a610d9c565b611b2690919063ffffffff16565b611bac90919063ffffffff16565b611bf690919063ffffffff16565b92505050919050565b60095481565b6000600154905090565b6105cd611c7e565b73ffffffffffffffffffffffffffffffffffffffff16600460009054906101000a900473ffffffffffffffffffffffffffffffffffffffff1673ffffffffffffffffffffffffffffffffffffffff161461068f576040517f08c379a00000000000000000000000000000000000000000000000000000000081526004018080602001828103825260208152602001807f4f776e61626c653a2063616c6c6572206973206e6f7420746865206f776e657281525060200191505060405180910390fd5b61069881611c86565b50565b6106a3611dab565b156106f9576040517f08c379a00000000000000000000000000000000000000000000000000000000081526004018080602001828103825260268152602001806128a56026913960400191505060405180910390fd5b610701611e10565b15610757576040517f08c379a00000000000000000000000000000000000000000000000000000000081526004018080602001828103825260268152602001806128a56026913960400191505060405180910390fd5b600061076233610d9c565b116107b8576040517f08c379a00000000000000000000000000000000000000000000000000000000081526004018080602001828103825260268152602001806128556026913960400191505060405180910390fd5b33600073ffffffffffffffffffffffffffffffffffffffff168173ffffffffffffffffffffffffffffffffffffffff16146108d1576107f5612751565b600760008373ffffffffffffffffffffffffffffffffffffffff1673ffffffffffffffffffffffffffffffffffffffff16815260200190815260200160002060405180604001604052908160008201548152602001600182015481525050905061085e826104ef565b81602001818152505061086f610ce0565b81600001818152505080600760008473ffffffffffffffffffffffffffffffffffffffff1673ffffffffffffffffffffffffffffffffffffffff1681526020019081526020016000206000820151816000015560208201518160010155905050505b60008211610947576040517f08c379a000000000000000000000000000000000000000000000000000000000815260040180806020018281038252601c8152602001807f426f617264726f6f6d3a2043616e6e6f7420776974686472617720300000000081525060200191505060405180910390fd5b61095082611e75565b3373ffffffffffffffffffffffffffffffffffffffff167f7084f5476618d8e60b11ef0d7d3f06914655adb8793e28ff7f018d4c76d505d5836040518082815260200191505060405180910390a25060016003600043815260200190815260200160002060003273ffffffffffffffffffffffffffffffffffffffff1673ffffffffffffffffffffffffffffffffffffffff16815260200190815260200160002060006101000a81548160ff02191690831515021790555060016003600043815260200190815260200160002060003373ffffffffffffffffffffffffffffffffffffffff1673ffffffffffffffffffffffffffffffffffffffff16815260200190815260200160002060006101000a81548160ff02191690831515021790555050565b33600073ffffffffffffffffffffffffffffffffffffffff168173ffffffffffffffffffffffffffffffffffffffff1614610b8d57610ab1612751565b600760008373ffffffffffffffffffffffffffffffffffffffff1673ffffffffffffffffffffffffffffffffffffffff168152602001908152602001600020604051806040016040529081600082015481526020016001820154815250509050610b1a826104ef565b816020018181525050610b2b610ce0565b81600001818152505080600760008473ffffffffffffffffffffffffffffffffffffffff1673ffffffffffffffffffffffffffffffffffffffff1681526020019081526020016000206000820151816000015560208201518160010155905050505b6000600760003373ffffffffffffffffffffffffffffffffffffffff1673ffffffffffffffffffffffffffffffffffffffff1681526020019081526020016000206001015490506000811115610cdc576000600760003373ffffffffffffffffffffffffffffffffffffffff1673ffffffffffffffffffffffffffffffffffffffff16815260200190815260200160002060010181905550610c723382600660009054906101000a900473ffffffffffffffffffffffffffffffffffffffff1673ffffffffffffffffffffffffffffffffffffffff16611fd39092919063ffffffff16565b3373ffffffffffffffffffffffffffffffffffffffff167fe2403640ba68fed3a2f88b7557551d1993f84b99bb10ff833f0cf8db0c5e0486826040518082815260200191505060405180910390a2610cd581600954611bf690919063ffffffff16565b6009819055505b5050565b6000610cfb6001600880549050611adc90919063ffffffff16565b905090565b6000600560009054906101000a900473ffffffffffffffffffffffffffffffffffffffff1673ffffffffffffffffffffffffffffffffffffffff16610d43611c7e565b73ffffffffffffffffffffffffffffffffffffffff1614905090565b6000610d69611a29565b60400151905090565b6000600560009054906101000a900473ffffffffffffffffffffffffffffffffffffffff16905090565b6000600260008373ffffffffffffffffffffffffffffffffffffffff1673ffffffffffffffffffffffffffffffffffffffff168152602001908152602001600020549050919050565b6000600760008373ffffffffffffffffffffffffffffffffffffffff1673ffffffffffffffffffffffffffffffffffffffff168152602001908152602001600020600001549050919050565b610e39611c7e565b73ffffffffffffffffffffffffffffffffffffffff16600460009054906101000a900473ffffffffffffffffffffffffffffffffffffffff1673ffffffffffffffffffffffffffffffffffffffff1614610efb576040517f08c379a00000000000000000000000000000000000000000000000000000000081526004018080602001828103825260208152602001807f4f776e61626c653a2063616c6c6572206973206e6f7420746865206f776e657281525060200191505060405180910390fd5b600073ffffffffffffffffffffffffffffffffffffffff16600460009054906101000a900473ffffffffffffffffffffffffffffffffffffffff1673ffffffffffffffffffffffffffffffffffffffff167f8be0079c531659141344cd1fd0a4f28419497f9722a3daafe3b4186f6b6457e060405160405180910390a36000600460006101000a81548173ffffffffffffffffffffffffffffffffffffffff021916908373ffffffffffffffffffffffffffffffffffffffff160217905550565b6000600460009054906101000a900473ffffffffffffffffffffffffffffffffffffffff16905090565b610fee611dab565b15611044576040517f08c379a00000000000000000000000000000000000000000000000000000000081526004018080602001828103825260268152602001806128a56026913960400191505060405180910390fd5b61104c611e10565b156110a2576040517f08c379a00000000000000000000000000000000000000000000000000000000081526004018080602001828103825260268152602001806128a56026913960400191505060405180910390fd5b3373ffffffffffffffffffffffffffffffffffffffff16600560009054906101000a900473ffffffffffffffffffffffffffffffffffffffff1673ffffffffffffffffffffffffffffffffffffffff1614611148576040517f08c379a00000000000000000000000000000000000000000000000000000000081526004018080602001828103825260248152602001806128316024913960400191505060405180910390fd5b600081116111be576040517f08c379a000000000000000000000000000000000000000000000000000000000815260040180806020018281038252601c8152602001807f426f617264726f6f6d3a2043616e6e6f7420616c6c6f6361746520300000000081525060200191505060405180910390fd5b60006111c86105bb565b1161121e576040517f08c379a00000000000000000000000000000000000000000000000000000000081526004018080602001828103825260308152602001806127e06030913960400191505060405180910390fd5b6000611228611a29565b604001519050600061127661126761123e6105bb565b611259670de0b6b3a764000087611b2690919063ffffffff16565b611bac90919063ffffffff16565b83611bf690919063ffffffff16565b905061128061276b565b60405180606001604052804381526020018581526020018381525090506008819080600181540180825580915050906001820390600052602060002090600302016000909192909190915060008201518160000155602082015181600101556040820151816002015550505061133b333086600660009054906101000a900473ffffffffffffffffffffffffffffffffffffffff1673ffffffffffffffffffffffffffffffffffffffff166120a4909392919063ffffffff16565b3373ffffffffffffffffffffffffffffffffffffffff167fac24935fd910bc682b5ccb1a07b718cadf8cf2f6d1404c4f3ddc3662dae40e29856040518082815260200191505060405180910390a250505060016003600043815260200190815260200160002060003273ffffffffffffffffffffffffffffffffffffffff1673ffffffffffffffffffffffffffffffffffffffff16815260200190815260200160002060006101000a81548160ff02191690831515021790555060016003600043815260200190815260200160002060003373ffffffffffffffffffffffffffffffffffffffff1673ffffffffffffffffffffffffffffffffffffffff16815260200190815260200160002060006101000a81548160ff02191690831515021790555050565b611469611dab565b156114bf576040517f08c379a00000000000000000000000000000000000000000000000000000000081526004018080602001828103825260268152602001806128a56026913960400191505060405180910390fd5b6114c7611e10565b1561151d576040517f08c379a00000000000000000000000000000000000000000000000000000000081526004018080602001828103825260268152602001806128a56026913960400191505060405180910390fd5b33600073ffffffffffffffffffffffffffffffffffffffff168173ffffffffffffffffffffffffffffffffffffffff16146116365761155a612751565b600760008373ffffffffffffffffffffffffffffffffffffffff1673ffffffffffffffffffffffffffffffffffffffff1681526020019081526020016000206040518060400160405290816000820154815260200160018201548152505090506115c3826104ef565b8160200181815250506115d4610ce0565b81600001818152505080600760008473ffffffffffffffffffffffffffffffffffffffff1673ffffffffffffffffffffffffffffffffffffffff1681526020019081526020016000206000820151816000015560208201518160010155905050505b600082116116ac576040517f08c379a00000000000000000000000000000000000000000000000000000000081526004018080602001828103825260198152602001807f426f617264726f6f6d3a2043616e6e6f74207374616b6520300000000000000081525060200191505060405180910390fd5b6116b5826121aa565b3373ffffffffffffffffffffffffffffffffffffffff167f9e71bc8eea02a63969f509818f2dafb9254532904319f9dbda79b67bd34a5f3d836040518082815260200191505060405180910390a25060016003600043815260200190815260200160002060003273ffffffffffffffffffffffffffffffffffffffff1673ffffffffffffffffffffffffffffffffffffffff16815260200190815260200160002060006101000a81548160ff02191690831515021790555060016003600043815260200190815260200160002060003373ffffffffffffffffffffffffffffffffffffffff1673ffffffffffffffffffffffffffffffffffffffff16815260200190815260200160002060006101000a81548160ff02191690831515021790555050565b6000809054906101000a900473ffffffffffffffffffffffffffffffffffffffff1681565b61180f61180a33610d9c565b61069b565b611817610a74565b565b611821611c7e565b73ffffffffffffffffffffffffffffffffffffffff16600460009054906101000a900473ffffffffffffffffffffffffffffffffffffffff1673ffffffffffffffffffffffffffffffffffffffff16146118e3576040517f08c379a00000000000000000000000000000000000000000000000000000000081526004018080602001828103825260208152602001807f4f776e61626c653a2063616c6c6572206973206e6f7420746865206f776e657281525060200191505060405180910390fd5b600073ffffffffffffffffffffffffffffffffffffffff168173ffffffffffffffffffffffffffffffffffffffff161415611969576040517f08c379a000000000000000000000000000000000000000000000000000000000815260040180806020018281038252602681526020018061278d6026913960400191505060405180910390fd5b8073ffffffffffffffffffffffffffffffffffffffff16600460009054906101000a900473ffffffffffffffffffffffffffffffffffffffff1673ffffffffffffffffffffffffffffffffffffffff167f8be0079c531659141344cd1fd0a4f28419497f9722a3daafe3b4186f6b6457e060405160405180910390a380600460006101000a81548173ffffffffffffffffffffffffffffffffffffffff021916908373ffffffffffffffffffffffffffffffffffffffff16021790555050565b611a3161276b565b6008611a3b610ce0565b81548110611a4557fe5b90600052602060002090600302016040518060600160405290816000820154815260200160018201548152602001600282015481525050905090565b611a8961276b565b6008611a9483610de5565b81548110611a9e57fe5b906000526020600020906003020160405180606001604052908160008201548152602001600182015481526020016002820154815250509050919050565b6000611b1e83836040518060400160405280601e81526020017f536166654d6174683a207375627472616374696f6e206f766572666c6f7700008152506122ab565b905092915050565b600080831415611b395760009050611ba6565b6000828402905082848281611b4a57fe5b0414611ba1576040517f08c379a00000000000000000000000000000000000000000000000000000000081526004018080602001828103825260218152602001806128106021913960400191505060405180910390fd5b809150505b92915050565b6000611bee83836040518060400160405280601a81526020017f536166654d6174683a206469766973696f6e206279207a65726f00000000000081525061236b565b905092915050565b600080828401905083811015611c74576040517f08c379a000000000000000000000000000000000000000000000000000000000815260040180806020018281038252601b8152602001807f536166654d6174683a206164646974696f6e206f766572666c6f77000000000081525060200191505060405180910390fd5b8091505092915050565b600033905090565b600073ffffffffffffffffffffffffffffffffffffffff168173ffffffffffffffffffffffffffffffffffffffff161415611d0c576040517f08c379a000000000000000000000000000000000000000000000000000000000815260040180806020018281038252602d8152602001806127b3602d913960400191505060405180910390fd5b8073ffffffffffffffffffffffffffffffffffffffff16600073ffffffffffffffffffffffffffffffffffffffff167f74da04524d50c64947f5dd5381ef1a4dca5cba8ed1d816243f9e48aa0b5617ed60405160405180910390a380600560006101000a81548173ffffffffffffffffffffffffffffffffffffffff021916908373ffffffffffffffffffffffffffffffffffffffff16021790555050565b60006003600043815260200190815260200160002060003273ffffffffffffffffffffffffffffffffffffffff1673ffffffffffffffffffffffffffffffffffffffff16815260200190815260200160002060009054906101000a900460ff16905090565b60006003600043815260200190815260200160002060003373ffffffffffffffffffffffffffffffffffffffff1673ffffffffffffffffffffffffffffffffffffffff16815260200190815260200160002060009054906101000a900460ff16905090565b6000600260003373ffffffffffffffffffffffffffffffffffffffff1673ffffffffffffffffffffffffffffffffffffffff16815260200190815260200160002054905081811015611f12576040517f08c379a00000000000000000000000000000000000000000000000000000000081526004018080602001828103825260368152602001806128cb6036913960400191505060405180910390fd5b611f2782600154611adc90919063ffffffff16565b600181905550611f408282611adc90919063ffffffff16565b600260003373ffffffffffffffffffffffffffffffffffffffff1673ffffffffffffffffffffffffffffffffffffffff16815260200190815260200160002081905550611fcf33836000809054906101000a900473ffffffffffffffffffffffffffffffffffffffff1673ffffffffffffffffffffffffffffffffffffffff16611fd39092919063ffffffff16565b5050565b61209f838473ffffffffffffffffffffffffffffffffffffffff1663a9059cbb905060e01b8484604051602401808373ffffffffffffffffffffffffffffffffffffffff1673ffffffffffffffffffffffffffffffffffffffff16815260200182815260200192505050604051602081830303815290604052907bffffffffffffffffffffffffffffffffffffffffffffffffffffffff19166020820180517bffffffffffffffffffffffffffffffffffffffffffffffffffffffff8381831617835250505050612431565b505050565b6121a4848573ffffffffffffffffffffffffffffffffffffffff166323b872dd905060e01b858585604051602401808473ffffffffffffffffffffffffffffffffffffffff1673ffffffffffffffffffffffffffffffffffffffff1681526020018373ffffffffffffffffffffffffffffffffffffffff1673ffffffffffffffffffffffffffffffffffffffff1681526020018281526020019350505050604051602081830303815290604052907bffffffffffffffffffffffffffffffffffffffffffffffffffffffff19166020820180517bffffffffffffffffffffffffffffffffffffffffffffffffffffffff8381831617835250505050612431565b50505050565b6121bf81600154611bf690919063ffffffff16565b60018190555061221781600260003373ffffffffffffffffffffffffffffffffffffffff1673ffffffffffffffffffffffffffffffffffffffff16815260200190815260200160002054611bf690919063ffffffff16565b600260003373ffffffffffffffffffffffffffffffffffffffff1673ffffffffffffffffffffffffffffffffffffffff168152602001908152602001600020819055506122a83330836000809054906101000a900473ffffffffffffffffffffffffffffffffffffffff1673ffffffffffffffffffffffffffffffffffffffff166120a4909392919063ffffffff16565b50565b6000838311158290612358576040517f08c379a00000000000000000000000000000000000000000000000000000000081526004018080602001828103825283818151815260200191508051906020019080838360005b8381101561231d578082015181840152602081019050612302565b50505050905090810190601f16801561234a5780820380516001836020036101000a031916815260200191505b509250505060405180910390fd5b5060008385039050809150509392505050565b60008083118290612417576040517f08c379a00000000000000000000000000000000000000000000000000000000081526004018080602001828103825283818151815260200191508051906020019080838360005b838110156123dc5780820151818401526020810190506123c1565b50505050905090810190601f1680156124095780820380516001836020036101000a031916815260200191505b509250505060405180910390fd5b50600083858161242357fe5b049050809150509392505050565b6060612493826040518060400160405280602081526020017f5361666545524332303a206c6f772d6c6576656c2063616c6c206661696c65648152508573ffffffffffffffffffffffffffffffffffffffff166125209092919063ffffffff16565b905060008151111561251b578080602001905160208110156124b457600080fd5b810190808051906020019092919050505061251a576040517f08c379a000000000000000000000000000000000000000000000000000000000815260040180806020018281038252602a81526020018061287b602a913960400191505060405180910390fd5b5b505050565b606061252f8484600085612538565b90509392505050565b60606125438561273e565b6125b5576040517f08c379a000000000000000000000000000000000000000000000000000000000815260040180806020018281038252601d8152602001807f416464726573733a2063616c6c20746f206e6f6e2d636f6e747261637400000081525060200191505060405180910390fd5b600060608673ffffffffffffffffffffffffffffffffffffffff1685876040518082805190602001908083835b6020831061260557805182526020820191506020810190506020830392506125e2565b6001836020036101000a03801982511681845116808217855250505050505090500191505060006040518083038185875af1925050503d8060008114612667576040519150601f19603f3d011682016040523d82523d6000602084013e61266c565b606091505b50915091508115612681578092505050612736565b6000815111156126945780518082602001fd5b836040517f08c379a00000000000000000000000000000000000000000000000000000000081526004018080602001828103825283818151815260200191508051906020019080838360005b838110156126fb5780820151818401526020810190506126e0565b50505050905090810190601f1680156127285780820380516001836020036101000a031916815260200191505b509250505060405180910390fd5b949350505050565b600080823b905060008111915050919050565b604051806040016040528060008152602001600081525090565b6040518060600160405280600081526020016000815260200160008152509056fe4f776e61626c653a206e6577206f776e657220697320746865207a65726f20616464726573736f70657261746f723a207a65726f206164647265737320676976656e20666f72206e6577206f70657261746f72426f617264726f6f6d3a2043616e6e6f7420616c6c6f63617465207768656e20746f74616c537570706c792069732030536166654d6174683a206d756c7469706c69636174696f6e206f766572666c6f776f70657261746f723a2063616c6c6572206973206e6f7420746865206f70657261746f72426f617264726f6f6d3a20546865206469726563746f7220646f6573206e6f742065786973745361666545524332303a204552433230206f7065726174696f6e20646964206e6f742073756363656564436f6e747261637447756172643a206f6e6520626c6f636b2c206f6e652066756e6374696f6e426f617264726f6f6d3a20776974686472617720726571756573742067726561746572207468616e207374616b656420616d6f756e74a26474726f6e582044bcf738886c5066ea61b70bc797fc1af229f4b0f0e42a05524a912a4591ed2464736f6c634300050f0031",
  "source": "// SPDX-License-Identifier: UNLICENSED\n\npragma solidity ^0.5.15;\n//pragma experimental ABIEncoderV2;\n\nimport '@openzeppelin/contracts/token/ERC20/IERC20.sol';\nimport '@openzeppelin/contracts/token/ERC20/SafeERC20.sol';\n\nimport './lib/Safe112.sol';\nimport './owner/Operator.sol';\nimport './utils/ContractGuard.sol';\nimport './interfaces/IBasisAsset.sol';\n\ncontract ShareWrapper {\n    using SafeMath for uint256;\n    using SafeERC20 for IERC20;\n\n    IERC20 public share;\n\n    uint256 private _totalSupply;\n    mapping(address => uint256) private _balances;\n\n    function totalSupply() public view returns (uint256) {\n        return _totalSupply;\n    }\n\n    function balanceOf(address account) public view returns (uint256) {\n        return _balances[account];\n    }\n\n    function stake(uint256 amount) public  {\n        _totalSupply = _totalSupply.add(amount);\n        _balances[msg.sender] = _balances[msg.sender].add(amount);\n        share.safeTransferFrom(msg.sender, address(this), amount);\n    }\n\n    function withdraw(uint256 amount) public  {\n        uint256 directorShare = _balances[msg.sender];\n        require(\n            directorShare >= amount,\n            'Boardroom: withdraw request greater than staked amount'\n        );\n        _totalSupply = _totalSupply.sub(amount);\n        _balances[msg.sender] = directorShare.sub(amount);\n        share.safeTransfer(msg.sender, amount);\n    }\n}\n\ncontract Boardroom is ShareWrapper, ContractGuard, Operator {\n    using SafeERC20 for IERC20;\n    using Address for address;\n    using SafeMath for uint256;\n    using Safe112 for uint112;\n\n    /* ========== DATA STRUCTURES ========== */\n\n    struct Boardseat {\n        uint256 lastSnapshotIndex;\n        uint256 rewardEarned;\n    }\n\n    struct BoardSnapshot {\n        uint256 time;\n        uint256 rewardReceived;\n        uint256 rewardPerShare;\n    }\n\n    /* ========== STATE VARIABLES ========== */\n\n    IERC20 private cash;\n\n    mapping(address => Boardseat) private directors;\n    BoardSnapshot[] private boardHistory;\n    uint256 public totalRewards = 0;\n\n    /* ========== CONSTRUCTOR ========== */\n\n    constructor(IERC20 _cash, IERC20 _share) public {\n        cash = _cash;\n        share = _share;\n\n        BoardSnapshot memory genesisSnapshot = BoardSnapshot({\n            time: block.number,\n            rewardReceived: 0,\n            rewardPerShare: 0\n        });\n        boardHistory.push(genesisSnapshot);\n    }\n\n    /* ========== Modifiers =============== */\n    modifier directorExists {\n        require(\n            balanceOf(msg.sender) > 0,\n            'Boardroom: The director does not exist'\n        );\n        _;\n    }\n\n    modifier updateReward(address director) {\n        if (director != address(0)) {\n            Boardseat memory seat = directors[director];\n            seat.rewardEarned = earned(director);\n            seat.lastSnapshotIndex = latestSnapshotIndex();\n            directors[director] = seat;\n        }\n        _;\n    }\n\n    /* ========== VIEW FUNCTIONS ========== */\n\n    // =========== Snapshot getters\n\n    function latestSnapshotIndex() public view returns (uint256) {\n        return boardHistory.length.sub(1);\n    }\n\n    function getLatestSnapshot() internal view returns (BoardSnapshot memory) {\n        return boardHistory[latestSnapshotIndex()];\n    }\n\n    function getLastSnapshotIndexOf(address director)\n        public\n        view\n        returns (uint256)\n    {\n        return directors[director].lastSnapshotIndex;\n    }\n\n    function getLastSnapshotOf(address director)\n        internal\n        view\n        returns (BoardSnapshot memory)\n    {\n        return boardHistory[getLastSnapshotIndexOf(director)];\n    }\n\n    // =========== Director getters\n\n    function rewardPerShare() public view returns (uint256) {\n        return getLatestSnapshot().rewardPerShare;\n    }\n\n    function earned(address director) public view returns (uint256) {\n        uint256 latestRPS = getLatestSnapshot().rewardPerShare;\n        uint256 storedRPS = getLastSnapshotOf(director).rewardPerShare;\n\n        return\n            balanceOf(director).mul(latestRPS.sub(storedRPS)).div(1e18).add(\n                directors[director].rewardEarned\n            );\n    }\n\n    /* ========== MUTATIVE FUNCTIONS ========== */\n\n    function stake(uint256 amount)\n        public\n        onlyOneBlock\n        updateReward(msg.sender)\n    {\n        require(amount > 0, 'Boardroom: Cannot stake 0');\n        super.stake(amount);\n        emit Staked(msg.sender, amount);\n    }\n\n    function withdraw(uint256 amount)\n        public\n        onlyOneBlock\n        directorExists\n        updateReward(msg.sender)\n    {\n        require(amount > 0, 'Boardroom: Cannot withdraw 0');\n        super.withdraw(amount);\n        emit Withdrawn(msg.sender, amount);\n    }\n\n    function exit() external {\n        withdraw(balanceOf(msg.sender));\n        getReward();\n    }\n\n    function getReward() public updateReward(msg.sender) {\n        uint256 reward = directors[msg.sender].rewardEarned;\n        if (reward > 0) {\n            directors[msg.sender].rewardEarned = 0;\n            cash.safeTransfer(msg.sender, reward);\n            emit RewardPaid(msg.sender, reward);\n            totalRewards = totalRewards.add(reward);\n        }\n    }\n\n    function allocateSeigniorage(uint256 amount)\n        external\n        onlyOneBlock\n        onlyOperator\n    {\n        require(amount > 0, 'Boardroom: Cannot allocate 0');\n        require(\n            totalSupply() > 0,\n            'Boardroom: Cannot allocate when totalSupply is 0'\n        );\n\n        // Create & add new snapshot\n        uint256 prevRPS = getLatestSnapshot().rewardPerShare;\n        uint256 nextRPS = prevRPS.add(amount.mul(1e18).div(totalSupply()));\n\n        BoardSnapshot memory newSnapshot = BoardSnapshot({\n            time: block.number,\n            rewardReceived: amount,\n            rewardPerShare: nextRPS\n        });\n        boardHistory.push(newSnapshot);\n\n        cash.safeTransferFrom(msg.sender, address(this), amount);\n        emit RewardAdded(msg.sender, amount);\n    }\n\n    /* ========== EVENTS ========== */\n\n    event Staked(address indexed user, uint256 amount);\n    event Withdrawn(address indexed user, uint256 amount);\n    event RewardPaid(address indexed user, uint256 reward);\n    event RewardAdded(address indexed user, uint256 reward);\n}\n",
  "sourcePath": "/Users/howard/src/trx-basis/tronbasiscash/contracts/Boardroom.sol",
  "compiler": {
    "name": "solc",
    "version": "0.5.15+commit.fd7f48cf.Emscripten.clang"
  },
  "schemaVersion": "2.0.1",
  "updatedAt": "2021-01-15T10:11:21.402Z"
}