{
  "contractName": "FakeOracle",
  "abi": [
    {
      "constant": true,
      "inputs": [],
      "name": "amountOut",
      "outputs": [
        {
          "internalType": "uint256",
          "name": "",
          "type": "uint256"
        }
      ],
      "payable": false,
      "stateMutability": "view",
      "type": "function"
    },
    {
      "constant": true,
      "inputs": [],
      "name": "callable",
      "outputs": [
        {
          "internalType": "bool",
          "name": "",
          "type": "bool"
        }
      ],
      "payable": false,
      "stateMutability": "view",
      "type": "function"
    },
    {
      "constant": false,
      "inputs": [],
      "name": "update",
      "outputs": [],
      "payable": false,
      "stateMutability": "nonpayable",
      "type": "function"
    },
    {
      "constant": true,
      "inputs": [
        {
          "internalType": "address",
          "name": "token",
          "type": "address"
        },
        {
          "internalType": "uint256",
          "name": "amountIn",
          "type": "uint256"
        }
      ],
      "name": "consult",
      "outputs": [
        {
          "internalType": "uint256",
          "name": "",
          "type": "uint256"
        }
      ],
      "payable": false,
      "stateMutability": "view",
      "type": "function"
    },
    {
      "constant": false,
      "inputs": [
        {
          "internalType": "uint256",
          "name": "value",
          "type": "uint256"
        }
      ],
      "name": "setAmountOut",
      "outputs": [],
      "payable": false,
      "stateMutability": "nonpayable",
      "type": "function"
    }
  ],
  "bytecode": "0x608060405234801561001057600080fd5b50d3801561001d57600080fd5b50d2801561002a57600080fd5b506102298061003a6000396000f3fe608060405234801561001057600080fd5b50d3801561001d57600080fd5b50d2801561002a57600080fd5b50600436106100715760003560e01c80633ddac9531461007657806346ee8d00146100d85780636a2ab602146100f6578063a2e6204514610118578063e21a560214610122575b600080fd5b6100c26004803603604081101561008c57600080fd5b81019080803573ffffffffffffffffffffffffffffffffffffffff16906020019092919080359060200190929190505050610150565b6040518082815260200191505060405180910390f35b6100e06101da565b6040518082815260200191505060405180910390f35b6100fe6101e0565b604051808215151515815260200191505060405180910390f35b6101206101e9565b005b61014e6004803603602081101561013857600080fd5b81019080803590602001909291905050506101eb565b005b6000670de0b6b3a764000082146101cf576040517f08c379a00000000000000000000000000000000000000000000000000000000081526004018080602001828103825260158152602001807f616d6f756e74496e206d7573742062652031653138000000000000000000000081525060200191505060405180910390fd5b600054905092915050565b60005481565b60006001905090565b565b806000819055505056fea26474726f6e582009d4eba2d7d6891234bacba458861311e9ac5b1828c7e1f647394206c78f7beb64736f6c634300050f0031",
  "source": "pragma solidity ^0.5.15;\n\n// interface IOracle {\n//     function callable() external view returns (bool);\n\n//     function update() external;\n\n//     function consult(address token, uint256 amountIn)\n//         external\n//         view\n//         returns (uint256 amountOut);\n//     // function getReserves() external view returns (uint112 reserve0, uint112 reserve1, uint32 blockTimestamp);\n// }\n\ncontract FakeOracle {\n\n  uint256 public amountOut;\n\n  function callable() external view returns (bool) {\n    return true;\n  }\n\n  function update() external {\n    // no op\n  }\n\n  function consult(address token, uint256 amountIn) external view returns (uint256) {\n    // amountsIn is always 1e18 from treasury\n    require(amountIn == 1e18, \"amountIn must be 1e18\");\n    return amountOut;\n  }\n\n  function setAmountOut(uint256 value) public {\n    amountOut = value;\n  }\n}",
  "sourcePath": "/Users/howard/src/trx-basis/tronbasiscash/contracts/FakeOracle.sol",
  "compiler": {
    "name": "solc",
    "version": "0.5.15+commit.fd7f48cf.Emscripten.clang"
  },
  "schemaVersion": "2.0.1",
  "updatedAt": "2021-01-15T10:11:21.357Z"
}