{
  "contractName": "InitialCashDistributor",
  "abi": [
    {
      "inputs": [
        {
          "internalType": "contract IERC20",
          "name": "_cash",
          "type": "address"
        },
        {
          "internalType": "contract IRewardDistributionRecipient[]",
          "name": "_pools",
          "type": "address[]"
        },
        {
          "internalType": "uint256",
          "name": "_totalInitialBalance",
          "type": "uint256"
        }
      ],
      "payable": false,
      "stateMutability": "nonpayable",
      "type": "constructor"
    },
    {
      "anonymous": false,
      "inputs": [
        {
          "indexed": false,
          "internalType": "address",
          "name": "pool",
          "type": "address"
        },
        {
          "indexed": false,
          "internalType": "uint256",
          "name": "cashAmount",
          "type": "uint256"
        }
      ],
      "name": "Distributed",
      "type": "event"
    },
    {
      "constant": true,
      "inputs": [],
      "name": "cash",
      "outputs": [
        {
          "internalType": "contract IERC20",
          "name": "",
          "type": "address"
        }
      ],
      "payable": false,
      "stateMutability": "view",
      "type": "function"
    },
    {
      "constant": true,
      "inputs": [],
      "name": "once",
      "outputs": [
        {
          "internalType": "bool",
          "name": "",
          "type": "bool"
        }
      ],
      "payable": false,
      "stateMutability": "view",
      "type": "function"
    },
    {
      "constant": true,
      "inputs": [
        {
          "internalType": "uint256",
          "name": "",
          "type": "uint256"
        }
      ],
      "name": "pools",
      "outputs": [
        {
          "internalType": "contract IRewardDistributionRecipient",
          "name": "",
          "type": "address"
        }
      ],
      "payable": false,
      "stateMutability": "view",
      "type": "function"
    },
    {
      "constant": true,
      "inputs": [],
      "name": "totalInitialBalance",
      "outputs": [
        {
          "internalType": "uint256",
          "name": "",
          "type": "uint256"
        }
      ],
      "payable": false,
      "stateMutability": "view",
      "type": "function"
    },
    {
      "constant": false,
      "inputs": [],
      "name": "distribute",
      "outputs": [],
      "payable": false,
      "stateMutability": "nonpayable",
      "type": "function"
    }
  ],
  "bytecode": "0x608060405260016000806101000a81548160ff02191690831515021790555034801561002a57600080fd5b50d3801561003757600080fd5b50d2801561004457600080fd5b506040516109603803806109608339818101604052606081101561006757600080fd5b81019080805190602001909291908051604051939291908464010000000082111561009157600080fd5b838201915060208201858111156100a757600080fd5b82518660208202830111640100000000821117156100c457600080fd5b8083526020830192505050908051906020019060200280838360005b838110156100fb5780820151818401526020810190506100e0565b505050509050016040526020018051906020019092919050505060008251141561018d576040517f08c379a00000000000000000000000000000000000000000000000000000000081526004018080602001828103825260208152602001807f61206c697374206f662042414320706f6f6c732061726520726571756972656481525060200191505060405180910390fd5b82600060016101000a81548173ffffffffffffffffffffffffffffffffffffffff021916908373ffffffffffffffffffffffffffffffffffffffff16021790555081600190805190602001906101e49291906101f4565b50806002819055505050506102c1565b82805482825590600052602060002090810192821561026d579160200282015b8281111561026c5782518260006101000a81548173ffffffffffffffffffffffffffffffffffffffff021916908373ffffffffffffffffffffffffffffffffffffffff16021790555091602001919060010190610214565b5b50905061027a919061027e565b5090565b6102be91905b808211156102ba57600081816101000a81549073ffffffffffffffffffffffffffffffffffffffff021916905550600101610284565b5090565b90565b610690806102d06000396000f3fe608060405234801561001057600080fd5b50d3801561001d57600080fd5b50d2801561002a57600080fd5b50600436106100715760003560e01c80631d10760314610076578063292a3f7e14610094578063961be391146100b6578063ac4afa3814610100578063e4fc6b6d1461016e575b600080fd5b61007e610178565b6040518082815260200191505060405180910390f35b61009c61017e565b604051808215151515815260200191505060405180910390f35b6100be610190565b604051808273ffffffffffffffffffffffffffffffffffffffff1673ffffffffffffffffffffffffffffffffffffffff16815260200191505060405180910390f35b61012c6004803603602081101561011657600080fd5b81019080803590602001909291905050506101b6565b604051808273ffffffffffffffffffffffffffffffffffffffff1673ffffffffffffffffffffffffffffffffffffffff16815260200191505060405180910390f35b6101766101f2565b005b60025481565b6000809054906101000a900460ff1681565b600060019054906101000a900473ffffffffffffffffffffffffffffffffffffffff1681565b600181815481106101c357fe5b906000526020600020016000915054906101000a900473ffffffffffffffffffffffffffffffffffffffff1681565b6000809054906101000a900460ff16610256576040517f08c379a000000000000000000000000000000000000000000000000000000000815260040180806020018281038252603a815260200180610623603a913960400191505060405180910390fd5b60008090505b6001805490508110156104f557600061028560018054905060025461051290919063ffffffff16565b9050600060019054906101000a900473ffffffffffffffffffffffffffffffffffffffff1673ffffffffffffffffffffffffffffffffffffffff1663a9059cbb600184815481106102d257fe5b9060005260206000200160009054906101000a900473ffffffffffffffffffffffffffffffffffffffff16836040518363ffffffff1660e01b8152600401808373ffffffffffffffffffffffffffffffffffffffff1673ffffffffffffffffffffffffffffffffffffffff16815260200182815260200192505050602060405180830381600087803b15801561036757600080fd5b505af115801561037b573d6000803e3d6000fd5b505050506040513d602081101561039157600080fd5b810190808051906020019092919050505050600182815481106103b057fe5b9060005260206000200160009054906101000a900473ffffffffffffffffffffffffffffffffffffffff1673ffffffffffffffffffffffffffffffffffffffff16633c6b16ab826040518263ffffffff1660e01b815260040180828152602001915050600060405180830381600087803b15801561042d57600080fd5b505af1158015610441573d6000803e3d6000fd5b505050507fb649c98f58055c520df0dcb5709eff2e931217ff2fb1e21376130d31bbb1c0af6001838154811061047357fe5b9060005260206000200160009054906101000a900473ffffffffffffffffffffffffffffffffffffffff1682604051808373ffffffffffffffffffffffffffffffffffffffff1673ffffffffffffffffffffffffffffffffffffffff1681526020018281526020019250505060405180910390a150808060010191505061025c565b5060008060006101000a81548160ff021916908315150217905550565b600061055483836040518060400160405280601a81526020017f536166654d6174683a206469766973696f6e206279207a65726f00000000000081525061055c565b905092915050565b60008083118290610608576040517f08c379a00000000000000000000000000000000000000000000000000000000081526004018080602001828103825283818151815260200191508051906020019080838360005b838110156105cd5780820151818401526020810190506105b2565b50505050905090810190601f1680156105fa5780820380516001836020036101000a031916815260200191505b509250505060405180910390fd5b50600083858161061457fe5b04905080915050939250505056fe496e697469616c436173684469737472696275746f723a20796f752063616e6e6f742072756e20746869732066756e6374696f6e207477696365a26474726f6e5820f12fe2f599d475fbb08053458048caa0e9b5555052a84931e3982252db46cded64736f6c634300050f0031",
  "source": "pragma solidity ^0.5.15;\n\nimport '@openzeppelin/contracts/math/SafeMath.sol';\nimport '@openzeppelin/contracts/token/ERC20/IERC20.sol';\n\nimport '../interfaces/IRewardDistributionRecipient.sol';\nimport '../interfaces/IDistributor.sol';\n\ncontract InitialCashDistributor is IDistributor {\n    using SafeMath for uint256;\n\n    event Distributed(address pool, uint256 cashAmount);\n\n    bool public once = true;\n\n    IERC20 public cash;\n    IRewardDistributionRecipient[] public pools;\n    uint256 public totalInitialBalance;\n\n    constructor(\n        IERC20 _cash,\n        IRewardDistributionRecipient[] memory _pools,\n        uint256 _totalInitialBalance\n    ) public {\n        require(_pools.length != 0, 'a list of BAC pools are required');\n\n        cash = _cash;\n        pools = _pools;\n        totalInitialBalance = _totalInitialBalance;\n    }\n\n    function distribute() public  {\n        require(\n            once,\n            'InitialCashDistributor: you cannot run this function twice'\n        );\n\n        for (uint256 i = 0; i < pools.length; i++) {\n            uint256 amount = totalInitialBalance.div(pools.length);\n\n            cash.transfer(address(pools[i]), amount);\n            pools[i].notifyRewardAmount(amount);\n\n            emit Distributed(address(pools[i]), amount);\n        }\n\n        once = false;\n    }\n}\n",
  "sourcePath": "/Users/howard/src/trx-basis/tronbasiscash/contracts/distributor/InitialCashDistributor.sol",
  "compiler": {
    "name": "solc",
    "version": "0.5.15+commit.fd7f48cf.Emscripten.clang"
  },
  "schemaVersion": "2.0.1",
  "updatedAt": "2021-01-15T10:11:21.373Z"
}