{
  "contractName": "Oracle",
  "abi": [
    {
      "inputs": [
        {
          "internalType": "contract IPairPrice",
          "name": "_pair",
          "type": "address"
        },
        {
          "internalType": "address",
          "name": "_tokenA",
          "type": "address"
        },
        {
          "internalType": "address",
          "name": "_tokenB",
          "type": "address"
        },
        {
          "internalType": "uint256",
          "name": "_period",
          "type": "uint256"
        },
        {
          "internalType": "uint256",
          "name": "_startTime",
          "type": "uint256"
        }
      ],
      "payable": false,
      "stateMutability": "nonpayable",
      "type": "constructor"
    },
    {
      "anonymous": false,
      "inputs": [
        {
          "indexed": true,
          "internalType": "address",
          "name": "previousOperator",
          "type": "address"
        },
        {
          "indexed": true,
          "internalType": "address",
          "name": "newOperator",
          "type": "address"
        }
      ],
      "name": "OperatorTransferred",
      "type": "event"
    },
    {
      "anonymous": false,
      "inputs": [
        {
          "indexed": true,
          "internalType": "address",
          "name": "previousOwner",
          "type": "address"
        },
        {
          "indexed": true,
          "internalType": "address",
          "name": "newOwner",
          "type": "address"
        }
      ],
      "name": "OwnershipTransferred",
      "type": "event"
    },
    {
      "anonymous": false,
      "inputs": [
        {
          "indexed": false,
          "internalType": "uint256",
          "name": "price0CumulativeLast",
          "type": "uint256"
        },
        {
          "indexed": false,
          "internalType": "uint256",
          "name": "price1CumulativeLast",
          "type": "uint256"
        }
      ],
      "name": "Updated",
      "type": "event"
    },
    {
      "constant": true,
      "inputs": [],
      "name": "blockTimestampLast",
      "outputs": [
        {
          "internalType": "uint32",
          "name": "",
          "type": "uint32"
        }
      ],
      "payable": false,
      "stateMutability": "view",
      "type": "function"
    },
    {
      "constant": true,
      "inputs": [],
      "name": "callable",
      "outputs": [
        {
          "internalType": "bool",
          "name": "",
          "type": "bool"
        }
      ],
      "payable": false,
      "stateMutability": "view",
      "type": "function"
    },
    {
      "constant": true,
      "inputs": [],
      "name": "getCurrentEpoch",
      "outputs": [
        {
          "internalType": "uint256",
          "name": "",
          "type": "uint256"
        }
      ],
      "payable": false,
      "stateMutability": "view",
      "type": "function"
    },
    {
      "constant": true,
      "inputs": [],
      "name": "getLastEpoch",
      "outputs": [
        {
          "internalType": "uint256",
          "name": "",
          "type": "uint256"
        }
      ],
      "payable": false,
      "stateMutability": "view",
      "type": "function"
    },
    {
      "constant": true,
      "inputs": [],
      "name": "getNextEpoch",
      "outputs": [
        {
          "internalType": "uint256",
          "name": "",
          "type": "uint256"
        }
      ],
      "payable": false,
      "stateMutability": "view",
      "type": "function"
    },
    {
      "constant": true,
      "inputs": [],
      "name": "getPeriod",
      "outputs": [
        {
          "internalType": "uint256",
          "name": "",
          "type": "uint256"
        }
      ],
      "payable": false,
      "stateMutability": "view",
      "type": "function"
    },
    {
      "constant": true,
      "inputs": [],
      "name": "getStartTime",
      "outputs": [
        {
          "internalType": "uint256",
          "name": "",
          "type": "uint256"
        }
      ],
      "payable": false,
      "stateMutability": "view",
      "type": "function"
    },
    {
      "constant": true,
      "inputs": [],
      "name": "isOperator",
      "outputs": [
        {
          "internalType": "bool",
          "name": "",
          "type": "bool"
        }
      ],
      "payable": false,
      "stateMutability": "view",
      "type": "function"
    },
    {
      "constant": true,
      "inputs": [],
      "name": "nextEpochPoint",
      "outputs": [
        {
          "internalType": "uint256",
          "name": "",
          "type": "uint256"
        }
      ],
      "payable": false,
      "stateMutability": "view",
      "type": "function"
    },
    {
      "constant": true,
      "inputs": [],
      "name": "operator",
      "outputs": [
        {
          "internalType": "address",
          "name": "",
          "type": "address"
        }
      ],
      "payable": false,
      "stateMutability": "view",
      "type": "function"
    },
    {
      "constant": true,
      "inputs": [],
      "name": "owner",
      "outputs": [
        {
          "internalType": "address",
          "name": "",
          "type": "address"
        }
      ],
      "payable": false,
      "stateMutability": "view",
      "type": "function"
    },
    {
      "constant": true,
      "inputs": [],
      "name": "pair",
      "outputs": [
        {
          "internalType": "contract IPairPrice",
          "name": "",
          "type": "address"
        }
      ],
      "payable": false,
      "stateMutability": "view",
      "type": "function"
    },
    {
      "constant": true,
      "inputs": [],
      "name": "price0Average",
      "outputs": [
        {
          "internalType": "uint224",
          "name": "_x",
          "type": "uint224"
        }
      ],
      "payable": false,
      "stateMutability": "view",
      "type": "function"
    },
    {
      "constant": true,
      "inputs": [],
      "name": "price0CumulativeLast",
      "outputs": [
        {
          "internalType": "uint256",
          "name": "",
          "type": "uint256"
        }
      ],
      "payable": false,
      "stateMutability": "view",
      "type": "function"
    },
    {
      "constant": true,
      "inputs": [],
      "name": "price1Average",
      "outputs": [
        {
          "internalType": "uint224",
          "name": "_x",
          "type": "uint224"
        }
      ],
      "payable": false,
      "stateMutability": "view",
      "type": "function"
    },
    {
      "constant": true,
      "inputs": [],
      "name": "price1CumulativeLast",
      "outputs": [
        {
          "internalType": "uint256",
          "name": "",
          "type": "uint256"
        }
      ],
      "payable": false,
      "stateMutability": "view",
      "type": "function"
    },
    {
      "constant": false,
      "inputs": [],
      "name": "renounceOwnership",
      "outputs": [],
      "payable": false,
      "stateMutability": "nonpayable",
      "type": "function"
    },
    {
      "constant": false,
      "inputs": [
        {
          "internalType": "uint256",
          "name": "_period",
          "type": "uint256"
        }
      ],
      "name": "setPeriod",
      "outputs": [],
      "payable": false,
      "stateMutability": "nonpayable",
      "type": "function"
    },
    {
      "constant": true,
      "inputs": [],
      "name": "token0",
      "outputs": [
        {
          "internalType": "address",
          "name": "",
          "type": "address"
        }
      ],
      "payable": false,
      "stateMutability": "view",
      "type": "function"
    },
    {
      "constant": true,
      "inputs": [],
      "name": "token1",
      "outputs": [
        {
          "internalType": "address",
          "name": "",
          "type": "address"
        }
      ],
      "payable": false,
      "stateMutability": "view",
      "type": "function"
    },
    {
      "constant": false,
      "inputs": [
        {
          "internalType": "address",
          "name": "newOperator_",
          "type": "address"
        }
      ],
      "name": "transferOperator",
      "outputs": [],
      "payable": false,
      "stateMutability": "nonpayable",
      "type": "function"
    },
    {
      "constant": false,
      "inputs": [
        {
          "internalType": "address",
          "name": "newOwner",
          "type": "address"
        }
      ],
      "name": "transferOwnership",
      "outputs": [],
      "payable": false,
      "stateMutability": "nonpayable",
      "type": "function"
    },
    {
      "constant": false,
      "inputs": [],
      "name": "update",
      "outputs": [],
      "payable": false,
      "stateMutability": "nonpayable",
      "type": "function"
    },
    {
      "constant": true,
      "inputs": [
        {
          "internalType": "address",
          "name": "token",
          "type": "address"
        },
        {
          "internalType": "uint256",
          "name": "amountIn",
          "type": "uint256"
        }
      ],
      "name": "consult",
      "outputs": [
        {
          "internalType": "uint144",
          "name": "amountOut",
          "type": "uint144"
        }
      ],
      "payable": false,
      "stateMutability": "view",
      "type": "function"
    },
    {
      "constant": true,
      "inputs": [
        {
          "internalType": "address",
          "name": "token",
          "type": "address"
        },
        {
          "internalType": "uint256",
          "name": "amountIn",
          "type": "uint256"
        }
      ],
      "name": "expectedPrice",
      "outputs": [
        {
          "internalType": "uint224",
          "name": "amountOut",
          "type": "uint224"
        }
      ],
      "payable": false,
      "stateMutability": "view",
      "type": "function"
    },
    {
      "constant": true,
      "inputs": [],
      "name": "currentCumulativePrices",
      "outputs": [
        {
          "internalType": "uint256",
          "name": "price0Cumulative",
          "type": "uint256"
        },
        {
          "internalType": "uint256",
          "name": "price1Cumulative",
          "type": "uint256"
        },
        {
          "internalType": "uint32",
          "name": "blockTimestamp",
          "type": "uint32"
        }
      ],
      "payable": false,
      "stateMutability": "view",
      "type": "function"
    }
  ],
  "bytecode": "0x60806040523480156200001157600080fd5b50d380156200001f57600080fd5b50d280156200002d57600080fd5b506040516200279338038062002793833981810160405260a08110156200005357600080fd5b8101908080519060200190929190805190602001909291908051906020019092919080519060200190929190805190602001909291905050508181600080620000a1620003eb60201b60201c565b9050806000806101000a81548173ffffffffffffffffffffffffffffffffffffffff021916908373ffffffffffffffffffffffffffffffffffffffff1602179055508073ffffffffffffffffffffffffffffffffffffffff16600073ffffffffffffffffffffffffffffffffffffffff167f8be0079c531659141344cd1fd0a4f28419497f9722a3daafe3b4186f6b6457e060405160405180910390a3506200014f620003eb60201b60201c565b600160006101000a81548173ffffffffffffffffffffffffffffffffffffffff021916908373ffffffffffffffffffffffffffffffffffffffff160217905550600160009054906101000a900473ffffffffffffffffffffffffffffffffffffffff1673ffffffffffffffffffffffffffffffffffffffff16600073ffffffffffffffffffffffffffffffffffffffff167f74da04524d50c64947f5dd5381ef1a4dca5cba8ed1d816243f9e48aa0b5617ed60405160405180910390a342821162000282576040517f08c379a00000000000000000000000000000000000000000000000000000000081526004018080602001828103825260198152602001807f45706f63683a20696e76616c69642073746172742074696d650000000000000081525060200191505060405180910390fd5b8260028190555081600381905550620002c7620002b060025483620003f360201b62001bf31790919060201c565b6003546200047e60201b62001c791790919060201c565b60048190555050505084600760006101000a81548173ffffffffffffffffffffffffffffffffffffffff021916908373ffffffffffffffffffffffffffffffffffffffff16021790555083600560006101000a81548173ffffffffffffffffffffffffffffffffffffffff021916908373ffffffffffffffffffffffffffffffffffffffff16021790555082600660006101000a81548173ffffffffffffffffffffffffffffffffffffffff021916908373ffffffffffffffffffffffffffffffffffffffff1602179055506000806000620003a86200050760201b60201c565b925092509250826008819055508160098190555080600760146101000a81548163ffffffff021916908363ffffffff1602179055505050505050505050620007a8565b600033905090565b60008083141562000408576000905062000478565b60008284029050828482816200041a57fe5b041462000473576040517f08c379a0000000000000000000000000000000000000000000000000000000008152600401808060200182810382526021815260200180620027726021913960400191505060405180910390fd5b809150505b92915050565b600080828401905083811015620004fd576040517f08c379a000000000000000000000000000000000000000000000000000000000815260040180806020018281038252601b8152602001807f536166654d6174683a206164646974696f6e206f766572666c6f77000000000081525060200191505060405180910390fd5b8091505092915050565b60008060006200051c6200071460201b60201c565b9050600854925060095491508063ffffffff16600760149054906101000a900463ffffffff1663ffffffff16146200070f576000600760149054906101000a900463ffffffff1682039050600080600760009054906101000a900473ffffffffffffffffffffffffffffffffffffffff1673ffffffffffffffffffffffffffffffffffffffff1663259bfdd76040518163ffffffff1660e01b8152600401604080518083038186803b158015620005d257600080fd5b505afa158015620005e7573d6000803e3d6000fd5b505050506040513d6040811015620005fe57600080fd5b810190808051906020019092919080519060200190929190505050915091508263ffffffff1662000671826200063f856200071c60201b620018a21760201c565b7bffffffffffffffffffffffffffffffffffffffffffffffffffffffff166200074760201b620018cd1790919060201c565b7bffffffffffffffffffffffffffffffffffffffffffffffffffffffff1602860195508263ffffffff16620006e883620006b6846200071c60201b620018a21760201c565b7bffffffffffffffffffffffffffffffffffffffffffffffffffffffff166200074760201b620018cd1790919060201c565b7bffffffffffffffffffffffffffffffffffffffffffffffffffffffff1602850194505050505b909192565b600042905090565b60006e010000000000000000000000000000826dffffffffffffffffffffffffffff16029050919050565b6000816dffffffffffffffffffffffffffff167bffffffffffffffffffffffffffffffffffffffffffffffffffffffff16837bffffffffffffffffffffffffffffffffffffffffffffffffffffffff16816200079f57fe5b04905092915050565b611fba80620007b86000396000f3fe608060405234801561001057600080fd5b50d3801561001d57600080fd5b50d2801561002a57600080fd5b50600436106101a85760003560e01c8063715018a6116100f8578063c5700a02116100b1578063d21220a71161008b578063d21220a714610611578063efe97d051461065b578063f00d371c14610679578063f2fde38b14610717576101a8565b8063c5700a02146105ab578063c5967c26146105d5578063c828371e146105f3576101a8565b8063715018a61461048b5780638da5cb5b14610495578063a2e62045146104df578063a6bb4539146104e9578063a8aa1b3114610543578063b97dd9e21461058d576101a8565b80633ddac953116101655780635909c0d51161013f5780635909c0d5146103d35780635a3d5493146103f15780635e6aaf2c1461040f5780636a2ab60214610469576101a8565b80633ddac953146102dd5780634456eda214610367578063570ca73514610389576101a8565b80630dfe1681146101ad5780630f3a9f65146101f75780631df8c717146102255780631ed241951461025d57806329605e771461027b578063398bac63146102bf575b600080fd5b6101b561075b565b604051808273ffffffffffffffffffffffffffffffffffffffff1673ffffffffffffffffffffffffffffffffffffffff16815260200191505060405180910390f35b6102236004803603602081101561020d57600080fd5b8101908080359060200190929190505050610781565b005b61022d610831565b604051808481526020018381526020018263ffffffff1663ffffffff168152602001935050505060405180910390f35b610265610a0a565b6040518082815260200191505060405180910390f35b6102bd6004803603602081101561029157600080fd5b81019080803573ffffffffffffffffffffffffffffffffffffffff169060200190929190505050610a14565b005b6102c7610ae9565b6040518082815260200191505060405180910390f35b610329600480360360408110156102f357600080fd5b81019080803573ffffffffffffffffffffffffffffffffffffffff16906020019092919080359060200190929190505050610b1b565b604051808271ffffffffffffffffffffffffffffffffffff1671ffffffffffffffffffffffffffffffffffff16815260200191505060405180910390f35b61036f610d70565b604051808215151515815260200191505060405180910390f35b610391610dcf565b604051808273ffffffffffffffffffffffffffffffffffffffff1673ffffffffffffffffffffffffffffffffffffffff16815260200191505060405180910390f35b6103db610df9565b6040518082815260200191505060405180910390f35b6103f9610dff565b6040518082815260200191505060405180910390f35b610417610e05565b60405180827bffffffffffffffffffffffffffffffffffffffffffffffffffffffff167bffffffffffffffffffffffffffffffffffffffffffffffffffffffff16815260200191505060405180910390f35b610471610e39565b604051808215151515815260200191505060405180910390f35b610493610e52565b005b61049d610fda565b604051808273ffffffffffffffffffffffffffffffffffffffff1673ffffffffffffffffffffffffffffffffffffffff16815260200191505060405180910390f35b6104e7611003565b005b6104f16112ec565b60405180827bffffffffffffffffffffffffffffffffffffffffffffffffffffffff167bffffffffffffffffffffffffffffffffffffffffffffffffffffffff16815260200191505060405180910390f35b61054b611320565b604051808273ffffffffffffffffffffffffffffffffffffffff1673ffffffffffffffffffffffffffffffffffffffff16815260200191505060405180910390f35b610595611346565b6040518082815260200191505060405180910390f35b6105b3611381565b604051808263ffffffff1663ffffffff16815260200191505060405180910390f35b6105dd611397565b6040518082815260200191505060405180910390f35b6105fb6113ce565b6040518082815260200191505060405180910390f35b6106196113d8565b604051808273ffffffffffffffffffffffffffffffffffffffff1673ffffffffffffffffffffffffffffffffffffffff16815260200191505060405180910390f35b6106636113fe565b6040518082815260200191505060405180910390f35b6106c56004803603604081101561068f57600080fd5b81019080803573ffffffffffffffffffffffffffffffffffffffff1690602001909291908035906020019092919050505061143c565b60405180827bffffffffffffffffffffffffffffffffffffffffffffffffffffffff167bffffffffffffffffffffffffffffffffffffffffffffffffffffffff16815260200191505060405180910390f35b6107596004803603602081101561072d57600080fd5b81019080803573ffffffffffffffffffffffffffffffffffffffff16906020019092919050505061168d565b005b600560009054906101000a900473ffffffffffffffffffffffffffffffffffffffff1681565b3373ffffffffffffffffffffffffffffffffffffffff16600160009054906101000a900473ffffffffffffffffffffffffffffffffffffffff1673ffffffffffffffffffffffffffffffffffffffff1614610827576040517f08c379a0000000000000000000000000000000000000000000000000000000008152600401808060200182810382526024815260200180611f406024913960400191505060405180910390fd5b8060028190555050565b600080600061083e61189a565b9050600854925060095491508063ffffffff16600760149054906101000a900463ffffffff1663ffffffff1614610a05576000600760149054906101000a900463ffffffff1682039050600080600760009054906101000a900473ffffffffffffffffffffffffffffffffffffffff1673ffffffffffffffffffffffffffffffffffffffff1663259bfdd76040518163ffffffff1660e01b8152600401604080518083038186803b1580156108f257600080fd5b505afa158015610906573d6000803e3d6000fd5b505050506040513d604081101561091c57600080fd5b810190808051906020019092919080519060200190929190505050915091508263ffffffff1661097b8261094f856118a2565b7bffffffffffffffffffffffffffffffffffffffffffffffffffffffff166118cd90919063ffffffff16565b7bffffffffffffffffffffffffffffffffffffffffffffffffffffffff1602860195508263ffffffff166109de836109b2846118a2565b7bffffffffffffffffffffffffffffffffffffffffffffffffffffffff166118cd90919063ffffffff16565b7bffffffffffffffffffffffffffffffffffffffffffffffffffffffff1602850194505050505b909192565b6000600254905090565b610a1c61192d565b73ffffffffffffffffffffffffffffffffffffffff166000809054906101000a900473ffffffffffffffffffffffffffffffffffffffff1673ffffffffffffffffffffffffffffffffffffffff1614610add576040517f08c379a00000000000000000000000000000000000000000000000000000000081526004018080602001828103825260208152602001807f4f776e61626c653a2063616c6c6572206973206e6f7420746865206f776e657281525060200191505060405180910390fd5b610ae681611935565b50565b6000610b16600254610b08600354600454611a5a90919063ffffffff16565b611aa490919063ffffffff16565b905090565b6000600560009054906101000a900473ffffffffffffffffffffffffffffffffffffffff1673ffffffffffffffffffffffffffffffffffffffff168373ffffffffffffffffffffffffffffffffffffffff161415610c0f57610c08610c0383600a6040518060200160405290816000820160009054906101000a90047bffffffffffffffffffffffffffffffffffffffffffffffffffffffff167bffffffffffffffffffffffffffffffffffffffffffffffffffffffff167bffffffffffffffffffffffffffffffffffffffffffffffffffffffff1681525050611aee90919063ffffffff16565b611bc4565b9050610d6a565b600660009054906101000a900473ffffffffffffffffffffffffffffffffffffffff1673ffffffffffffffffffffffffffffffffffffffff168373ffffffffffffffffffffffffffffffffffffffff1614610cd2576040517f08c379a00000000000000000000000000000000000000000000000000000000081526004018080602001828103825260158152602001807f4f7261636c653a20494e56414c49445f544f4b454e000000000000000000000081525060200191505060405180910390fd5b610d67610d6283600b6040518060200160405290816000820160009054906101000a90047bffffffffffffffffffffffffffffffffffffffffffffffffffffffff167bffffffffffffffffffffffffffffffffffffffffffffffffffffffff167bffffffffffffffffffffffffffffffffffffffffffffffffffffffff1681525050611aee90919063ffffffff16565b611bc4565b90505b92915050565b6000600160009054906101000a900473ffffffffffffffffffffffffffffffffffffffff1673ffffffffffffffffffffffffffffffffffffffff16610db361192d565b73ffffffffffffffffffffffffffffffffffffffff1614905090565b6000600160009054906101000a900473ffffffffffffffffffffffffffffffffffffffff16905090565b60085481565b60095481565b600b8060000160009054906101000a90047bffffffffffffffffffffffffffffffffffffffffffffffffffffffff16905081565b6000610e436113fe565b610e4b611346565b1015905090565b610e5a61192d565b73ffffffffffffffffffffffffffffffffffffffff166000809054906101000a900473ffffffffffffffffffffffffffffffffffffffff1673ffffffffffffffffffffffffffffffffffffffff1614610f1b576040517f08c379a00000000000000000000000000000000000000000000000000000000081526004018080602001828103825260208152602001807f4f776e61626c653a2063616c6c6572206973206e6f7420746865206f776e657281525060200191505060405180910390fd5b600073ffffffffffffffffffffffffffffffffffffffff166000809054906101000a900473ffffffffffffffffffffffffffffffffffffffff1673ffffffffffffffffffffffffffffffffffffffff167f8be0079c531659141344cd1fd0a4f28419497f9722a3daafe3b4186f6b6457e060405160405180910390a360008060006101000a81548173ffffffffffffffffffffffffffffffffffffffff021916908373ffffffffffffffffffffffffffffffffffffffff160217905550565b60008060009054906101000a900473ffffffffffffffffffffffffffffffffffffffff16905090565b600354421161107a576040517f08c379a00000000000000000000000000000000000000000000000000000000081526004018080602001828103825260168152602001807f45706f63683a206e6f742073746172746564207965740000000000000000000081525060200191505060405180910390fd5b611082610e39565b6110f4576040517f08c379a00000000000000000000000000000000000000000000000000000000081526004018080602001828103825260128152602001807f45706f63683a206e6f7420616c6c6f776564000000000000000000000000000081525060200191505060405180910390fd5b6000806000611101610831565b9250925092506000600760149054906101000a900463ffffffff168203905060008163ffffffff16141561113857505050506112e3565b60405180602001604052808263ffffffff1660085487038161115657fe5b047bffffffffffffffffffffffffffffffffffffffffffffffffffffffff16815250600a60008201518160000160006101000a8154817bffffffffffffffffffffffffffffffffffffffffffffffffffffffff02191690837bffffffffffffffffffffffffffffffffffffffffffffffffffffffff16021790555090505060405180602001604052808263ffffffff166009548603816111f257fe5b047bffffffffffffffffffffffffffffffffffffffffffffffffffffffff16815250600b60008201518160000160006101000a8154817bffffffffffffffffffffffffffffffffffffffffffffffffffffffff02191690837bffffffffffffffffffffffffffffffffffffffffffffffffffffffff160217905550905050836008819055508260098190555081600760146101000a81548163ffffffff021916908363ffffffff1602179055507fd78a0cb8bb633d06981248b816e7bd33c2a35a6089241d099fa519e361cab9028484604051808381526020018281526020019250505060405180910390a1505050505b42600481905550565b600a8060000160009054906101000a90047bffffffffffffffffffffffffffffffffffffffffffffffffffffffff16905081565b600760009054906101000a900473ffffffffffffffffffffffffffffffffffffffff1681565b600061137c60025461136e60035461136060035442611bd9565b611a5a90919063ffffffff16565b611aa490919063ffffffff16565b905090565b600760149054906101000a900463ffffffff1681565b60006113c96113b86002546113aa6113fe565b611bf390919063ffffffff16565b600354611c7990919063ffffffff16565b905090565b6000600354905090565b600660009054906101000a900473ffffffffffffffffffffffffffffffffffffffff1681565b6000600454600354141561141b57611414610ae9565b9050611439565b6114366001611428610ae9565b611c7990919063ffffffff16565b90505b90565b60008060008061144a610831565b9250925092506000600760149054906101000a900463ffffffff1682039050611471611e87565b60405180602001604052808363ffffffff1660085488038161148f57fe5b047bffffffffffffffffffffffffffffffffffffffffffffffffffffffff1681525090506114bb611e87565b60405180602001604052808463ffffffff166009548803816114d957fe5b047bffffffffffffffffffffffffffffffffffffffffffffffffffffffff168152509050600560009054906101000a900473ffffffffffffffffffffffffffffffffffffffff1673ffffffffffffffffffffffffffffffffffffffff168973ffffffffffffffffffffffffffffffffffffffff1614156115895761156e6115698984611aee90919063ffffffff16565b611bc4565b71ffffffffffffffffffffffffffffffffffff16965061167e565b600660009054906101000a900473ffffffffffffffffffffffffffffffffffffffff1673ffffffffffffffffffffffffffffffffffffffff168973ffffffffffffffffffffffffffffffffffffffff161461164c576040517f08c379a00000000000000000000000000000000000000000000000000000000081526004018080602001828103825260158152602001807f4f7261636c653a20494e56414c49445f544f4b454e000000000000000000000081525060200191505060405180910390fd5b6116676116628983611aee90919063ffffffff16565b611bc4565b71ffffffffffffffffffffffffffffffffffff1696505b86965050505050505092915050565b61169561192d565b73ffffffffffffffffffffffffffffffffffffffff166000809054906101000a900473ffffffffffffffffffffffffffffffffffffffff1673ffffffffffffffffffffffffffffffffffffffff1614611756576040517f08c379a00000000000000000000000000000000000000000000000000000000081526004018080602001828103825260208152602001807f4f776e61626c653a2063616c6c6572206973206e6f7420746865206f776e657281525060200191505060405180910390fd5b600073ffffffffffffffffffffffffffffffffffffffff168173ffffffffffffffffffffffffffffffffffffffff1614156117dc576040517f08c379a0000000000000000000000000000000000000000000000000000000008152600401808060200182810382526026815260200180611ecc6026913960400191505060405180910390fd5b8073ffffffffffffffffffffffffffffffffffffffff166000809054906101000a900473ffffffffffffffffffffffffffffffffffffffff1673ffffffffffffffffffffffffffffffffffffffff167f8be0079c531659141344cd1fd0a4f28419497f9722a3daafe3b4186f6b6457e060405160405180910390a3806000806101000a81548173ffffffffffffffffffffffffffffffffffffffff021916908373ffffffffffffffffffffffffffffffffffffffff16021790555050565b600042905090565b60006e010000000000000000000000000000826dffffffffffffffffffffffffffff16029050919050565b6000816dffffffffffffffffffffffffffff167bffffffffffffffffffffffffffffffffffffffffffffffffffffffff16837bffffffffffffffffffffffffffffffffffffffffffffffffffffffff168161192457fe5b04905092915050565b600033905090565b600073ffffffffffffffffffffffffffffffffffffffff168173ffffffffffffffffffffffffffffffffffffffff1614156119bb576040517f08c379a000000000000000000000000000000000000000000000000000000000815260040180806020018281038252602d815260200180611ef2602d913960400191505060405180910390fd5b8073ffffffffffffffffffffffffffffffffffffffff16600073ffffffffffffffffffffffffffffffffffffffff167f74da04524d50c64947f5dd5381ef1a4dca5cba8ed1d816243f9e48aa0b5617ed60405160405180910390a380600160006101000a81548173ffffffffffffffffffffffffffffffffffffffff021916908373ffffffffffffffffffffffffffffffffffffffff16021790555050565b6000611a9c83836040518060400160405280601e81526020017f536166654d6174683a207375627472616374696f6e206f766572666c6f770000815250611d01565b905092915050565b6000611ae683836040518060400160405280601a81526020017f536166654d6174683a206469766973696f6e206279207a65726f000000000000815250611dc1565b905092915050565b611af6611eb8565b600080831480611b57575083600001517bffffffffffffffffffffffffffffffffffffffffffffffffffffffff16838486600001517bffffffffffffffffffffffffffffffffffffffffffffffffffffffff160292508281611b5457fe5b04145b611bac576040517f08c379a0000000000000000000000000000000000000000000000000000000008152600401808060200182810382526023815260200180611f646023913960400191505060405180910390fd5b60405180602001604052808281525091505092915050565b6000607060ff168260000151901c9050919050565b600081831015611be95781611beb565b825b905092915050565b600080831415611c065760009050611c73565b6000828402905082848281611c1757fe5b0414611c6e576040517f08c379a0000000000000000000000000000000000000000000000000000000008152600401808060200182810382526021815260200180611f1f6021913960400191505060405180910390fd5b809150505b92915050565b600080828401905083811015611cf7576040517f08c379a000000000000000000000000000000000000000000000000000000000815260040180806020018281038252601b8152602001807f536166654d6174683a206164646974696f6e206f766572666c6f77000000000081525060200191505060405180910390fd5b8091505092915050565b6000838311158290611dae576040517f08c379a00000000000000000000000000000000000000000000000000000000081526004018080602001828103825283818151815260200191508051906020019080838360005b83811015611d73578082015181840152602081019050611d58565b50505050905090810190601f168015611da05780820380516001836020036101000a031916815260200191505b509250505060405180910390fd5b5060008385039050809150509392505050565b60008083118290611e6d576040517f08c379a00000000000000000000000000000000000000000000000000000000081526004018080602001828103825283818151815260200191508051906020019080838360005b83811015611e32578082015181840152602081019050611e17565b50505050905090810190601f168015611e5f5780820380516001836020036101000a031916815260200191505b509250505060405180910390fd5b506000838581611e7957fe5b049050809150509392505050565b604051806020016040528060007bffffffffffffffffffffffffffffffffffffffffffffffffffffffff1681525090565b604051806020016040528060008152509056fe4f776e61626c653a206e6577206f776e657220697320746865207a65726f20616464726573736f70657261746f723a207a65726f206164647265737320676976656e20666f72206e6577206f70657261746f72536166654d6174683a206d756c7469706c69636174696f6e206f766572666c6f776f70657261746f723a2063616c6c6572206973206e6f7420746865206f70657261746f724669786564506f696e743a204d554c5449504c49434154494f4e5f4f564552464c4f57a26474726f6e5820defda694910511c9dad2ed67e7558df115912ca4da1eadb3aad64c11e05c530d64736f6c634300050f0031536166654d6174683a206d756c7469706c69636174696f6e206f766572666c6f77",
  "source": "pragma solidity ^0.5.15;\n\nimport '@openzeppelin/contracts/math/SafeMath.sol';\n\nimport './lib/Babylonian.sol';\nimport './lib/FixedPoint.sol';\nimport './lib/UQ112.sol';\nimport './utils/Epoch.sol';\nimport './PairPrice.sol';\n\n// fixed window oracle that recomputes the average price for the entire period once every period\n// note that the price average is only guaranteed to be over at least 1 period, but may be over a longer period\ncontract Oracle is Epoch {\n    using FixedPoint for *;\n    using SafeMath for uint256;\n    using UQ112x112 for uint224;\n\n    /* ========== STATE VARIABLES ========== */\n\n    // uniswap\n    address public token0;\n    address public token1;\n    // IUniswapV2Pair public pair;\n    IPairPrice public pair;\n\n    // oracle\n    uint32 public blockTimestampLast;\n    uint256 public price0CumulativeLast;\n    uint256 public price1CumulativeLast;\n    FixedPoint.uq112x112 public price0Average;\n    FixedPoint.uq112x112 public price1Average;\n\n    /* ========== CONSTRUCTOR ========== */\n\n    constructor(\n        IPairPrice _pair,\n        address _tokenA,\n        address _tokenB,\n        uint256 _period,\n        uint256 _startTime\n    ) public Epoch(_period, _startTime, 0) {\n        pair = _pair;\n        token0 = _tokenA;\n        token1 = _tokenB;\n\n        (\n            uint256 price0Cumulative,\n            uint256 price1Cumulative,\n            uint32 blockTimestamp\n        ) = currentCumulativePrices();\n\n        price0CumulativeLast = price0Cumulative; // fetch the current accumulated price value (1 / 0)\n        price1CumulativeLast = price1Cumulative; // fetch the current accumulated price value (0 / 1)\n        blockTimestampLast = blockTimestamp;\n    }\n\n    /* ========== MUTABLE FUNCTIONS ========== */\n\n    /** @dev Updates 1-day EMA price from Uniswap.  */\n    function update() external checkEpoch {\n        (\n            uint256 price0Cumulative,\n            uint256 price1Cumulative,\n            uint32 blockTimestamp\n        ) = currentCumulativePrices();\n\n        uint32 timeElapsed = blockTimestamp - blockTimestampLast; // overflow is desired\n\n        if (timeElapsed == 0) {\n            // prevent divided by zero\n            return;\n        }\n\n        // overflow is desired, casting never truncates\n        // cumulative price is in (uq112x112 price * seconds) units so we simply wrap it after division by time elapsed\n        price0Average = FixedPoint.uq112x112(\n            uint224((price0Cumulative - price0CumulativeLast) / timeElapsed)\n        );\n        price1Average = FixedPoint.uq112x112(\n            uint224((price1Cumulative - price1CumulativeLast) / timeElapsed)\n        );\n\n        price0CumulativeLast = price0Cumulative;\n        price1CumulativeLast = price1Cumulative;\n        blockTimestampLast = blockTimestamp;\n\n        emit Updated(price0Cumulative, price1Cumulative);\n    }\n\n    // note this will always return 0 before update has been called successfully for the first time.\n    function consult(address token, uint256 amountIn)\n        external\n        view\n        returns (uint144 amountOut)\n    {\n        if (token == token0) {\n            amountOut = price0Average.mul(amountIn).decode144();\n        } else {\n            require(token == token1, 'Oracle: INVALID_TOKEN');\n            amountOut = price1Average.mul(amountIn).decode144();\n        }\n    }\n\n    // collaboration of update / consult\n    function expectedPrice(address token, uint256 amountIn)\n        external\n        view\n        returns (uint224 amountOut)\n    {\n        (\n            uint256 price0Cumulative,\n            uint256 price1Cumulative,\n            uint32 blockTimestamp\n        ) = currentCumulativePrices();\n        uint32 timeElapsed = blockTimestamp - blockTimestampLast; // overflow is desired\n\n        FixedPoint.uq112x112 memory avg0 =\n            FixedPoint.uq112x112(\n                uint224((price0Cumulative - price0CumulativeLast) / timeElapsed)\n            );\n        FixedPoint.uq112x112 memory avg1 =\n            FixedPoint.uq112x112(\n                uint224((price1Cumulative - price1CumulativeLast) / timeElapsed)\n            );\n\n        if (token == token0) {\n            amountOut = avg0.mul(amountIn).decode144();\n        } else {\n            require(token == token1, 'Oracle: INVALID_TOKEN');\n            amountOut = avg1.mul(amountIn).decode144();\n        }\n        return amountOut;\n    }\n\n  function currentBlockTimestamp() internal view returns (uint32) {\n        return uint32(block.timestamp);\n  }\n\n  // NOTE: must use price0Cumulative, price1Cumulative, blockTimestampLast from current contract's storage\n  function currentCumulativePrices() public view returns (uint price0Cumulative, uint price1Cumulative, uint32 blockTimestamp) {\n        blockTimestamp = currentBlockTimestamp();\n        price0Cumulative = price0CumulativeLast;\n        price1Cumulative = price1CumulativeLast;\n\n        // if time has elapsed since the last update on the pair, mock the accumulated price values\n        // (uint112 reserve0, uint112 reserve1, uint32 blockTimestampLast) = IUniswapV2Pair(pair).getReserves();\n        if (blockTimestampLast != blockTimestamp) {\n            // subtraction overflow is desired\n            uint32 timeElapsed = blockTimestamp - blockTimestampLast;\n\n            (uint112 trx0, uint112 trx1) = IPairPrice(pair).currentPrices();\n            // addition overflow is desired\n            // counterfactual\n            price0Cumulative += uint(UQ112x112.encode(trx0).uqdiv(trx1)) * timeElapsed;\n            // counterfactual\n            price1Cumulative += uint(UQ112x112.encode(trx1).uqdiv(trx0)) * timeElapsed;\n        }\n  }\n\n    // i think one possible problem is that blockTimestampLast in the original\n    // code uses the blockTimestampLast of Oracle, but here we are using\n    // blockTimestampLast of PriceFeed.\n    //\n    // basically the problem now is that timeElapsed is different...\n    //\n    // so how do i fix this.\n    //\n    // the problem is also price0CumulativeLast price1CumulativeLast reading\n    // from pair price, which are bigger numbers.\n\n    // collaboration of update / consult\n    // function expectedPrice(address token, uint256 amountIn)\n    //     external\n    //     view\n    //     returns (uint224 amountOut)\n    // {\n    //     (\n    //         uint256 price0Cumulative,\n    //         uint256 price1Cumulative,\n    //         uint32 blockTimestamp\n    //     ) = UniswapV2OracleLibrary.currentCumulativePrices(address(pair));\n    //     uint32 timeElapsed = blockTimestamp - blockTimestampLast; // overflow is desired\n\n    //     FixedPoint.uq112x112 memory avg0 =\n    //         FixedPoint.uq112x112(\n    //             uint224((price0Cumulative - price0CumulativeLast) / timeElapsed)\n    //         );\n    //     FixedPoint.uq112x112 memory avg1 =\n    //         FixedPoint.uq112x112(\n    //             uint224((price1Cumulative - price1CumulativeLast) / timeElapsed)\n    //         );\n\n    //     if (token == token0) {\n    //         amountOut = avg0.mul(amountIn).decode144();\n    //     } else {\n    //         require(token == token1, 'Oracle: INVALID_TOKEN');\n    //         amountOut = avg1.mul(amountIn).decode144();\n    //     }\n    //     return amountOut;\n    // }\n\n    // function pairFor(\n    //     address factory,\n    //     address tokenA,\n    //     address tokenB\n    // ) external pure returns (address lpt) {\n    //     return UniswapV2Library.pairFor(factory, tokenA, tokenB);\n    // }\n\n    event Updated(uint256 price0CumulativeLast, uint256 price1CumulativeLast);\n}\n",
  "sourcePath": "/Users/howard/src/trx-basis/tronbasiscash/contracts/Oracle.sol",
  "compiler": {
    "name": "solc",
    "version": "0.5.15+commit.fd7f48cf.Emscripten.clang"
  },
  "schemaVersion": "2.0.1",
  "updatedAt": "2021-01-15T10:11:21.362Z"
}