{
  "contractName": "PairPrice",
  "abi": [
    {
      "inputs": [
        {
          "internalType": "address",
          "name": "_exchange0",
          "type": "address"
        },
        {
          "internalType": "address",
          "name": "_exchange1",
          "type": "address"
        },
        {
          "internalType": "uint112",
          "name": "_inAmount0",
          "type": "uint112"
        },
        {
          "internalType": "uint112",
          "name": "_inAmount1",
          "type": "uint112"
        }
      ],
      "payable": false,
      "stateMutability": "nonpayable",
      "type": "constructor"
    },
    {
      "constant": true,
      "inputs": [],
      "name": "blockTimestampLast",
      "outputs": [
        {
          "internalType": "uint32",
          "name": "",
          "type": "uint32"
        }
      ],
      "payable": false,
      "stateMutability": "view",
      "type": "function"
    },
    {
      "constant": true,
      "inputs": [],
      "name": "exchange0",
      "outputs": [
        {
          "internalType": "address",
          "name": "",
          "type": "address"
        }
      ],
      "payable": false,
      "stateMutability": "view",
      "type": "function"
    },
    {
      "constant": true,
      "inputs": [],
      "name": "exchange1",
      "outputs": [
        {
          "internalType": "address",
          "name": "",
          "type": "address"
        }
      ],
      "payable": false,
      "stateMutability": "view",
      "type": "function"
    },
    {
      "constant": true,
      "inputs": [],
      "name": "inAmount0",
      "outputs": [
        {
          "internalType": "uint112",
          "name": "",
          "type": "uint112"
        }
      ],
      "payable": false,
      "stateMutability": "view",
      "type": "function"
    },
    {
      "constant": true,
      "inputs": [],
      "name": "inAmount1",
      "outputs": [
        {
          "internalType": "uint112",
          "name": "",
          "type": "uint112"
        }
      ],
      "payable": false,
      "stateMutability": "view",
      "type": "function"
    },
    {
      "constant": true,
      "inputs": [],
      "name": "price0CumulativeLast",
      "outputs": [
        {
          "internalType": "uint256",
          "name": "",
          "type": "uint256"
        }
      ],
      "payable": false,
      "stateMutability": "view",
      "type": "function"
    },
    {
      "constant": true,
      "inputs": [],
      "name": "price1CumulativeLast",
      "outputs": [
        {
          "internalType": "uint256",
          "name": "",
          "type": "uint256"
        }
      ],
      "payable": false,
      "stateMutability": "view",
      "type": "function"
    },
    {
      "constant": false,
      "inputs": [],
      "name": "update",
      "outputs": [],
      "payable": false,
      "stateMutability": "nonpayable",
      "type": "function"
    },
    {
      "constant": true,
      "inputs": [],
      "name": "currentPrices",
      "outputs": [
        {
          "internalType": "uint112",
          "name": "trx0",
          "type": "uint112"
        },
        {
          "internalType": "uint112",
          "name": "trx1",
          "type": "uint112"
        }
      ],
      "payable": false,
      "stateMutability": "view",
      "type": "function"
    },
    {
      "constant": true,
      "inputs": [],
      "name": "currentCumulativePrices",
      "outputs": [
        {
          "internalType": "uint256",
          "name": "price0Cumulative",
          "type": "uint256"
        },
        {
          "internalType": "uint256",
          "name": "price1Cumulative",
          "type": "uint256"
        },
        {
          "internalType": "uint32",
          "name": "blockTimestamp",
          "type": "uint32"
        }
      ],
      "payable": false,
      "stateMutability": "view",
      "type": "function"
    }
  ],
  "bytecode": "0x60806040523480156200001157600080fd5b50d380156200001f57600080fd5b50d280156200002d57600080fd5b506040516200111738038062001117833981810160405260808110156200005357600080fd5b8101908080519060200190929190805190602001909291908051906020019092919080519060200190929190505050836000806101000a81548173ffffffffffffffffffffffffffffffffffffffff021916908373ffffffffffffffffffffffffffffffffffffffff16021790555082600160006101000a81548173ffffffffffffffffffffffffffffffffffffffff021916908373ffffffffffffffffffffffffffffffffffffffff16021790555081600260006101000a8154816dffffffffffffffffffffffffffff02191690836dffffffffffffffffffffffffffff160217905550806002600e6101000a8154816dffffffffffffffffffffffffffff02191690836dffffffffffffffffffffffffffff1602179055506200017d6200018760201b60201c565b505050506200052e565b60008060009054906101000a900473ffffffffffffffffffffffffffffffffffffffff1673ffffffffffffffffffffffffffffffffffffffff16639378b0e8600260009054906101000a90046dffffffffffffffffffffffffffff166dffffffffffffffffffffffffffff166040518263ffffffff1660e01b81526004018082815260200191505060206040518083038186803b1580156200022857600080fd5b505afa1580156200023d573d6000803e3d6000fd5b505050506040513d60208110156200025457600080fd5b810190808051906020019092919050505090506000600160009054906101000a900473ffffffffffffffffffffffffffffffffffffffff1673ffffffffffffffffffffffffffffffffffffffff16639378b0e86002600e9054906101000a90046dffffffffffffffffffffffffffff166dffffffffffffffffffffffffffff166040518263ffffffff1660e01b81526004018082815260200191505060206040518083038186803b1580156200030957600080fd5b505afa1580156200031e573d6000803e3d6000fd5b505050506040513d60208110156200033557600080fd5b8101908080519060200190929190505050905060004290506000600560009054906101000a900463ffffffff168203905060008163ffffffff1611156200047b578063ffffffff16620003ca846200039887620004a260201b62000b1a1760201c565b7bffffffffffffffffffffffffffffffffffffffffffffffffffffffff16620004cd60201b62000b451790919060201c565b7bffffffffffffffffffffffffffffffffffffffffffffffffffffffff16026003600082825401925050819055508063ffffffff166200044c856200041a86620004a260201b62000b1a1760201c565b7bffffffffffffffffffffffffffffffffffffffffffffffffffffffff16620004cd60201b62000b451790919060201c565b7bffffffffffffffffffffffffffffffffffffffffffffffffffffffff16026004600082825401925050819055505b81600560006101000a81548163ffffffff021916908363ffffffff16021790555050505050565b60006e010000000000000000000000000000826dffffffffffffffffffffffffffff16029050919050565b6000816dffffffffffffffffffffffffffff167bffffffffffffffffffffffffffffffffffffffffffffffffffffffff16837bffffffffffffffffffffffffffffffffffffffffffffffffffffffff16816200052557fe5b04905092915050565b610bd9806200053e6000396000f3fe608060405234801561001057600080fd5b50d3801561001d57600080fd5b50d2801561002a57600080fd5b50600436106100b85760003560e01c80635a3d5493116100805780635a3d549314610200578063a2e620451461021e578063b47bf2a714610228578063c5700a0214610266578063ecbf21d614610290576100b8565b80631df8c717146100bd578063259bfdd7146100f55780632fd8a23c1461015a57806332b06446146101985780635909c0d5146101e2575b600080fd5b6100c56102da565b604051808481526020018381526020018263ffffffff1663ffffffff168152602001935050505060405180910390f35b6100fd6105bb565b60405180836dffffffffffffffffffffffffffff166dffffffffffffffffffffffffffff168152602001826dffffffffffffffffffffffffffff166dffffffffffffffffffffffffffff1681526020019250505060405180910390f35b610162610779565b60405180826dffffffffffffffffffffffffffff166dffffffffffffffffffffffffffff16815260200191505060405180910390f35b6101a0610799565b604051808273ffffffffffffffffffffffffffffffffffffffff1673ffffffffffffffffffffffffffffffffffffffff16815260200191505060405180910390f35b6101ea6107be565b6040518082815260200191505060405180910390f35b6102086107c4565b6040518082815260200191505060405180910390f35b6102266107ca565b005b610230610ab6565b60405180826dffffffffffffffffffffffffffff166dffffffffffffffffffffffffffff16815260200191505060405180910390f35b61026e610ad6565b604051808263ffffffff1663ffffffff16815260200191505060405180910390f35b610298610aec565b604051808273ffffffffffffffffffffffffffffffffffffffff1673ffffffffffffffffffffffffffffffffffffffff16815260200191505060405180910390f35b60008060006102e7610b12565b9050600354925060045491508063ffffffff16600560009054906101000a900463ffffffff1663ffffffff16146105b6576000600560009054906101000a900463ffffffff168203905060008060009054906101000a900473ffffffffffffffffffffffffffffffffffffffff1673ffffffffffffffffffffffffffffffffffffffff16639378b0e8600260009054906101000a90046dffffffffffffffffffffffffffff166dffffffffffffffffffffffffffff166040518263ffffffff1660e01b81526004018082815260200191505060206040518083038186803b1580156103d157600080fd5b505afa1580156103e5573d6000803e3d6000fd5b505050506040513d60208110156103fb57600080fd5b810190808051906020019092919050505090506000600160009054906101000a900473ffffffffffffffffffffffffffffffffffffffff1673ffffffffffffffffffffffffffffffffffffffff16639378b0e86002600e9054906101000a90046dffffffffffffffffffffffffffff166dffffffffffffffffffffffffffff166040518263ffffffff1660e01b81526004018082815260200191505060206040518083038186803b1580156104af57600080fd5b505afa1580156104c3573d6000803e3d6000fd5b505050506040513d60208110156104d957600080fd5b810190808051906020019092919050505090508263ffffffff1661052c8261050085610b1a565b7bffffffffffffffffffffffffffffffffffffffffffffffffffffffff16610b4590919063ffffffff16565b7bffffffffffffffffffffffffffffffffffffffffffffffffffffffff1602860195508263ffffffff1661058f8361056384610b1a565b7bffffffffffffffffffffffffffffffffffffffffffffffffffffffff16610b4590919063ffffffff16565b7bffffffffffffffffffffffffffffffffffffffffffffffffffffffff1602850194505050505b909192565b6000806000809054906101000a900473ffffffffffffffffffffffffffffffffffffffff1673ffffffffffffffffffffffffffffffffffffffff16639378b0e8600260009054906101000a90046dffffffffffffffffffffffffffff166dffffffffffffffffffffffffffff166040518263ffffffff1660e01b81526004018082815260200191505060206040518083038186803b15801561065c57600080fd5b505afa158015610670573d6000803e3d6000fd5b505050506040513d602081101561068657600080fd5b81019080805190602001909291905050509150600160009054906101000a900473ffffffffffffffffffffffffffffffffffffffff1673ffffffffffffffffffffffffffffffffffffffff16639378b0e86002600e9054906101000a90046dffffffffffffffffffffffffffff166dffffffffffffffffffffffffffff166040518263ffffffff1660e01b81526004018082815260200191505060206040518083038186803b15801561073857600080fd5b505afa15801561074c573d6000803e3d6000fd5b505050506040513d602081101561076257600080fd5b810190808051906020019092919050505090509091565b600260009054906101000a90046dffffffffffffffffffffffffffff1681565b6000809054906101000a900473ffffffffffffffffffffffffffffffffffffffff1681565b60035481565b60045481565b60008060009054906101000a900473ffffffffffffffffffffffffffffffffffffffff1673ffffffffffffffffffffffffffffffffffffffff16639378b0e8600260009054906101000a90046dffffffffffffffffffffffffffff166dffffffffffffffffffffffffffff166040518263ffffffff1660e01b81526004018082815260200191505060206040518083038186803b15801561086a57600080fd5b505afa15801561087e573d6000803e3d6000fd5b505050506040513d602081101561089457600080fd5b810190808051906020019092919050505090506000600160009054906101000a900473ffffffffffffffffffffffffffffffffffffffff1673ffffffffffffffffffffffffffffffffffffffff16639378b0e86002600e9054906101000a90046dffffffffffffffffffffffffffff166dffffffffffffffffffffffffffff166040518263ffffffff1660e01b81526004018082815260200191505060206040518083038186803b15801561094857600080fd5b505afa15801561095c573d6000803e3d6000fd5b505050506040513d602081101561097257600080fd5b8101908080519060200190929190505050905060004290506000600560009054906101000a900463ffffffff168203905060008163ffffffff161115610a8f578063ffffffff166109f2846109c687610b1a565b7bffffffffffffffffffffffffffffffffffffffffffffffffffffffff16610b4590919063ffffffff16565b7bffffffffffffffffffffffffffffffffffffffffffffffffffffffff16026003600082825401925050819055508063ffffffff16610a6085610a3486610b1a565b7bffffffffffffffffffffffffffffffffffffffffffffffffffffffff16610b4590919063ffffffff16565b7bffffffffffffffffffffffffffffffffffffffffffffffffffffffff16026004600082825401925050819055505b81600560006101000a81548163ffffffff021916908363ffffffff16021790555050505050565b6002600e9054906101000a90046dffffffffffffffffffffffffffff1681565b600560009054906101000a900463ffffffff1681565b600160009054906101000a900473ffffffffffffffffffffffffffffffffffffffff1681565b600042905090565b60006e010000000000000000000000000000826dffffffffffffffffffffffffffff16029050919050565b6000816dffffffffffffffffffffffffffff167bffffffffffffffffffffffffffffffffffffffffffffffffffffffff16837bffffffffffffffffffffffffffffffffffffffffffffffffffffffff1681610b9c57fe5b0490509291505056fea26474726f6e5820f5a404e71efe3eda07579a91235c0e6bf0d86e8f8b0e90270176084e629d529f64736f6c634300050f0031",
  "source": "pragma solidity ^0.5.15;\n\nimport './lib/UQ112.sol';\n\ninterface JustSwapExchange {\n  function getTokenToTrxInputPrice(uint256 tokens_sold) external view returns (uint256);\n}\n\ninterface IPairPrice {\n  function currentCumulativePrices() external view returns (uint price0Cumulative, uint price1Cumulative, uint32 blockTimestamp);\n  function currentPrices() external view returns (uint112 trx0, uint112 trx1);\n}\n\ncontract PairPrice {\n  // Use the TRX prices of two assets, and calculate the relative price of two assets.\n  // e.g. TRX / USDT\n  using UQ112x112 for uint224;\n\n  address public exchange0;\n  address public exchange1;\n\n  uint112 public inAmount0;\n  uint112 public inAmount1;\n\n  uint256 public price0CumulativeLast;\n  uint256 public price1CumulativeLast;\n\n  // NOTE: blockTimestampLast doesn't need to be initialized when the contract\n  // is deployed, because consumer of this service takes the difference between\n  // two cumulatives.\n  uint32  public blockTimestampLast;\n\n  // Disabled. For debugging.\n  // uint112 public trx0;\n  // uint112 public trx1;\n\n  // _inAmount0 and _inAmount1 should be n*decimals of the target token\n  constructor(address _exchange0, address _exchange1, uint112 _inAmount0, uint112 _inAmount1) public {\n    exchange0 = _exchange0;\n    exchange1 = _exchange1;\n    inAmount0 = _inAmount0;\n    inAmount1 = _inAmount1;\n    update();\n  }\n\n  function update() public {\n    // T1 / TRX\n    uint112 trx0 = uint112(JustSwapExchange(exchange0).getTokenToTrxInputPrice(uint256(inAmount0)));\n    // T2 / TRX\n    uint112 trx1 = uint112(JustSwapExchange(exchange1).getTokenToTrxInputPrice(uint256(inAmount1)));\n\n    // see also: https://github.com/Uniswap/uniswap-v2-core/issues/96\n    uint32 blockTimestamp = uint32(block.timestamp);\n    uint32 timeElapsed = blockTimestamp - blockTimestampLast; // overflow is desired\n    if (timeElapsed > 0) {\n\n        // price0CumulativeLast += uint(UQ112x112.encode(_reserve1).uqdiv(_reserve0)) * timeElapsed;\n        // price1CumulativeLast += uint(UQ112x112.encode(_reserve0).uqdiv(_reserve1)) * timeElapsed;\n\n        // * never overflows, and + overflow is desired\n        price0CumulativeLast += uint(UQ112x112.encode(trx0).uqdiv(trx1)) * timeElapsed;\n        price1CumulativeLast += uint(UQ112x112.encode(trx1).uqdiv(trx0)) * timeElapsed;\n    }\n\n    blockTimestampLast = blockTimestamp;\n  }\n\n  function currentPrices() external view returns (uint112 trx0, uint112 trx1) {\n    trx0 = uint112(JustSwapExchange(exchange0).getTokenToTrxInputPrice(uint256(inAmount0)));\n    trx1 = uint112(JustSwapExchange(exchange1).getTokenToTrxInputPrice(uint256(inAmount1)));\n  }\n\n  function currentBlockTimestamp() internal view returns (uint32) {\n    return uint32(block.timestamp);\n  }\n\n  function currentCumulativePrices() external view returns (uint price0Cumulative, uint price1Cumulative, uint32 blockTimestamp) {\n        blockTimestamp = currentBlockTimestamp();\n        price0Cumulative = price0CumulativeLast;\n        price1Cumulative = price1CumulativeLast;\n\n        // if time has elapsed since the last update on the pair, mock the accumulated price values\n        // (uint112 reserve0, uint112 reserve1, uint32 blockTimestampLast) = IUniswapV2Pair(pair).getReserves();\n        if (blockTimestampLast != blockTimestamp) {\n            // subtraction overflow is desired\n            uint32 timeElapsed = blockTimestamp - blockTimestampLast;\n\n            uint112 trx0 = uint112(JustSwapExchange(exchange0).getTokenToTrxInputPrice(uint256(inAmount0)));\n            uint112 trx1 = uint112(JustSwapExchange(exchange1).getTokenToTrxInputPrice(uint256(inAmount1)));\n            // addition overflow is desired\n            // counterfactual\n            price0Cumulative += uint(UQ112x112.encode(trx0).uqdiv(trx1)) * timeElapsed;\n            // counterfactual\n            price1Cumulative += uint(UQ112x112.encode(trx1).uqdiv(trx0)) * timeElapsed;\n        }\n  }\n}",
  "sourcePath": "/Users/howard/src/trx-basis/tronbasiscash/contracts/PairPrice.sol",
  "compiler": {
    "name": "solc",
    "version": "0.5.15+commit.fd7f48cf.Emscripten.clang"
  },
  "schemaVersion": "2.0.1",
  "updatedAt": "2021-01-15T10:11:21.371Z"
}