{
  "contractName": "Treasury",
  "abi": [
    {
      "inputs": [
        {
          "internalType": "address",
          "name": "_cash",
          "type": "address"
        },
        {
          "internalType": "address",
          "name": "_bond",
          "type": "address"
        },
        {
          "internalType": "address",
          "name": "_share",
          "type": "address"
        },
        {
          "internalType": "address",
          "name": "_bondOracle",
          "type": "address"
        },
        {
          "internalType": "address",
          "name": "_seigniorageOracle",
          "type": "address"
        },
        {
          "internalType": "address",
          "name": "_boardroom",
          "type": "address"
        },
        {
          "internalType": "address",
          "name": "_fund",
          "type": "address"
        },
        {
          "internalType": "uint256",
          "name": "_startTime",
          "type": "uint256"
        },
        {
          "internalType": "uint256",
          "name": "_period",
          "type": "uint256"
        }
      ],
      "payable": false,
      "stateMutability": "nonpayable",
      "type": "constructor"
    },
    {
      "anonymous": false,
      "inputs": [
        {
          "indexed": false,
          "internalType": "uint256",
          "name": "timestamp",
          "type": "uint256"
        },
        {
          "indexed": false,
          "internalType": "uint256",
          "name": "seigniorage",
          "type": "uint256"
        }
      ],
      "name": "BoardroomFunded",
      "type": "event"
    },
    {
      "anonymous": false,
      "inputs": [
        {
          "indexed": true,
          "internalType": "address",
          "name": "operator",
          "type": "address"
        },
        {
          "indexed": false,
          "internalType": "address",
          "name": "newOracle",
          "type": "address"
        }
      ],
      "name": "BondOracleChanged",
      "type": "event"
    },
    {
      "anonymous": false,
      "inputs": [
        {
          "indexed": true,
          "internalType": "address",
          "name": "from",
          "type": "address"
        },
        {
          "indexed": false,
          "internalType": "uint256",
          "name": "amount",
          "type": "uint256"
        }
      ],
      "name": "BoughtBonds",
      "type": "event"
    },
    {
      "anonymous": false,
      "inputs": [
        {
          "indexed": true,
          "internalType": "address",
          "name": "operator",
          "type": "address"
        },
        {
          "indexed": false,
          "internalType": "address",
          "name": "newFund",
          "type": "address"
        }
      ],
      "name": "ContributionPoolChanged",
      "type": "event"
    },
    {
      "anonymous": false,
      "inputs": [
        {
          "indexed": false,
          "internalType": "uint256",
          "name": "timestamp",
          "type": "uint256"
        },
        {
          "indexed": false,
          "internalType": "uint256",
          "name": "seigniorage",
          "type": "uint256"
        }
      ],
      "name": "ContributionPoolFunded",
      "type": "event"
    },
    {
      "anonymous": false,
      "inputs": [
        {
          "indexed": true,
          "internalType": "address",
          "name": "operator",
          "type": "address"
        },
        {
          "indexed": false,
          "internalType": "uint256",
          "name": "newRate",
          "type": "uint256"
        }
      ],
      "name": "ContributionPoolRateChanged",
      "type": "event"
    },
    {
      "anonymous": false,
      "inputs": [
        {
          "indexed": true,
          "internalType": "address",
          "name": "executor",
          "type": "address"
        },
        {
          "indexed": false,
          "internalType": "uint256",
          "name": "at",
          "type": "uint256"
        }
      ],
      "name": "Initialized",
      "type": "event"
    },
    {
      "anonymous": false,
      "inputs": [
        {
          "indexed": true,
          "internalType": "address",
          "name": "target",
          "type": "address"
        }
      ],
      "name": "Migration",
      "type": "event"
    },
    {
      "anonymous": false,
      "inputs": [
        {
          "indexed": true,
          "internalType": "address",
          "name": "previousOperator",
          "type": "address"
        },
        {
          "indexed": true,
          "internalType": "address",
          "name": "newOperator",
          "type": "address"
        }
      ],
      "name": "OperatorTransferred",
      "type": "event"
    },
    {
      "anonymous": false,
      "inputs": [
        {
          "indexed": true,
          "internalType": "address",
          "name": "previousOwner",
          "type": "address"
        },
        {
          "indexed": true,
          "internalType": "address",
          "name": "newOwner",
          "type": "address"
        }
      ],
      "name": "OwnershipTransferred",
      "type": "event"
    },
    {
      "anonymous": false,
      "inputs": [
        {
          "indexed": true,
          "internalType": "address",
          "name": "from",
          "type": "address"
        },
        {
          "indexed": false,
          "internalType": "uint256",
          "name": "amount",
          "type": "uint256"
        }
      ],
      "name": "RedeemedBonds",
      "type": "event"
    },
    {
      "anonymous": false,
      "inputs": [
        {
          "indexed": true,
          "internalType": "address",
          "name": "operator",
          "type": "address"
        },
        {
          "indexed": false,
          "internalType": "address",
          "name": "newOracle",
          "type": "address"
        }
      ],
      "name": "SeigniorageBondOracleChanged",
      "type": "event"
    },
    {
      "anonymous": false,
      "inputs": [
        {
          "indexed": false,
          "internalType": "uint256",
          "name": "timestamp",
          "type": "uint256"
        },
        {
          "indexed": false,
          "internalType": "uint256",
          "name": "seigniorage",
          "type": "uint256"
        }
      ],
      "name": "TreasuryFunded",
      "type": "event"
    },
    {
      "constant": true,
      "inputs": [],
      "name": "boardroom",
      "outputs": [
        {
          "internalType": "address",
          "name": "",
          "type": "address"
        }
      ],
      "payable": false,
      "stateMutability": "view",
      "type": "function"
    },
    {
      "constant": true,
      "inputs": [],
      "name": "bond",
      "outputs": [
        {
          "internalType": "address",
          "name": "",
          "type": "address"
        }
      ],
      "payable": false,
      "stateMutability": "view",
      "type": "function"
    },
    {
      "constant": true,
      "inputs": [],
      "name": "bondDepletionFloor",
      "outputs": [
        {
          "internalType": "uint256",
          "name": "",
          "type": "uint256"
        }
      ],
      "payable": false,
      "stateMutability": "view",
      "type": "function"
    },
    {
      "constant": true,
      "inputs": [],
      "name": "bondOracle",
      "outputs": [
        {
          "internalType": "address",
          "name": "",
          "type": "address"
        }
      ],
      "payable": false,
      "stateMutability": "view",
      "type": "function"
    },
    {
      "constant": true,
      "inputs": [],
      "name": "callable",
      "outputs": [
        {
          "internalType": "bool",
          "name": "",
          "type": "bool"
        }
      ],
      "payable": false,
      "stateMutability": "view",
      "type": "function"
    },
    {
      "constant": true,
      "inputs": [],
      "name": "cash",
      "outputs": [
        {
          "internalType": "address",
          "name": "",
          "type": "address"
        }
      ],
      "payable": false,
      "stateMutability": "view",
      "type": "function"
    },
    {
      "constant": true,
      "inputs": [],
      "name": "cashPriceCeiling",
      "outputs": [
        {
          "internalType": "uint256",
          "name": "",
          "type": "uint256"
        }
      ],
      "payable": false,
      "stateMutability": "view",
      "type": "function"
    },
    {
      "constant": true,
      "inputs": [],
      "name": "cashPriceOne",
      "outputs": [
        {
          "internalType": "uint256",
          "name": "",
          "type": "uint256"
        }
      ],
      "payable": false,
      "stateMutability": "view",
      "type": "function"
    },
    {
      "constant": true,
      "inputs": [],
      "name": "fund",
      "outputs": [
        {
          "internalType": "address",
          "name": "",
          "type": "address"
        }
      ],
      "payable": false,
      "stateMutability": "view",
      "type": "function"
    },
    {
      "constant": true,
      "inputs": [],
      "name": "fundAllocationRate",
      "outputs": [
        {
          "internalType": "uint256",
          "name": "",
          "type": "uint256"
        }
      ],
      "payable": false,
      "stateMutability": "view",
      "type": "function"
    },
    {
      "constant": true,
      "inputs": [],
      "name": "getCurrentEpoch",
      "outputs": [
        {
          "internalType": "uint256",
          "name": "",
          "type": "uint256"
        }
      ],
      "payable": false,
      "stateMutability": "view",
      "type": "function"
    },
    {
      "constant": true,
      "inputs": [],
      "name": "getLastEpoch",
      "outputs": [
        {
          "internalType": "uint256",
          "name": "",
          "type": "uint256"
        }
      ],
      "payable": false,
      "stateMutability": "view",
      "type": "function"
    },
    {
      "constant": true,
      "inputs": [],
      "name": "getNextEpoch",
      "outputs": [
        {
          "internalType": "uint256",
          "name": "",
          "type": "uint256"
        }
      ],
      "payable": false,
      "stateMutability": "view",
      "type": "function"
    },
    {
      "constant": true,
      "inputs": [],
      "name": "getPeriod",
      "outputs": [
        {
          "internalType": "uint256",
          "name": "",
          "type": "uint256"
        }
      ],
      "payable": false,
      "stateMutability": "view",
      "type": "function"
    },
    {
      "constant": true,
      "inputs": [],
      "name": "getStartTime",
      "outputs": [
        {
          "internalType": "uint256",
          "name": "",
          "type": "uint256"
        }
      ],
      "payable": false,
      "stateMutability": "view",
      "type": "function"
    },
    {
      "constant": true,
      "inputs": [],
      "name": "initialized",
      "outputs": [
        {
          "internalType": "bool",
          "name": "",
          "type": "bool"
        }
      ],
      "payable": false,
      "stateMutability": "view",
      "type": "function"
    },
    {
      "constant": true,
      "inputs": [],
      "name": "isOperator",
      "outputs": [
        {
          "internalType": "bool",
          "name": "",
          "type": "bool"
        }
      ],
      "payable": false,
      "stateMutability": "view",
      "type": "function"
    },
    {
      "constant": true,
      "inputs": [],
      "name": "migrated",
      "outputs": [
        {
          "internalType": "bool",
          "name": "",
          "type": "bool"
        }
      ],
      "payable": false,
      "stateMutability": "view",
      "type": "function"
    },
    {
      "constant": true,
      "inputs": [],
      "name": "nextEpochPoint",
      "outputs": [
        {
          "internalType": "uint256",
          "name": "",
          "type": "uint256"
        }
      ],
      "payable": false,
      "stateMutability": "view",
      "type": "function"
    },
    {
      "constant": true,
      "inputs": [],
      "name": "operator",
      "outputs": [
        {
          "internalType": "address",
          "name": "",
          "type": "address"
        }
      ],
      "payable": false,
      "stateMutability": "view",
      "type": "function"
    },
    {
      "constant": true,
      "inputs": [],
      "name": "owner",
      "outputs": [
        {
          "internalType": "address",
          "name": "",
          "type": "address"
        }
      ],
      "payable": false,
      "stateMutability": "view",
      "type": "function"
    },
    {
      "constant": false,
      "inputs": [],
      "name": "renounceOwnership",
      "outputs": [],
      "payable": false,
      "stateMutability": "nonpayable",
      "type": "function"
    },
    {
      "constant": true,
      "inputs": [],
      "name": "seigniorageOracle",
      "outputs": [
        {
          "internalType": "address",
          "name": "",
          "type": "address"
        }
      ],
      "payable": false,
      "stateMutability": "view",
      "type": "function"
    },
    {
      "constant": false,
      "inputs": [
        {
          "internalType": "uint256",
          "name": "_period",
          "type": "uint256"
        }
      ],
      "name": "setPeriod",
      "outputs": [],
      "payable": false,
      "stateMutability": "nonpayable",
      "type": "function"
    },
    {
      "constant": true,
      "inputs": [],
      "name": "share",
      "outputs": [
        {
          "internalType": "address",
          "name": "",
          "type": "address"
        }
      ],
      "payable": false,
      "stateMutability": "view",
      "type": "function"
    },
    {
      "constant": false,
      "inputs": [
        {
          "internalType": "address",
          "name": "newOperator_",
          "type": "address"
        }
      ],
      "name": "transferOperator",
      "outputs": [],
      "payable": false,
      "stateMutability": "nonpayable",
      "type": "function"
    },
    {
      "constant": false,
      "inputs": [
        {
          "internalType": "address",
          "name": "newOwner",
          "type": "address"
        }
      ],
      "name": "transferOwnership",
      "outputs": [],
      "payable": false,
      "stateMutability": "nonpayable",
      "type": "function"
    },
    {
      "constant": true,
      "inputs": [],
      "name": "getReserve",
      "outputs": [
        {
          "internalType": "uint256",
          "name": "",
          "type": "uint256"
        }
      ],
      "payable": false,
      "stateMutability": "view",
      "type": "function"
    },
    {
      "constant": true,
      "inputs": [],
      "name": "getBondOraclePrice",
      "outputs": [
        {
          "internalType": "uint256",
          "name": "",
          "type": "uint256"
        }
      ],
      "payable": false,
      "stateMutability": "view",
      "type": "function"
    },
    {
      "constant": true,
      "inputs": [],
      "name": "getSeigniorageOraclePrice",
      "outputs": [
        {
          "internalType": "uint256",
          "name": "",
          "type": "uint256"
        }
      ],
      "payable": false,
      "stateMutability": "view",
      "type": "function"
    },
    {
      "constant": false,
      "inputs": [],
      "name": "initialize",
      "outputs": [],
      "payable": false,
      "stateMutability": "nonpayable",
      "type": "function"
    },
    {
      "constant": false,
      "inputs": [
        {
          "internalType": "address",
          "name": "target",
          "type": "address"
        }
      ],
      "name": "migrate",
      "outputs": [],
      "payable": false,
      "stateMutability": "nonpayable",
      "type": "function"
    },
    {
      "constant": false,
      "inputs": [
        {
          "internalType": "address",
          "name": "newFund",
          "type": "address"
        }
      ],
      "name": "setFund",
      "outputs": [],
      "payable": false,
      "stateMutability": "nonpayable",
      "type": "function"
    },
    {
      "constant": false,
      "inputs": [
        {
          "internalType": "uint256",
          "name": "rate",
          "type": "uint256"
        }
      ],
      "name": "setFundAllocationRate",
      "outputs": [],
      "payable": false,
      "stateMutability": "nonpayable",
      "type": "function"
    },
    {
      "constant": false,
      "inputs": [
        {
          "internalType": "address",
          "name": "_bondOracle",
          "type": "address"
        }
      ],
      "name": "setBondOracle",
      "outputs": [],
      "payable": false,
      "stateMutability": "nonpayable",
      "type": "function"
    },
    {
      "constant": false,
      "inputs": [
        {
          "internalType": "address",
          "name": "_seigniorageOracle",
          "type": "address"
        }
      ],
      "name": "setSeigniorageBondOracle",
      "outputs": [],
      "payable": false,
      "stateMutability": "nonpayable",
      "type": "function"
    },
    {
      "constant": false,
      "inputs": [
        {
          "internalType": "uint256",
          "name": "amount",
          "type": "uint256"
        },
        {
          "internalType": "uint256",
          "name": "targetPrice",
          "type": "uint256"
        }
      ],
      "name": "buyBonds",
      "outputs": [],
      "payable": false,
      "stateMutability": "nonpayable",
      "type": "function"
    },
    {
      "constant": false,
      "inputs": [
        {
          "internalType": "uint256",
          "name": "amount",
          "type": "uint256"
        },
        {
          "internalType": "uint256",
          "name": "targetPrice",
          "type": "uint256"
        }
      ],
      "name": "redeemBonds",
      "outputs": [],
      "payable": false,
      "stateMutability": "nonpayable",
      "type": "function"
    },
    {
      "constant": false,
      "inputs": [],
      "name": "allocateSeigniorage",
      "outputs": [],
      "payable": false,
      "stateMutability": "nonpayable",
      "type": "function"
    }
  ],
  "bytecode": "0x60806040526000600660006101000a81548160ff0219169083151502179055506000600660016101000a81548160ff021916908315150217905550600060105560056011553480156200005157600080fd5b50d380156200005f57600080fd5b50d280156200006d57600080fd5b50604051620068483803806200684883398181016040526101208110156200009457600080fd5b8101908080519060200190929190805190602001909291908051906020019092919080519060200190929190805190602001909291908051906020019092919080519060200190929190805190602001909291908051906020019092919050505080826000806200010a6200058060201b60201c565b905080600160006101000a81548173ffffffffffffffffffffffffffffffffffffffff021916908373ffffffffffffffffffffffffffffffffffffffff1602179055508073ffffffffffffffffffffffffffffffffffffffff16600073ffffffffffffffffffffffffffffffffffffffff167f8be0079c531659141344cd1fd0a4f28419497f9722a3daafe3b4186f6b6457e060405160405180910390a350620001b96200058060201b60201c565b600260006101000a81548173ffffffffffffffffffffffffffffffffffffffff021916908373ffffffffffffffffffffffffffffffffffffffff160217905550600260009054906101000a900473ffffffffffffffffffffffffffffffffffffffff1673ffffffffffffffffffffffffffffffffffffffff16600073ffffffffffffffffffffffffffffffffffffffff167f74da04524d50c64947f5dd5381ef1a4dca5cba8ed1d816243f9e48aa0b5617ed60405160405180910390a3428211620002ec576040517f08c379a00000000000000000000000000000000000000000000000000000000081526004018080602001828103825260198152602001807f45706f63683a20696e76616c69642073746172742074696d650000000000000081525060200191505060405180910390fd5b8260038190555081600481905550620003316200031a600354836200058860201b620056691790919060201c565b6004546200061360201b6200590f1790919060201c565b60058190555050505088600760006101000a81548173ffffffffffffffffffffffffffffffffffffffff021916908373ffffffffffffffffffffffffffffffffffffffff16021790555087600860006101000a81548173ffffffffffffffffffffffffffffffffffffffff021916908373ffffffffffffffffffffffffffffffffffffffff16021790555086600960006101000a81548173ffffffffffffffffffffffffffffffffffffffff021916908373ffffffffffffffffffffffffffffffffffffffff16021790555085600b60006101000a81548173ffffffffffffffffffffffffffffffffffffffff021916908373ffffffffffffffffffffffffffffffffffffffff16021790555084600c60006101000a81548173ffffffffffffffffffffffffffffffffffffffff021916908373ffffffffffffffffffffffffffffffffffffffff16021790555083600a60006101000a81548173ffffffffffffffffffffffffffffffffffffffff021916908373ffffffffffffffffffffffffffffffffffffffff16021790555082600660026101000a81548173ffffffffffffffffffffffffffffffffffffffff021916908373ffffffffffffffffffffffffffffffffffffffff160217905550670de0b6b3a7640000600d8190555062000547606462000533600d5460696200058860201b620056691790919060201c565b6200069c60201b6200561f1790919060201c565b600e819055506200056b600d546103e86200058860201b620056691790919060201c565b600f81905550505050505050505050620007b9565b600033905090565b6000808314156200059d57600090506200060d565b6000828402905082848281620005af57fe5b041462000608576040517f08c379a0000000000000000000000000000000000000000000000000000000008152600401808060200182810382526021815260200180620068276021913960400191505060405180910390fd5b809150505b92915050565b60008082840190508381101562000692576040517f08c379a000000000000000000000000000000000000000000000000000000000815260040180806020018281038252601b8152602001807f536166654d6174683a206164646974696f6e206f766572666c6f77000000000081525060200191505060405180910390fd5b8091505092915050565b6000620006e683836040518060400160405280601a81526020017f536166654d6174683a206469766973696f6e206279207a65726f000000000000815250620006ee60201b60201c565b905092915050565b600080831182906200079e576040517f08c379a00000000000000000000000000000000000000000000000000000000081526004018080602001828103825283818151815260200191508051906020019080838360005b838110156200076257808201518184015260208101905062000745565b50505050905090810190601f168015620007905780820380516001836020036101000a031916815260200191505b509250505060405180910390fd5b506000838581620007ab57fe5b049050809150509392505050565b61605e80620007c96000396000f3fe608060405234801561001057600080fd5b50d3801561001d57600080fd5b50d2801561002a57600080fd5b50600436106102575760003560e01c80636d19921d11610155578063b97dd9e2116100d2578063ce5494bb11610096578063ce5494bb1461087e578063e03047b7146108c2578063e06e9c65146108e0578063efe97d0514610924578063f2fde38b1461094257610257565b8063b97dd9e2146107e8578063c1a2977214610806578063c1aa390014610824578063c5967c2614610842578063c828371e1461086057610257565b8063961be39111610119578063961be391146106ce578063a8d5fd6514610718578063a9cfc46e14610762578063b60d428814610780578063b8e2cf8e146107ca57610257565b80636d19921d146105f8578063715018a6146106425780638129fc1c1461064c5780638da5cb5b1461065657806395b1828a146106a057610257565b8063398bac63116101e35780635b756179116101a75780635b756179146104f45780635e02c51e146104fe57806364c9ec6f146105485780636a0271bd146105925780636a2ab602146105d657610257565b8063398bac63146104145780634456eda21461043257806354f04a1114610454578063570ca7351461048c57806359bf5d39146104d657610257565b8063158ef93e1161022a578063158ef93e146103505780631ed241951461037257806323ced1351461039057806329605e77146103ae5780632c678c64146103f257610257565b80630e21750f1461025c5780630f3a9f65146102a0578063118ebbf9146102ce578063132eeaa714610306575b600080fd5b61029e6004803603602081101561027257600080fd5b81019080803573ffffffffffffffffffffffffffffffffffffffff169060200190929190505050610986565b005b6102cc600480360360208110156102b657600080fd5b8101908080359060200190929190505050610aea565b005b610304600480360360408110156102e457600080fd5b810190808035906020019092919080359060200190929190505050610b9a565b005b61030e611607565b604051808273ffffffffffffffffffffffffffffffffffffffff1673ffffffffffffffffffffffffffffffffffffffff16815260200191505060405180910390f35b61035861162d565b604051808215151515815260200191505060405180910390f35b61037a611640565b6040518082815260200191505060405180910390f35b61039861164a565b6040518082815260200191505060405180910390f35b6103f0600480360360208110156103c457600080fd5b81019080803573ffffffffffffffffffffffffffffffffffffffff169060200190929190505050611650565b005b6103fa611726565b604051808215151515815260200191505060405180910390f35b61041c611739565b6040518082815260200191505060405180910390f35b61043a61176b565b604051808215151515815260200191505060405180910390f35b61048a6004803603604081101561046a57600080fd5b8101908080359060200190929190803590602001909291905050506117ca565b005b6104946121a9565b604051808273ffffffffffffffffffffffffffffffffffffffff1673ffffffffffffffffffffffffffffffffffffffff16815260200191505060405180910390f35b6104de6121d3565b6040518082815260200191505060405180910390f35b6104fc6121dd565b005b610506612ffd565b604051808273ffffffffffffffffffffffffffffffffffffffff1673ffffffffffffffffffffffffffffffffffffffff16815260200191505060405180910390f35b610550613023565b604051808273ffffffffffffffffffffffffffffffffffffffff1673ffffffffffffffffffffffffffffffffffffffff16815260200191505060405180910390f35b6105d4600480360360208110156105a857600080fd5b81019080803573ffffffffffffffffffffffffffffffffffffffff169060200190929190505050613049565b005b6105de6131cf565b604051808215151515815260200191505060405180910390f35b6106006131e8565b604051808273ffffffffffffffffffffffffffffffffffffffff1673ffffffffffffffffffffffffffffffffffffffff16815260200191505060405180910390f35b61064a61320e565b005b610654613399565b005b61065e613a9b565b604051808273ffffffffffffffffffffffffffffffffffffffff1673ffffffffffffffffffffffffffffffffffffffff16815260200191505060405180910390f35b6106cc600480360360208110156106b657600080fd5b8101908080359060200190929190505050613ac5565b005b6106d6613bc3565b604051808273ffffffffffffffffffffffffffffffffffffffff1673ffffffffffffffffffffffffffffffffffffffff16815260200191505060405180910390f35b610720613be9565b604051808273ffffffffffffffffffffffffffffffffffffffff1673ffffffffffffffffffffffffffffffffffffffff16815260200191505060405180910390f35b61076a613c0f565b6040518082815260200191505060405180910390f35b610788613c15565b604051808273ffffffffffffffffffffffffffffffffffffffff1673ffffffffffffffffffffffffffffffffffffffff16815260200191505060405180910390f35b6107d2613c3b565b6040518082815260200191505060405180910390f35b6107f0613c6d565b6040518082815260200191505060405180910390f35b61080e613ca8565b6040518082815260200191505060405180910390f35b61082c613cda565b6040518082815260200191505060405180910390f35b61084a613ce0565b6040518082815260200191505060405180910390f35b610868613d17565b6040518082815260200191505060405180910390f35b6108c06004803603602081101561089457600080fd5b81019080803573ffffffffffffffffffffffffffffffffffffffff169060200190929190505050613d21565b005b6108ca614c09565b6040518082815260200191505060405180910390f35b610922600480360360208110156108f657600080fd5b81019080803573ffffffffffffffffffffffffffffffffffffffff169060200190929190505050614c0f565b005b61092c614d95565b6040518082815260200191505060405180910390f35b6109846004803603602081101561095857600080fd5b81019080803573ffffffffffffffffffffffffffffffffffffffff169060200190929190505050614dd3565b005b3373ffffffffffffffffffffffffffffffffffffffff16600260009054906101000a900473ffffffffffffffffffffffffffffffffffffffff1673ffffffffffffffffffffffffffffffffffffffff1614610a2c576040517f08c379a0000000000000000000000000000000000000000000000000000000008152600401808060200182810382526024815260200180615f816024913960400191505060405180910390fd5b80600660026101000a81548173ffffffffffffffffffffffffffffffffffffffff021916908373ffffffffffffffffffffffffffffffffffffffff1602179055503373ffffffffffffffffffffffffffffffffffffffff167f970b0c70d6e9879d19345f9dbfd8bacae71546478b8bb2d8a56ad8927d3d436e82604051808273ffffffffffffffffffffffffffffffffffffffff1673ffffffffffffffffffffffffffffffffffffffff16815260200191505060405180910390a250565b3373ffffffffffffffffffffffffffffffffffffffff16600260009054906101000a900473ffffffffffffffffffffffffffffffffffffffff1673ffffffffffffffffffffffffffffffffffffffff1614610b90576040517f08c379a0000000000000000000000000000000000000000000000000000000008152600401808060200182810382526024815260200180615f816024913960400191505060405180910390fd5b8060038190555050565b610ba2614fe3565b15610bf8576040517f08c379a0000000000000000000000000000000000000000000000000000000008152600401808060200182810382526026815260200180615fcf6026913960400191505060405180910390fd5b610c00615047565b15610c56576040517f08c379a0000000000000000000000000000000000000000000000000000000008152600401808060200182810382526026815260200180615fcf6026913960400191505060405180910390fd5b600660009054906101000a900460ff1615610cd9576040517f08c379a00000000000000000000000000000000000000000000000000000000081526004018080602001828103825260128152602001807f54726561737572793a206d69677261746564000000000000000000000000000081525060200191505060405180910390fd5b600454421015610d51576040517f08c379a00000000000000000000000000000000000000000000000000000000081526004018080602001828103825260168152602001807f45706f63683a206e6f742073746172746564207965740000000000000000000081525060200191505060405180910390fd5b3073ffffffffffffffffffffffffffffffffffffffff16600760009054906101000a900473ffffffffffffffffffffffffffffffffffffffff1673ffffffffffffffffffffffffffffffffffffffff1663570ca7356040518163ffffffff1660e01b815260040160206040518083038186803b158015610dd057600080fd5b505afa158015610de4573d6000803e3d6000fd5b505050506040513d6020811015610dfa57600080fd5b810190808051906020019092919050505073ffffffffffffffffffffffffffffffffffffffff16148015610efb57503073ffffffffffffffffffffffffffffffffffffffff16600860009054906101000a900473ffffffffffffffffffffffffffffffffffffffff1673ffffffffffffffffffffffffffffffffffffffff1663570ca7356040518163ffffffff1660e01b815260040160206040518083038186803b158015610ea857600080fd5b505afa158015610ebc573d6000803e3d6000fd5b505050506040513d6020811015610ed257600080fd5b810190808051906020019092919050505073ffffffffffffffffffffffffffffffffffffffff16145b8015610fd457503073ffffffffffffffffffffffffffffffffffffffff16600960009054906101000a900473ffffffffffffffffffffffffffffffffffffffff1673ffffffffffffffffffffffffffffffffffffffff1663570ca7356040518163ffffffff1660e01b815260040160206040518083038186803b158015610f8157600080fd5b505afa158015610f95573d6000803e3d6000fd5b505050506040513d6020811015610fab57600080fd5b810190808051906020019092919050505073ffffffffffffffffffffffffffffffffffffffff16145b80156110ad57503073ffffffffffffffffffffffffffffffffffffffff16600a60009054906101000a900473ffffffffffffffffffffffffffffffffffffffff1673ffffffffffffffffffffffffffffffffffffffff1663570ca7356040518163ffffffff1660e01b815260040160206040518083038186803b15801561105a57600080fd5b505afa15801561106e573d6000803e3d6000fd5b505050506040513d602081101561108457600080fd5b810190808051906020019092919050505073ffffffffffffffffffffffffffffffffffffffff16145b61111f576040517f08c379a000000000000000000000000000000000000000000000000000000000815260040180806020018281038252601e8152602001807f54726561737572793a206e656564206d6f7265207065726d697373696f6e000081525060200191505060405180910390fd5b60008211611178576040517f08c379a000000000000000000000000000000000000000000000000000000000815260040180806020018281038252602e815260200180615e7e602e913960400191505060405180910390fd5b60006111a5600b60009054906101000a900473ffffffffffffffffffffffffffffffffffffffff166150ab565b905081811461121c576040517f08c379a000000000000000000000000000000000000000000000000000000000815260040180806020018281038252601a8152602001807f54726561737572793a2063617368207072696365206d6f76656400000000000081525060200191505060405180910390fd5b600e548111611276576040517f08c379a0000000000000000000000000000000000000000000000000000000008152600401808060200182810382526032815260200180615eac6032913960400191505060405180910390fd5b82600760009054906101000a900473ffffffffffffffffffffffffffffffffffffffff1673ffffffffffffffffffffffffffffffffffffffff166370a08231306040518263ffffffff1660e01b8152600401808273ffffffffffffffffffffffffffffffffffffffff1673ffffffffffffffffffffffffffffffffffffffff16815260200191505060206040518083038186803b15801561131657600080fd5b505afa15801561132a573d6000803e3d6000fd5b505050506040513d602081101561134057600080fd5b810190808051906020019092919050505010156113a8576040517f08c379a0000000000000000000000000000000000000000000000000000000008152600401808060200182810382526025815260200180615f0b6025913960400191505060405180910390fd5b6113c86113b76010548561519e565b6010546151b790919063ffffffff16565b601081905550600860009054906101000a900473ffffffffffffffffffffffffffffffffffffffff1673ffffffffffffffffffffffffffffffffffffffff166379cc679033856040518363ffffffff1660e01b8152600401808373ffffffffffffffffffffffffffffffffffffffff1673ffffffffffffffffffffffffffffffffffffffff16815260200182815260200192505050600060405180830381600087803b15801561147757600080fd5b505af115801561148b573d6000803e3d6000fd5b505050506114dc3384600760009054906101000a900473ffffffffffffffffffffffffffffffffffffffff1673ffffffffffffffffffffffffffffffffffffffff166152019092919063ffffffff16565b6114e46152d2565b3373ffffffffffffffffffffffffffffffffffffffff167f9c3478f12dce08d85673d802af16ed5b9ebab8420ffd7b145d65d3157084b2ce846040518082815260200191505060405180910390a250600160008043815260200190815260200160002060003273ffffffffffffffffffffffffffffffffffffffff1673ffffffffffffffffffffffffffffffffffffffff16815260200190815260200160002060006101000a81548160ff021916908315150217905550600160008043815260200190815260200160002060003373ffffffffffffffffffffffffffffffffffffffff1673ffffffffffffffffffffffffffffffffffffffff16815260200190815260200160002060006101000a81548160ff0219169083151502179055505050565b600c60009054906101000a900473ffffffffffffffffffffffffffffffffffffffff1681565b600660019054906101000a900460ff1681565b6000600354905090565b600e5481565b6116586154f2565b73ffffffffffffffffffffffffffffffffffffffff16600160009054906101000a900473ffffffffffffffffffffffffffffffffffffffff1673ffffffffffffffffffffffffffffffffffffffff161461171a576040517f08c379a00000000000000000000000000000000000000000000000000000000081526004018080602001828103825260208152602001807f4f776e61626c653a2063616c6c6572206973206e6f7420746865206f776e657281525060200191505060405180910390fd5b611723816154fa565b50565b600660009054906101000a900460ff1681565b60006117666003546117586004546005546151b790919063ffffffff16565b61561f90919063ffffffff16565b905090565b6000600260009054906101000a900473ffffffffffffffffffffffffffffffffffffffff1673ffffffffffffffffffffffffffffffffffffffff166117ae6154f2565b73ffffffffffffffffffffffffffffffffffffffff1614905090565b6117d2614fe3565b15611828576040517f08c379a0000000000000000000000000000000000000000000000000000000008152600401808060200182810382526026815260200180615fcf6026913960400191505060405180910390fd5b611830615047565b15611886576040517f08c379a0000000000000000000000000000000000000000000000000000000008152600401808060200182810382526026815260200180615fcf6026913960400191505060405180910390fd5b600660009054906101000a900460ff1615611909576040517f08c379a00000000000000000000000000000000000000000000000000000000081526004018080602001828103825260128152602001807f54726561737572793a206d69677261746564000000000000000000000000000081525060200191505060405180910390fd5b600454421015611981576040517f08c379a00000000000000000000000000000000000000000000000000000000081526004018080602001828103825260168152602001807f45706f63683a206e6f742073746172746564207965740000000000000000000081525060200191505060405180910390fd5b3073ffffffffffffffffffffffffffffffffffffffff16600760009054906101000a900473ffffffffffffffffffffffffffffffffffffffff1673ffffffffffffffffffffffffffffffffffffffff1663570ca7356040518163ffffffff1660e01b815260040160206040518083038186803b158015611a0057600080fd5b505afa158015611a14573d6000803e3d6000fd5b505050506040513d6020811015611a2a57600080fd5b810190808051906020019092919050505073ffffffffffffffffffffffffffffffffffffffff16148015611b2b57503073ffffffffffffffffffffffffffffffffffffffff16600860009054906101000a900473ffffffffffffffffffffffffffffffffffffffff1673ffffffffffffffffffffffffffffffffffffffff1663570ca7356040518163ffffffff1660e01b815260040160206040518083038186803b158015611ad857600080fd5b505afa158015611aec573d6000803e3d6000fd5b505050506040513d6020811015611b0257600080fd5b810190808051906020019092919050505073ffffffffffffffffffffffffffffffffffffffff16145b8015611c0457503073ffffffffffffffffffffffffffffffffffffffff16600960009054906101000a900473ffffffffffffffffffffffffffffffffffffffff1673ffffffffffffffffffffffffffffffffffffffff1663570ca7356040518163ffffffff1660e01b815260040160206040518083038186803b158015611bb157600080fd5b505afa158015611bc5573d6000803e3d6000fd5b505050506040513d6020811015611bdb57600080fd5b810190808051906020019092919050505073ffffffffffffffffffffffffffffffffffffffff16145b8015611cdd57503073ffffffffffffffffffffffffffffffffffffffff16600a60009054906101000a900473ffffffffffffffffffffffffffffffffffffffff1673ffffffffffffffffffffffffffffffffffffffff1663570ca7356040518163ffffffff1660e01b815260040160206040518083038186803b158015611c8a57600080fd5b505afa158015611c9e573d6000803e3d6000fd5b505050506040513d6020811015611cb457600080fd5b810190808051906020019092919050505073ffffffffffffffffffffffffffffffffffffffff16145b611d4f576040517f08c379a000000000000000000000000000000000000000000000000000000000815260040180806020018281038252601e8152602001807f54726561737572793a206e656564206d6f7265207065726d697373696f6e000081525060200191505060405180910390fd5b60008211611da8576040517f08c379a0000000000000000000000000000000000000000000000000000000008152600401808060200182810382526030815260200180615f516030913960400191505060405180910390fd5b6000611dd5600b60009054906101000a900473ffffffffffffffffffffffffffffffffffffffff166150ab565b9050818114611e4c576040517f08c379a000000000000000000000000000000000000000000000000000000000815260040180806020018281038252601a8152602001807f54726561737572793a2063617368207072696365206d6f76656400000000000081525060200191505060405180910390fd5b600d548110611ea6576040517f08c379a0000000000000000000000000000000000000000000000000000000008152600401808060200182810382526032815260200180615eac6032913960400191505060405180910390fd5b6000819050600760009054906101000a900473ffffffffffffffffffffffffffffffffffffffff1673ffffffffffffffffffffffffffffffffffffffff166379cc679033866040518363ffffffff1660e01b8152600401808373ffffffffffffffffffffffffffffffffffffffff1673ffffffffffffffffffffffffffffffffffffffff16815260200182815260200192505050600060405180830381600087803b158015611f5457600080fd5b505af1158015611f68573d6000803e3d6000fd5b50505050600860009054906101000a900473ffffffffffffffffffffffffffffffffffffffff1673ffffffffffffffffffffffffffffffffffffffff166340c10f1933611fd884611fca670de0b6b3a76400008a61566990919063ffffffff16565b61561f90919063ffffffff16565b6040518363ffffffff1660e01b8152600401808373ffffffffffffffffffffffffffffffffffffffff1673ffffffffffffffffffffffffffffffffffffffff16815260200182815260200192505050602060405180830381600087803b15801561204157600080fd5b505af1158015612055573d6000803e3d6000fd5b505050506040513d602081101561206b57600080fd5b8101908080519060200190929190505050506120856152d2565b3373ffffffffffffffffffffffffffffffffffffffff167fdbf5270c3cf4729fec4fdac76fda864aa4f3d14d657ad21772ac28f627141ed9856040518082815260200191505060405180910390a25050600160008043815260200190815260200160002060003273ffffffffffffffffffffffffffffffffffffffff1673ffffffffffffffffffffffffffffffffffffffff16815260200190815260200160002060006101000a81548160ff021916908315150217905550600160008043815260200190815260200160002060003373ffffffffffffffffffffffffffffffffffffffff1673ffffffffffffffffffffffffffffffffffffffff16815260200190815260200160002060006101000a81548160ff0219169083151502179055505050565b6000600260009054906101000a900473ffffffffffffffffffffffffffffffffffffffff16905090565b6000601054905090565b6121e5614fe3565b1561223b576040517f08c379a0000000000000000000000000000000000000000000000000000000008152600401808060200182810382526026815260200180615fcf6026913960400191505060405180910390fd5b612243615047565b15612299576040517f08c379a0000000000000000000000000000000000000000000000000000000008152600401808060200182810382526026815260200180615fcf6026913960400191505060405180910390fd5b600660009054906101000a900460ff161561231c576040517f08c379a00000000000000000000000000000000000000000000000000000000081526004018080602001828103825260128152602001807f54726561737572793a206d69677261746564000000000000000000000000000081525060200191505060405180910390fd5b600454421015612394576040517f08c379a00000000000000000000000000000000000000000000000000000000081526004018080602001828103825260168152602001807f45706f63683a206e6f742073746172746564207965740000000000000000000081525060200191505060405180910390fd5b600454421161240b576040517f08c379a00000000000000000000000000000000000000000000000000000000081526004018080602001828103825260168152602001807f45706f63683a206e6f742073746172746564207965740000000000000000000081525060200191505060405180910390fd5b6124136131cf565b612485576040517f08c379a00000000000000000000000000000000000000000000000000000000081526004018080602001828103825260128152602001807f45706f63683a206e6f7420616c6c6f776564000000000000000000000000000081525060200191505060405180910390fd5b3073ffffffffffffffffffffffffffffffffffffffff16600760009054906101000a900473ffffffffffffffffffffffffffffffffffffffff1673ffffffffffffffffffffffffffffffffffffffff1663570ca7356040518163ffffffff1660e01b815260040160206040518083038186803b15801561250457600080fd5b505afa158015612518573d6000803e3d6000fd5b505050506040513d602081101561252e57600080fd5b810190808051906020019092919050505073ffffffffffffffffffffffffffffffffffffffff1614801561262f57503073ffffffffffffffffffffffffffffffffffffffff16600860009054906101000a900473ffffffffffffffffffffffffffffffffffffffff1673ffffffffffffffffffffffffffffffffffffffff1663570ca7356040518163ffffffff1660e01b815260040160206040518083038186803b1580156125dc57600080fd5b505afa1580156125f0573d6000803e3d6000fd5b505050506040513d602081101561260657600080fd5b810190808051906020019092919050505073ffffffffffffffffffffffffffffffffffffffff16145b801561270857503073ffffffffffffffffffffffffffffffffffffffff16600960009054906101000a900473ffffffffffffffffffffffffffffffffffffffff1673ffffffffffffffffffffffffffffffffffffffff1663570ca7356040518163ffffffff1660e01b815260040160206040518083038186803b1580156126b557600080fd5b505afa1580156126c9573d6000803e3d6000fd5b505050506040513d60208110156126df57600080fd5b810190808051906020019092919050505073ffffffffffffffffffffffffffffffffffffffff16145b80156127e157503073ffffffffffffffffffffffffffffffffffffffff16600a60009054906101000a900473ffffffffffffffffffffffffffffffffffffffff1673ffffffffffffffffffffffffffffffffffffffff1663570ca7356040518163ffffffff1660e01b815260040160206040518083038186803b15801561278e57600080fd5b505afa1580156127a2573d6000803e3d6000fd5b505050506040513d60208110156127b857600080fd5b810190808051906020019092919050505073ffffffffffffffffffffffffffffffffffffffff16145b612853576040517f08c379a000000000000000000000000000000000000000000000000000000000815260040180806020018281038252601e8152602001807f54726561737572793a206e656564206d6f7265207065726d697373696f6e000081525060200191505060405180910390fd5b61285b6152d2565b6000612888600c60009054906101000a900473ffffffffffffffffffffffffffffffffffffffff166150ab565b9050600e5481116128995750612f24565b6000612952601054600760009054906101000a900473ffffffffffffffffffffffffffffffffffffffff1673ffffffffffffffffffffffffffffffffffffffff166318160ddd6040518163ffffffff1660e01b815260040160206040518083038186803b15801561290957600080fd5b505afa15801561291d573d6000803e3d6000fd5b505050506040513d602081101561293357600080fd5b81019080805190602001909291905050506151b790919063ffffffff16565b9050600061296b600d54846151b790919063ffffffff16565b9050600061299c670de0b6b3a764000061298e848661566990919063ffffffff16565b61561f90919063ffffffff16565b9050600760009054906101000a900473ffffffffffffffffffffffffffffffffffffffff1673ffffffffffffffffffffffffffffffffffffffff166340c10f1930836040518363ffffffff1660e01b8152600401808373ffffffffffffffffffffffffffffffffffffffff1673ffffffffffffffffffffffffffffffffffffffff16815260200182815260200192505050602060405180830381600087803b158015612a4757600080fd5b505af1158015612a5b573d6000803e3d6000fd5b505050506040513d6020811015612a7157600080fd5b8101908080519060200190929190505050506000612aad6064612a9f6011548561566990919063ffffffff16565b61561f90919063ffffffff16565b90506000811115612c8357612b27600660029054906101000a900473ffffffffffffffffffffffffffffffffffffffff1682600760009054906101000a900473ffffffffffffffffffffffffffffffffffffffff1673ffffffffffffffffffffffffffffffffffffffff166156ef9092919063ffffffff16565b600660029054906101000a900473ffffffffffffffffffffffffffffffffffffffff1673ffffffffffffffffffffffffffffffffffffffff1663bfe07da6600760009054906101000a900473ffffffffffffffffffffffffffffffffffffffff16836040518363ffffffff1660e01b8152600401808373ffffffffffffffffffffffffffffffffffffffff1673ffffffffffffffffffffffffffffffffffffffff16815260200182815260200180602001828103825260208152602001807f54726561737572793a20536569676e696f7261676520416c6c6f636174696f6e8152506020019350505050600060405180830381600087803b158015612c2b57600080fd5b505af1158015612c3f573d6000803e3d6000fd5b505050507f4caa64211297e9263667fef70732dc65ca7a8e8c60dc72539ed94518628212d04282604051808381526020018281526020019250505060405180910390a15b612c9681836151b790919063ffffffff16565b91506000612d5a83612d55601054600860009054906101000a900473ffffffffffffffffffffffffffffffffffffffff1673ffffffffffffffffffffffffffffffffffffffff166318160ddd6040518163ffffffff1660e01b815260040160206040518083038186803b158015612d0c57600080fd5b505afa158015612d20573d6000803e3d6000fd5b505050506040513d6020811015612d3657600080fd5b81019080805190602001909291905050506151b790919063ffffffff16565b61519e565b90506000811115612dc057612d7a8160105461590f90919063ffffffff16565b6010819055507ff705142bf09f04297640495ddf7c59b7fd6f51894c5aea9602d631cf05f0efc24282604051808381526020018281526020019250505060405180910390a15b6000612dd582856151b790919063ffffffff16565b90506000811115612f1c57612e4f600a60009054906101000a900473ffffffffffffffffffffffffffffffffffffffff1682600760009054906101000a900473ffffffffffffffffffffffffffffffffffffffff1673ffffffffffffffffffffffffffffffffffffffff166156ef9092919063ffffffff16565b600a60009054906101000a900473ffffffffffffffffffffffffffffffffffffffff1673ffffffffffffffffffffffffffffffffffffffff166397ffe1d7826040518263ffffffff1660e01b815260040180828152602001915050600060405180830381600087803b158015612ec457600080fd5b505af1158015612ed8573d6000803e3d6000fd5b505050507f03ca7276ab7799bf73fb79d27ff0610cd7049574f2508ef8445162833d439aea4282604051808381526020018281526020019250505060405180910390a15b505050505050505b42600581905550600160008043815260200190815260200160002060003273ffffffffffffffffffffffffffffffffffffffff1673ffffffffffffffffffffffffffffffffffffffff16815260200190815260200160002060006101000a81548160ff021916908315150217905550600160008043815260200190815260200160002060003373ffffffffffffffffffffffffffffffffffffffff1673ffffffffffffffffffffffffffffffffffffffff16815260200190815260200160002060006101000a81548160ff021916908315150217905550565b600a60009054906101000a900473ffffffffffffffffffffffffffffffffffffffff1681565b600860009054906101000a900473ffffffffffffffffffffffffffffffffffffffff1681565b3373ffffffffffffffffffffffffffffffffffffffff16600260009054906101000a900473ffffffffffffffffffffffffffffffffffffffff1673ffffffffffffffffffffffffffffffffffffffff16146130ef576040517f08c379a0000000000000000000000000000000000000000000000000000000008152600401808060200182810382526024815260200180615f816024913960400191505060405180910390fd5b80600c60006101000a81548173ffffffffffffffffffffffffffffffffffffffff021916908373ffffffffffffffffffffffffffffffffffffffff1602179055503373ffffffffffffffffffffffffffffffffffffffff167f62d905e61d44aa3da19ae9e363560d57c881e9ae825f3168da44337707a12334600c60009054906101000a900473ffffffffffffffffffffffffffffffffffffffff16604051808273ffffffffffffffffffffffffffffffffffffffff1673ffffffffffffffffffffffffffffffffffffffff16815260200191505060405180910390a250565b60006131d9614d95565b6131e1613c6d565b1015905090565b600b60009054906101000a900473ffffffffffffffffffffffffffffffffffffffff1681565b6132166154f2565b73ffffffffffffffffffffffffffffffffffffffff16600160009054906101000a900473ffffffffffffffffffffffffffffffffffffffff1673ffffffffffffffffffffffffffffffffffffffff16146132d8576040517f08c379a00000000000000000000000000000000000000000000000000000000081526004018080602001828103825260208152602001807f4f776e61626c653a2063616c6c6572206973206e6f7420746865206f776e657281525060200191505060405180910390fd5b600073ffffffffffffffffffffffffffffffffffffffff16600160009054906101000a900473ffffffffffffffffffffffffffffffffffffffff1673ffffffffffffffffffffffffffffffffffffffff167f8be0079c531659141344cd1fd0a4f28419497f9722a3daafe3b4186f6b6457e060405160405180910390a36000600160006101000a81548173ffffffffffffffffffffffffffffffffffffffff021916908373ffffffffffffffffffffffffffffffffffffffff160217905550565b3073ffffffffffffffffffffffffffffffffffffffff16600760009054906101000a900473ffffffffffffffffffffffffffffffffffffffff1673ffffffffffffffffffffffffffffffffffffffff1663570ca7356040518163ffffffff1660e01b815260040160206040518083038186803b15801561341857600080fd5b505afa15801561342c573d6000803e3d6000fd5b505050506040513d602081101561344257600080fd5b810190808051906020019092919050505073ffffffffffffffffffffffffffffffffffffffff1614801561354357503073ffffffffffffffffffffffffffffffffffffffff16600860009054906101000a900473ffffffffffffffffffffffffffffffffffffffff1673ffffffffffffffffffffffffffffffffffffffff1663570ca7356040518163ffffffff1660e01b815260040160206040518083038186803b1580156134f057600080fd5b505afa158015613504573d6000803e3d6000fd5b505050506040513d602081101561351a57600080fd5b810190808051906020019092919050505073ffffffffffffffffffffffffffffffffffffffff16145b801561361c57503073ffffffffffffffffffffffffffffffffffffffff16600960009054906101000a900473ffffffffffffffffffffffffffffffffffffffff1673ffffffffffffffffffffffffffffffffffffffff1663570ca7356040518163ffffffff1660e01b815260040160206040518083038186803b1580156135c957600080fd5b505afa1580156135dd573d6000803e3d6000fd5b505050506040513d60208110156135f357600080fd5b810190808051906020019092919050505073ffffffffffffffffffffffffffffffffffffffff16145b80156136f557503073ffffffffffffffffffffffffffffffffffffffff16600a60009054906101000a900473ffffffffffffffffffffffffffffffffffffffff1673ffffffffffffffffffffffffffffffffffffffff1663570ca7356040518163ffffffff1660e01b815260040160206040518083038186803b1580156136a257600080fd5b505afa1580156136b6573d6000803e3d6000fd5b505050506040513d60208110156136cc57600080fd5b810190808051906020019092919050505073ffffffffffffffffffffffffffffffffffffffff16145b613767576040517f08c379a000000000000000000000000000000000000000000000000000000000815260040180806020018281038252601e8152602001807f54726561737572793a206e656564206d6f7265207065726d697373696f6e000081525060200191505060405180910390fd5b600660019054906101000a900460ff16156137ea576040517f08c379a00000000000000000000000000000000000000000000000000000000081526004018080602001828103825260158152602001807f54726561737572793a20696e697469616c697a6564000000000000000000000081525060200191505060405180910390fd5b600760009054906101000a900473ffffffffffffffffffffffffffffffffffffffff1673ffffffffffffffffffffffffffffffffffffffff166342966c68600760009054906101000a900473ffffffffffffffffffffffffffffffffffffffff1673ffffffffffffffffffffffffffffffffffffffff166370a08231306040518263ffffffff1660e01b8152600401808273ffffffffffffffffffffffffffffffffffffffff1673ffffffffffffffffffffffffffffffffffffffff16815260200191505060206040518083038186803b1580156138c757600080fd5b505afa1580156138db573d6000803e3d6000fd5b505050506040513d60208110156138f157600080fd5b81019080805190602001909291905050506040518263ffffffff1660e01b815260040180828152602001915050600060405180830381600087803b15801561393857600080fd5b505af115801561394c573d6000803e3d6000fd5b50505050600760009054906101000a900473ffffffffffffffffffffffffffffffffffffffff1673ffffffffffffffffffffffffffffffffffffffff166370a08231306040518263ffffffff1660e01b8152600401808273ffffffffffffffffffffffffffffffffffffffff1673ffffffffffffffffffffffffffffffffffffffff16815260200191505060206040518083038186803b1580156139ef57600080fd5b505afa158015613a03573d6000803e3d6000fd5b505050506040513d6020811015613a1957600080fd5b81019080805190602001909291905050506010819055506001600660016101000a81548160ff0219169083151502179055503373ffffffffffffffffffffffffffffffffffffffff167f25ff68dd81b34665b5ba7e553ee5511bf6812e12adb4a7e2c0d9e26b3099ce79436040518082815260200191505060405180910390a2565b6000600160009054906101000a900473ffffffffffffffffffffffffffffffffffffffff16905090565b3373ffffffffffffffffffffffffffffffffffffffff16600260009054906101000a900473ffffffffffffffffffffffffffffffffffffffff1673ffffffffffffffffffffffffffffffffffffffff1614613b6b576040517f08c379a0000000000000000000000000000000000000000000000000000000008152600401808060200182810382526024815260200180615f816024913960400191505060405180910390fd5b806011819055503373ffffffffffffffffffffffffffffffffffffffff167f25ba333c9a98f8f18bb40ff507a4a1fb423614f442759c754d038a9de3f81cf3826040518082815260200191505060405180910390a250565b600760009054906101000a900473ffffffffffffffffffffffffffffffffffffffff1681565b600960009054906101000a900473ffffffffffffffffffffffffffffffffffffffff1681565b600d5481565b600660029054906101000a900473ffffffffffffffffffffffffffffffffffffffff1681565b6000613c68600c60009054906101000a900473ffffffffffffffffffffffffffffffffffffffff166150ab565b905090565b6000613ca3600354613c95600454613c8760045442615997565b6151b790919063ffffffff16565b61561f90919063ffffffff16565b905090565b6000613cd5600b60009054906101000a900473ffffffffffffffffffffffffffffffffffffffff166150ab565b905090565b60115481565b6000613d12613d01600354613cf3614d95565b61566990919063ffffffff16565b60045461590f90919063ffffffff16565b905090565b6000600454905090565b3373ffffffffffffffffffffffffffffffffffffffff16600260009054906101000a900473ffffffffffffffffffffffffffffffffffffffff1673ffffffffffffffffffffffffffffffffffffffff1614613dc7576040517f08c379a0000000000000000000000000000000000000000000000000000000008152600401808060200182810382526024815260200180615f816024913960400191505060405180910390fd5b3073ffffffffffffffffffffffffffffffffffffffff16600760009054906101000a900473ffffffffffffffffffffffffffffffffffffffff1673ffffffffffffffffffffffffffffffffffffffff1663570ca7356040518163ffffffff1660e01b815260040160206040518083038186803b158015613e4657600080fd5b505afa158015613e5a573d6000803e3d6000fd5b505050506040513d6020811015613e7057600080fd5b810190808051906020019092919050505073ffffffffffffffffffffffffffffffffffffffff16148015613f7157503073ffffffffffffffffffffffffffffffffffffffff16600860009054906101000a900473ffffffffffffffffffffffffffffffffffffffff1673ffffffffffffffffffffffffffffffffffffffff1663570ca7356040518163ffffffff1660e01b815260040160206040518083038186803b158015613f1e57600080fd5b505afa158015613f32573d6000803e3d6000fd5b505050506040513d6020811015613f4857600080fd5b810190808051906020019092919050505073ffffffffffffffffffffffffffffffffffffffff16145b801561404a57503073ffffffffffffffffffffffffffffffffffffffff16600960009054906101000a900473ffffffffffffffffffffffffffffffffffffffff1673ffffffffffffffffffffffffffffffffffffffff1663570ca7356040518163ffffffff1660e01b815260040160206040518083038186803b158015613ff757600080fd5b505afa15801561400b573d6000803e3d6000fd5b505050506040513d602081101561402157600080fd5b810190808051906020019092919050505073ffffffffffffffffffffffffffffffffffffffff16145b801561412357503073ffffffffffffffffffffffffffffffffffffffff16600a60009054906101000a900473ffffffffffffffffffffffffffffffffffffffff1673ffffffffffffffffffffffffffffffffffffffff1663570ca7356040518163ffffffff1660e01b815260040160206040518083038186803b1580156140d057600080fd5b505afa1580156140e4573d6000803e3d6000fd5b505050506040513d60208110156140fa57600080fd5b810190808051906020019092919050505073ffffffffffffffffffffffffffffffffffffffff16145b614195576040517f08c379a000000000000000000000000000000000000000000000000000000000815260040180806020018281038252601e8152602001807f54726561737572793a206e656564206d6f7265207065726d697373696f6e000081525060200191505060405180910390fd5b600660009054906101000a900460ff1615614218576040517f08c379a00000000000000000000000000000000000000000000000000000000081526004018080602001828103825260128152602001807f54726561737572793a206d69677261746564000000000000000000000000000081525060200191505060405180910390fd5b600760009054906101000a900473ffffffffffffffffffffffffffffffffffffffff1673ffffffffffffffffffffffffffffffffffffffff166329605e77826040518263ffffffff1660e01b8152600401808273ffffffffffffffffffffffffffffffffffffffff1673ffffffffffffffffffffffffffffffffffffffff168152602001915050600060405180830381600087803b1580156142b957600080fd5b505af11580156142cd573d6000803e3d6000fd5b50505050600760009054906101000a900473ffffffffffffffffffffffffffffffffffffffff1673ffffffffffffffffffffffffffffffffffffffff1663f2fde38b826040518263ffffffff1660e01b8152600401808273ffffffffffffffffffffffffffffffffffffffff1673ffffffffffffffffffffffffffffffffffffffff168152602001915050600060405180830381600087803b15801561437257600080fd5b505af1158015614386573d6000803e3d6000fd5b50505050600760009054906101000a900473ffffffffffffffffffffffffffffffffffffffff1673ffffffffffffffffffffffffffffffffffffffff1663a9059cbb82600760009054906101000a900473ffffffffffffffffffffffffffffffffffffffff1673ffffffffffffffffffffffffffffffffffffffff166370a08231306040518263ffffffff1660e01b8152600401808273ffffffffffffffffffffffffffffffffffffffff1673ffffffffffffffffffffffffffffffffffffffff16815260200191505060206040518083038186803b15801561446857600080fd5b505afa15801561447c573d6000803e3d6000fd5b505050506040513d602081101561449257600080fd5b81019080805190602001909291905050506040518363ffffffff1660e01b8152600401808373ffffffffffffffffffffffffffffffffffffffff1673ffffffffffffffffffffffffffffffffffffffff16815260200182815260200192505050602060405180830381600087803b15801561450c57600080fd5b505af1158015614520573d6000803e3d6000fd5b505050506040513d602081101561453657600080fd5b810190808051906020019092919050505050600860009054906101000a900473ffffffffffffffffffffffffffffffffffffffff1673ffffffffffffffffffffffffffffffffffffffff166329605e77826040518263ffffffff1660e01b8152600401808273ffffffffffffffffffffffffffffffffffffffff1673ffffffffffffffffffffffffffffffffffffffff168152602001915050600060405180830381600087803b1580156145e957600080fd5b505af11580156145fd573d6000803e3d6000fd5b50505050600860009054906101000a900473ffffffffffffffffffffffffffffffffffffffff1673ffffffffffffffffffffffffffffffffffffffff1663f2fde38b826040518263ffffffff1660e01b8152600401808273ffffffffffffffffffffffffffffffffffffffff1673ffffffffffffffffffffffffffffffffffffffff168152602001915050600060405180830381600087803b1580156146a257600080fd5b505af11580156146b6573d6000803e3d6000fd5b50505050600860009054906101000a900473ffffffffffffffffffffffffffffffffffffffff1673ffffffffffffffffffffffffffffffffffffffff1663a9059cbb82600860009054906101000a900473ffffffffffffffffffffffffffffffffffffffff1673ffffffffffffffffffffffffffffffffffffffff166370a08231306040518263ffffffff1660e01b8152600401808273ffffffffffffffffffffffffffffffffffffffff1673ffffffffffffffffffffffffffffffffffffffff16815260200191505060206040518083038186803b15801561479857600080fd5b505afa1580156147ac573d6000803e3d6000fd5b505050506040513d60208110156147c257600080fd5b81019080805190602001909291905050506040518363ffffffff1660e01b8152600401808373ffffffffffffffffffffffffffffffffffffffff1673ffffffffffffffffffffffffffffffffffffffff16815260200182815260200192505050602060405180830381600087803b15801561483c57600080fd5b505af1158015614850573d6000803e3d6000fd5b505050506040513d602081101561486657600080fd5b810190808051906020019092919050505050600960009054906101000a900473ffffffffffffffffffffffffffffffffffffffff1673ffffffffffffffffffffffffffffffffffffffff166329605e77826040518263ffffffff1660e01b8152600401808273ffffffffffffffffffffffffffffffffffffffff1673ffffffffffffffffffffffffffffffffffffffff168152602001915050600060405180830381600087803b15801561491957600080fd5b505af115801561492d573d6000803e3d6000fd5b50505050600960009054906101000a900473ffffffffffffffffffffffffffffffffffffffff1673ffffffffffffffffffffffffffffffffffffffff1663f2fde38b826040518263ffffffff1660e01b8152600401808273ffffffffffffffffffffffffffffffffffffffff1673ffffffffffffffffffffffffffffffffffffffff168152602001915050600060405180830381600087803b1580156149d257600080fd5b505af11580156149e6573d6000803e3d6000fd5b50505050600960009054906101000a900473ffffffffffffffffffffffffffffffffffffffff1673ffffffffffffffffffffffffffffffffffffffff1663a9059cbb82600960009054906101000a900473ffffffffffffffffffffffffffffffffffffffff1673ffffffffffffffffffffffffffffffffffffffff166370a08231306040518263ffffffff1660e01b8152600401808273ffffffffffffffffffffffffffffffffffffffff1673ffffffffffffffffffffffffffffffffffffffff16815260200191505060206040518083038186803b158015614ac857600080fd5b505afa158015614adc573d6000803e3d6000fd5b505050506040513d6020811015614af257600080fd5b81019080805190602001909291905050506040518363ffffffff1660e01b8152600401808373ffffffffffffffffffffffffffffffffffffffff1673ffffffffffffffffffffffffffffffffffffffff16815260200182815260200192505050602060405180830381600087803b158015614b6c57600080fd5b505af1158015614b80573d6000803e3d6000fd5b505050506040513d6020811015614b9657600080fd5b8101908080519060200190929190505050506001600660006101000a81548160ff0219169083151502179055508073ffffffffffffffffffffffffffffffffffffffff167f0caca70b66aed56b0630989a049110023c5a3f37e0ea4b6ce96fc747663f3ebc60405160405180910390a250565b600f5481565b3373ffffffffffffffffffffffffffffffffffffffff16600260009054906101000a900473ffffffffffffffffffffffffffffffffffffffff1673ffffffffffffffffffffffffffffffffffffffff1614614cb5576040517f08c379a0000000000000000000000000000000000000000000000000000000008152600401808060200182810382526024815260200180615f816024913960400191505060405180910390fd5b80600b60006101000a81548173ffffffffffffffffffffffffffffffffffffffff021916908373ffffffffffffffffffffffffffffffffffffffff1602179055503373ffffffffffffffffffffffffffffffffffffffff167f297433a501d66214e8effe4457c4fbdfc93b925a2e0ca06e28bcf092cd961f43600b60009054906101000a900473ffffffffffffffffffffffffffffffffffffffff16604051808273ffffffffffffffffffffffffffffffffffffffff1673ffffffffffffffffffffffffffffffffffffffff16815260200191505060405180910390a250565b60006005546004541415614db257614dab611739565b9050614dd0565b614dcd6001614dbf611739565b61590f90919063ffffffff16565b90505b90565b614ddb6154f2565b73ffffffffffffffffffffffffffffffffffffffff16600160009054906101000a900473ffffffffffffffffffffffffffffffffffffffff1673ffffffffffffffffffffffffffffffffffffffff1614614e9d576040517f08c379a00000000000000000000000000000000000000000000000000000000081526004018080602001828103825260208152602001807f4f776e61626c653a2063616c6c6572206973206e6f7420746865206f776e657281525060200191505060405180910390fd5b600073ffffffffffffffffffffffffffffffffffffffff168173ffffffffffffffffffffffffffffffffffffffff161415614f23576040517f08c379a0000000000000000000000000000000000000000000000000000000008152600401808060200182810382526026815260200180615e586026913960400191505060405180910390fd5b8073ffffffffffffffffffffffffffffffffffffffff16600160009054906101000a900473ffffffffffffffffffffffffffffffffffffffff1673ffffffffffffffffffffffffffffffffffffffff167f8be0079c531659141344cd1fd0a4f28419497f9722a3daafe3b4186f6b6457e060405160405180910390a380600160006101000a81548173ffffffffffffffffffffffffffffffffffffffff021916908373ffffffffffffffffffffffffffffffffffffffff16021790555050565b600080600043815260200190815260200160002060003273ffffffffffffffffffffffffffffffffffffffff1673ffffffffffffffffffffffffffffffffffffffff16815260200190815260200160002060009054906101000a900460ff16905090565b600080600043815260200190815260200160002060003373ffffffffffffffffffffffffffffffffffffffff1673ffffffffffffffffffffffffffffffffffffffff16815260200190815260200160002060009054906101000a900460ff16905090565b60008173ffffffffffffffffffffffffffffffffffffffff16633ddac953600760009054906101000a900473ffffffffffffffffffffffffffffffffffffffff16670de0b6b3a76400006040518363ffffffff1660e01b8152600401808373ffffffffffffffffffffffffffffffffffffffff1673ffffffffffffffffffffffffffffffffffffffff1681526020018281526020019250505060206040518083038186803b15801561515c57600080fd5b505afa158015615170573d6000803e3d6000fd5b505050506040513d602081101561518657600080fd5b81019080805190602001909291905050509050919050565b60008183106151ad57816151af565b825b905092915050565b60006151f983836040518060400160405280601e81526020017f536166654d6174683a207375627472616374696f6e206f766572666c6f7700008152506159b1565b905092915050565b6152cd838473ffffffffffffffffffffffffffffffffffffffff1663a9059cbb905060e01b8484604051602401808373ffffffffffffffffffffffffffffffffffffffff1673ffffffffffffffffffffffffffffffffffffffff16815260200182815260200192505050604051602081830303815290604052907bffffffffffffffffffffffffffffffffffffffffffffffffffffffff19166020820180517bffffffffffffffffffffffffffffffffffffffffffffffffffffffff8381831617835250505050615a71565b505050565b6000600b60009054906101000a900473ffffffffffffffffffffffffffffffffffffffff1690508073ffffffffffffffffffffffffffffffffffffffff16636a2ab6026040518163ffffffff1660e01b815260040160206040518083038186803b15801561533f57600080fd5b505afa158015615353573d6000803e3d6000fd5b505050506040513d602081101561536957600080fd5b8101908080519060200190929190505050156153e0578073ffffffffffffffffffffffffffffffffffffffff1663a2e620456040518163ffffffff1660e01b8152600401600060405180830381600087803b1580156153c757600080fd5b505af11580156153db573d6000803e3d6000fd5b505050505b6000600c60009054906101000a900473ffffffffffffffffffffffffffffffffffffffff1690508073ffffffffffffffffffffffffffffffffffffffff16636a2ab6026040518163ffffffff1660e01b815260040160206040518083038186803b15801561544d57600080fd5b505afa158015615461573d6000803e3d6000fd5b505050506040513d602081101561547757600080fd5b8101908080519060200190929190505050156154ee578073ffffffffffffffffffffffffffffffffffffffff1663a2e620456040518163ffffffff1660e01b8152600401600060405180830381600087803b1580156154d557600080fd5b505af11580156154e9573d6000803e3d6000fd5b505050505b5050565b600033905090565b600073ffffffffffffffffffffffffffffffffffffffff168173ffffffffffffffffffffffffffffffffffffffff161415615580576040517f08c379a000000000000000000000000000000000000000000000000000000000815260040180806020018281038252602d815260200180615ede602d913960400191505060405180910390fd5b8073ffffffffffffffffffffffffffffffffffffffff16600073ffffffffffffffffffffffffffffffffffffffff167f74da04524d50c64947f5dd5381ef1a4dca5cba8ed1d816243f9e48aa0b5617ed60405160405180910390a380600260006101000a81548173ffffffffffffffffffffffffffffffffffffffff021916908373ffffffffffffffffffffffffffffffffffffffff16021790555050565b600061566183836040518060400160405280601a81526020017f536166654d6174683a206469766973696f6e206279207a65726f000000000000815250615b60565b905092915050565b60008083141561567c57600090506156e9565b600082840290508284828161568d57fe5b04146156e4576040517f08c379a0000000000000000000000000000000000000000000000000000000008152600401808060200182810382526021815260200180615f306021913960400191505060405180910390fd5b809150505b92915050565b60008114806157e9575060008373ffffffffffffffffffffffffffffffffffffffff1663dd62ed3e30856040518363ffffffff1660e01b8152600401808373ffffffffffffffffffffffffffffffffffffffff1673ffffffffffffffffffffffffffffffffffffffff1681526020018273ffffffffffffffffffffffffffffffffffffffff1673ffffffffffffffffffffffffffffffffffffffff1681526020019250505060206040518083038186803b1580156157ac57600080fd5b505afa1580156157c0573d6000803e3d6000fd5b505050506040513d60208110156157d657600080fd5b8101908080519060200190929190505050145b61583e576040517f08c379a0000000000000000000000000000000000000000000000000000000008152600401808060200182810382526036815260200180615ff56036913960400191505060405180910390fd5b61590a838473ffffffffffffffffffffffffffffffffffffffff1663095ea7b3905060e01b8484604051602401808373ffffffffffffffffffffffffffffffffffffffff1673ffffffffffffffffffffffffffffffffffffffff16815260200182815260200192505050604051602081830303815290604052907bffffffffffffffffffffffffffffffffffffffffffffffffffffffff19166020820180517bffffffffffffffffffffffffffffffffffffffffffffffffffffffff8381831617835250505050615a71565b505050565b60008082840190508381101561598d576040517f08c379a000000000000000000000000000000000000000000000000000000000815260040180806020018281038252601b8152602001807f536166654d6174683a206164646974696f6e206f766572666c6f77000000000081525060200191505060405180910390fd5b8091505092915050565b6000818310156159a757816159a9565b825b905092915050565b6000838311158290615a5e576040517f08c379a00000000000000000000000000000000000000000000000000000000081526004018080602001828103825283818151815260200191508051906020019080838360005b83811015615a23578082015181840152602081019050615a08565b50505050905090810190601f168015615a505780820380516001836020036101000a031916815260200191505b509250505060405180910390fd5b5060008385039050809150509392505050565b6060615ad3826040518060400160405280602081526020017f5361666545524332303a206c6f772d6c6576656c2063616c6c206661696c65648152508573ffffffffffffffffffffffffffffffffffffffff16615c269092919063ffffffff16565b9050600081511115615b5b57808060200190516020811015615af457600080fd5b8101908080519060200190929190505050615b5a576040517f08c379a000000000000000000000000000000000000000000000000000000000815260040180806020018281038252602a815260200180615fa5602a913960400191505060405180910390fd5b5b505050565b60008083118290615c0c576040517f08c379a00000000000000000000000000000000000000000000000000000000081526004018080602001828103825283818151815260200191508051906020019080838360005b83811015615bd1578082015181840152602081019050615bb6565b50505050905090810190601f168015615bfe5780820380516001836020036101000a031916815260200191505b509250505060405180910390fd5b506000838581615c1857fe5b049050809150509392505050565b6060615c358484600085615c3e565b90509392505050565b6060615c4985615e44565b615cbb576040517f08c379a000000000000000000000000000000000000000000000000000000000815260040180806020018281038252601d8152602001807f416464726573733a2063616c6c20746f206e6f6e2d636f6e747261637400000081525060200191505060405180910390fd5b600060608673ffffffffffffffffffffffffffffffffffffffff1685876040518082805190602001908083835b60208310615d0b5780518252602082019150602081019050602083039250615ce8565b6001836020036101000a03801982511681845116808217855250505050505090500191505060006040518083038185875af1925050503d8060008114615d6d576040519150601f19603f3d011682016040523d82523d6000602084013e615d72565b606091505b50915091508115615d87578092505050615e3c565b600081511115615d9a5780518082602001fd5b836040517f08c379a00000000000000000000000000000000000000000000000000000000081526004018080602001828103825283818151815260200191508051906020019080838360005b83811015615e01578082015181840152602081019050615de6565b50505050905090810190601f168015615e2e5780820380516001836020036101000a031916815260200191505b509250505060405180910390fd5b949350505050565b600080823b90506000811191505091905056fe4f776e61626c653a206e6577206f776e657220697320746865207a65726f206164647265737354726561737572793a2063616e6e6f742072656465656d20626f6e64732077697468207a65726f20616d6f756e7454726561737572793a20636173685072696365206e6f7420656c696769626c6520666f7220626f6e642070757263686173656f70657261746f723a207a65726f206164647265737320676976656e20666f72206e6577206f70657261746f7254726561737572793a20747265617375727920686173206e6f206d6f726520627564676574536166654d6174683a206d756c7469706c69636174696f6e206f766572666c6f7754726561737572793a2063616e6e6f7420707572636861736520626f6e64732077697468207a65726f20616d6f756e746f70657261746f723a2063616c6c6572206973206e6f7420746865206f70657261746f725361666545524332303a204552433230206f7065726174696f6e20646964206e6f742073756363656564436f6e747261637447756172643a206f6e6520626c6f636b2c206f6e652066756e6374696f6e5361666545524332303a20617070726f76652066726f6d206e6f6e2d7a65726f20746f206e6f6e2d7a65726f20616c6c6f77616e6365a26474726f6e58204f06c020c5a25e8bc46fceb0ee6f20a349a7c145c78960ba851debda6dc4e66464736f6c634300050f0031536166654d6174683a206d756c7469706c69636174696f6e206f766572666c6f77",
  "source": "pragma solidity ^0.5.15;\n\nimport '@openzeppelin/contracts/math/Math.sol';\nimport '@openzeppelin/contracts/token/ERC20/IERC20.sol';\nimport '@openzeppelin/contracts/token/ERC20/SafeERC20.sol';\nimport '@openzeppelin/contracts/utils/ReentrancyGuard.sol';\n\nimport './interfaces/IOracle.sol';\nimport './interfaces/IBoardroom.sol';\nimport './interfaces/IBasisAsset.sol';\nimport './interfaces/ISimpleERCFund.sol';\nimport './lib/Babylonian.sol';\nimport './lib/FixedPoint.sol';\nimport './lib/Safe112.sol';\nimport './owner/Operator.sol';\nimport './utils/Epoch.sol';\nimport './utils/ContractGuard.sol';\n\n/**\n * @title Basis Cash Treasury contract\n * @notice Monetary policy logic to adjust supplies of basis cash assets\n * @author Summer Smith & Rick Sanchez\n */\ncontract Treasury is ContractGuard, Epoch {\n    using FixedPoint for *;\n    using SafeERC20 for IERC20;\n    using Address for address;\n    using SafeMath for uint256;\n    using Safe112 for uint112;\n\n    /* ========== STATE VARIABLES ========== */\n\n    // ========== FLAGS\n    bool public migrated = false;\n    bool public initialized = false;\n\n    // ========== CORE\n    address public fund;\n    address public cash;\n    address public bond;\n    address public share;\n    address public boardroom;\n\n    address public bondOracle;\n    address public seigniorageOracle;\n\n    // ========== PARAMS\n    uint256 public cashPriceOne;\n    uint256 public cashPriceCeiling;\n    uint256 public bondDepletionFloor;\n    uint256 private accumulatedSeigniorage = 0;\n    uint256 public fundAllocationRate = 5; // %\n\n    /* ========== CONSTRUCTOR ========== */\n\n    constructor(\n        address _cash,\n        address _bond,\n        address _share,\n        address _bondOracle,\n        address _seigniorageOracle,\n        address _boardroom,\n        address _fund,\n        uint256 _startTime,\n        uint256 _period\n    ) public Epoch(_period, _startTime, 0) {\n        cash = _cash;\n        bond = _bond;\n        share = _share;\n        bondOracle = _bondOracle;\n        seigniorageOracle = _seigniorageOracle;\n\n        boardroom = _boardroom;\n        fund = _fund;\n\n        cashPriceOne = 10**18;\n        cashPriceCeiling = uint256(105).mul(cashPriceOne).div(10**2);\n\n        bondDepletionFloor = uint256(1000).mul(cashPriceOne);\n    }\n\n    /* =================== Modifier =================== */\n\n    modifier checkMigration {\n        require(!migrated, 'Treasury: migrated');\n\n        _;\n    }\n\n    modifier checkOperator {\n        require(\n            IBasisAsset(cash).operator() == address(this) &&\n                IBasisAsset(bond).operator() == address(this) &&\n                IBasisAsset(share).operator() == address(this) &&\n                Operator(boardroom).operator() == address(this),\n            'Treasury: need more permission'\n        );\n\n        _;\n    }\n\n    /* ========== VIEW FUNCTIONS ========== */\n\n    // budget\n    function getReserve() public view returns (uint256) {\n        return accumulatedSeigniorage;\n    }\n\n    // oracle\n    function getBondOraclePrice() public view returns (uint256) {\n        return _getCashPrice(bondOracle);\n    }\n\n    function getSeigniorageOraclePrice() public view returns (uint256) {\n        return _getCashPrice(seigniorageOracle);\n    }\n\n    function _getCashPrice(address oracle) internal view returns (uint256) {\n      return IOracle(oracle).consult(cash, 1e18);\n    }\n\n    /* ========== GOVERNANCE ========== */\n\n    function initialize() public checkOperator {\n        require(!initialized, 'Treasury: initialized');\n\n        // burn all of it's balance\n        IBasisAsset(cash).burn(IERC20(cash).balanceOf(address(this)));\n\n        // set accumulatedSeigniorage to it's balance\n        accumulatedSeigniorage = IERC20(cash).balanceOf(address(this));\n\n        initialized = true;\n        emit Initialized(msg.sender, block.number);\n    }\n\n    function migrate(address target) public onlyOperator checkOperator {\n        require(!migrated, 'Treasury: migrated');\n\n        // cash\n        Operator(cash).transferOperator(target);\n        Operator(cash).transferOwnership(target);\n        IERC20(cash).transfer(target, IERC20(cash).balanceOf(address(this)));\n\n        // bond\n        Operator(bond).transferOperator(target);\n        Operator(bond).transferOwnership(target);\n        IERC20(bond).transfer(target, IERC20(bond).balanceOf(address(this)));\n\n        // share\n        Operator(share).transferOperator(target);\n        Operator(share).transferOwnership(target);\n        IERC20(share).transfer(target, IERC20(share).balanceOf(address(this)));\n\n        migrated = true;\n        emit Migration(target);\n    }\n\n    function setFund(address newFund) public onlyOperator {\n        fund = newFund;\n        emit ContributionPoolChanged(msg.sender, newFund);\n    }\n\n    function setFundAllocationRate(uint256 rate) public onlyOperator {\n        fundAllocationRate = rate;\n        emit ContributionPoolRateChanged(msg.sender, rate);\n    }\n\n    function setBondOracle(address _bondOracle) public onlyOperator {\n        bondOracle = _bondOracle;\n        emit BondOracleChanged(msg.sender, bondOracle);\n    }\n\n    function setSeigniorageBondOracle(address _seigniorageOracle) public onlyOperator {\n        seigniorageOracle = _seigniorageOracle;\n        emit SeigniorageBondOracleChanged(msg.sender, seigniorageOracle);\n    }\n\n    /* ========== MUTABLE FUNCTIONS ========== */\n\n    function _updateCashPrice() internal {\n      // FIXME: should probably check callable before calling update\n      IOracle bo = IOracle(bondOracle);\n      if (bo.callable()) {\n        bo.update();\n      }\n\n      IOracle so = IOracle(seigniorageOracle);\n      if (so.callable()) {\n        so.update();\n      }\n    }\n\n    function buyBonds(uint256 amount, uint256 targetPrice)\n        external\n        onlyOneBlock\n        checkMigration\n        checkStartTime\n        checkOperator\n    {\n        require(amount > 0, 'Treasury: cannot purchase bonds with zero amount');\n\n        uint256 cashPrice = _getCashPrice(bondOracle);\n        require(cashPrice == targetPrice, 'Treasury: cash price moved');\n        require(\n            cashPrice < cashPriceOne, // price < $1\n            'Treasury: cashPrice not eligible for bond purchase'\n        );\n\n        uint256 bondPrice = cashPrice;\n\n        IBasisAsset(cash).burnFrom(msg.sender, amount);\n        IBasisAsset(bond).mint(msg.sender, amount.mul(1e18).div(bondPrice));\n        _updateCashPrice();\n\n        emit BoughtBonds(msg.sender, amount);\n    }\n\n    function redeemBonds(uint256 amount, uint256 targetPrice)\n        external\n        onlyOneBlock\n        checkMigration\n        checkStartTime\n        checkOperator\n    {\n        require(amount > 0, 'Treasury: cannot redeem bonds with zero amount');\n\n        uint256 cashPrice = _getCashPrice(bondOracle);\n        require(cashPrice == targetPrice, 'Treasury: cash price moved');\n        require(\n            cashPrice > cashPriceCeiling, // price > $1.05\n            'Treasury: cashPrice not eligible for bond purchase'\n        );\n        require(\n            IERC20(cash).balanceOf(address(this)) >= amount,\n            'Treasury: treasury has no more budget'\n        );\n\n        accumulatedSeigniorage = accumulatedSeigniorage.sub(\n            Math.min(accumulatedSeigniorage, amount)\n        );\n\n        IBasisAsset(bond).burnFrom(msg.sender, amount);\n        IERC20(cash).safeTransfer(msg.sender, amount);\n        _updateCashPrice();\n\n        emit RedeemedBonds(msg.sender, amount);\n    }\n\n    function allocateSeigniorage()\n        external\n        onlyOneBlock\n        checkMigration\n        checkStartTime\n        checkEpoch\n        checkOperator\n    {\n        _updateCashPrice();\n        uint256 cashPrice = _getCashPrice(seigniorageOracle);\n        if (cashPrice <= cashPriceCeiling) {\n            return; // just advance epoch instead revert\n        }\n\n        // circulating supply\n        uint256 cashSupply = IERC20(cash).totalSupply().sub(\n            accumulatedSeigniorage\n        );\n        uint256 percentage = cashPrice.sub(cashPriceOne);\n        uint256 seigniorage = cashSupply.mul(percentage).div(1e18);\n        IBasisAsset(cash).mint(address(this), seigniorage);\n\n        // ======================== BIP-3\n        uint256 fundReserve = seigniorage.mul(fundAllocationRate).div(100);\n        if (fundReserve > 0) {\n            IERC20(cash).safeApprove(fund, fundReserve);\n            ISimpleERCFund(fund).deposit(\n                cash,\n                fundReserve,\n                'Treasury: Seigniorage Allocation'\n            );\n            emit ContributionPoolFunded(now, fundReserve);\n        }\n\n        seigniorage = seigniorage.sub(fundReserve);\n\n        // ======================== BIP-4\n        uint256 treasuryReserve = Math.min(\n            seigniorage,\n            IERC20(bond).totalSupply().sub(accumulatedSeigniorage)\n        );\n        if (treasuryReserve > 0) {\n            accumulatedSeigniorage = accumulatedSeigniorage.add(\n                treasuryReserve\n            );\n            emit TreasuryFunded(now, treasuryReserve);\n        }\n\n        // boardroom\n        uint256 boardroomReserve = seigniorage.sub(treasuryReserve);\n        if (boardroomReserve > 0) {\n            IERC20(cash).safeApprove(boardroom, boardroomReserve);\n            IBoardroom(boardroom).allocateSeigniorage(boardroomReserve);\n            emit BoardroomFunded(now, boardroomReserve);\n        }\n    }\n\n    // GOV\n    event Initialized(address indexed executor, uint256 at);\n    event Migration(address indexed target);\n    event ContributionPoolChanged(address indexed operator, address newFund);\n    event ContributionPoolRateChanged(\n        address indexed operator,\n        uint256 newRate\n    );\n    event BondOracleChanged(address indexed operator, address newOracle);\n    event SeigniorageBondOracleChanged(address indexed operator, address newOracle);\n\n    // CORE\n    event RedeemedBonds(address indexed from, uint256 amount);\n    event BoughtBonds(address indexed from, uint256 amount);\n    event TreasuryFunded(uint256 timestamp, uint256 seigniorage);\n    event BoardroomFunded(uint256 timestamp, uint256 seigniorage);\n    event ContributionPoolFunded(uint256 timestamp, uint256 seigniorage);\n}\n",
  "sourcePath": "/Users/howard/src/trx-basis/tronbasiscash/contracts/Treasury.sol",
  "compiler": {
    "name": "solc",
    "version": "0.5.15+commit.fd7f48cf.Emscripten.clang"
  },
  "schemaVersion": "2.0.1",
  "updatedAt": "2021-01-15T10:11:21.502Z"
}