{
  "contractName": "TRXPool",
  "abi": [
    {
      "inputs": [
        {
          "internalType": "address",
          "name": "basisCash_",
          "type": "address"
        },
        {
          "internalType": "uint256",
          "name": "starttime_",
          "type": "uint256"
        }
      ],
      "payable": false,
      "stateMutability": "nonpayable",
      "type": "constructor"
    },
    {
      "anonymous": false,
      "inputs": [
        {
          "indexed": true,
          "internalType": "address",
          "name": "previousOwner",
          "type": "address"
        },
        {
          "indexed": true,
          "internalType": "address",
          "name": "newOwner",
          "type": "address"
        }
      ],
      "name": "OwnershipTransferred",
      "type": "event"
    },
    {
      "anonymous": false,
      "inputs": [
        {
          "indexed": false,
          "internalType": "uint256",
          "name": "reward",
          "type": "uint256"
        }
      ],
      "name": "RewardAdded",
      "type": "event"
    },
    {
      "anonymous": false,
      "inputs": [
        {
          "indexed": true,
          "internalType": "address",
          "name": "user",
          "type": "address"
        },
        {
          "indexed": false,
          "internalType": "uint256",
          "name": "reward",
          "type": "uint256"
        }
      ],
      "name": "RewardPaid",
      "type": "event"
    },
    {
      "anonymous": false,
      "inputs": [
        {
          "indexed": true,
          "internalType": "address",
          "name": "user",
          "type": "address"
        },
        {
          "indexed": false,
          "internalType": "uint256",
          "name": "amount",
          "type": "uint256"
        }
      ],
      "name": "Staked",
      "type": "event"
    },
    {
      "anonymous": false,
      "inputs": [
        {
          "indexed": true,
          "internalType": "address",
          "name": "user",
          "type": "address"
        },
        {
          "indexed": false,
          "internalType": "uint256",
          "name": "amount",
          "type": "uint256"
        }
      ],
      "name": "Withdrawn",
      "type": "event"
    },
    {
      "constant": true,
      "inputs": [],
      "name": "DURATION",
      "outputs": [
        {
          "internalType": "uint256",
          "name": "",
          "type": "uint256"
        }
      ],
      "payable": false,
      "stateMutability": "view",
      "type": "function"
    },
    {
      "constant": true,
      "inputs": [
        {
          "internalType": "address",
          "name": "account",
          "type": "address"
        }
      ],
      "name": "balanceOf",
      "outputs": [
        {
          "internalType": "uint256",
          "name": "",
          "type": "uint256"
        }
      ],
      "payable": false,
      "stateMutability": "view",
      "type": "function"
    },
    {
      "constant": true,
      "inputs": [],
      "name": "basisCash",
      "outputs": [
        {
          "internalType": "contract IERC20",
          "name": "",
          "type": "address"
        }
      ],
      "payable": false,
      "stateMutability": "view",
      "type": "function"
    },
    {
      "constant": true,
      "inputs": [
        {
          "internalType": "address",
          "name": "",
          "type": "address"
        }
      ],
      "name": "deposits",
      "outputs": [
        {
          "internalType": "uint256",
          "name": "",
          "type": "uint256"
        }
      ],
      "payable": false,
      "stateMutability": "view",
      "type": "function"
    },
    {
      "constant": true,
      "inputs": [],
      "name": "lastUpdateTime",
      "outputs": [
        {
          "internalType": "uint256",
          "name": "",
          "type": "uint256"
        }
      ],
      "payable": false,
      "stateMutability": "view",
      "type": "function"
    },
    {
      "constant": true,
      "inputs": [],
      "name": "owner",
      "outputs": [
        {
          "internalType": "address",
          "name": "",
          "type": "address"
        }
      ],
      "payable": false,
      "stateMutability": "view",
      "type": "function"
    },
    {
      "constant": true,
      "inputs": [],
      "name": "periodFinish",
      "outputs": [
        {
          "internalType": "uint256",
          "name": "",
          "type": "uint256"
        }
      ],
      "payable": false,
      "stateMutability": "view",
      "type": "function"
    },
    {
      "constant": false,
      "inputs": [],
      "name": "renounceOwnership",
      "outputs": [],
      "payable": false,
      "stateMutability": "nonpayable",
      "type": "function"
    },
    {
      "constant": true,
      "inputs": [],
      "name": "rewardDistribution",
      "outputs": [
        {
          "internalType": "address",
          "name": "",
          "type": "address"
        }
      ],
      "payable": false,
      "stateMutability": "view",
      "type": "function"
    },
    {
      "constant": true,
      "inputs": [],
      "name": "rewardPerTokenStored",
      "outputs": [
        {
          "internalType": "uint256",
          "name": "",
          "type": "uint256"
        }
      ],
      "payable": false,
      "stateMutability": "view",
      "type": "function"
    },
    {
      "constant": true,
      "inputs": [],
      "name": "rewardRate",
      "outputs": [
        {
          "internalType": "uint256",
          "name": "",
          "type": "uint256"
        }
      ],
      "payable": false,
      "stateMutability": "view",
      "type": "function"
    },
    {
      "constant": true,
      "inputs": [
        {
          "internalType": "address",
          "name": "",
          "type": "address"
        }
      ],
      "name": "rewards",
      "outputs": [
        {
          "internalType": "uint256",
          "name": "",
          "type": "uint256"
        }
      ],
      "payable": false,
      "stateMutability": "view",
      "type": "function"
    },
    {
      "constant": false,
      "inputs": [
        {
          "internalType": "address",
          "name": "_rewardDistribution",
          "type": "address"
        }
      ],
      "name": "setRewardDistribution",
      "outputs": [],
      "payable": false,
      "stateMutability": "nonpayable",
      "type": "function"
    },
    {
      "constant": true,
      "inputs": [],
      "name": "starttime",
      "outputs": [
        {
          "internalType": "uint256",
          "name": "",
          "type": "uint256"
        }
      ],
      "payable": false,
      "stateMutability": "view",
      "type": "function"
    },
    {
      "constant": true,
      "inputs": [],
      "name": "totalRewards",
      "outputs": [
        {
          "internalType": "uint256",
          "name": "",
          "type": "uint256"
        }
      ],
      "payable": false,
      "stateMutability": "view",
      "type": "function"
    },
    {
      "constant": true,
      "inputs": [],
      "name": "totalSupply",
      "outputs": [
        {
          "internalType": "uint256",
          "name": "",
          "type": "uint256"
        }
      ],
      "payable": false,
      "stateMutability": "view",
      "type": "function"
    },
    {
      "constant": false,
      "inputs": [
        {
          "internalType": "address",
          "name": "newOwner",
          "type": "address"
        }
      ],
      "name": "transferOwnership",
      "outputs": [],
      "payable": false,
      "stateMutability": "nonpayable",
      "type": "function"
    },
    {
      "constant": true,
      "inputs": [
        {
          "internalType": "address",
          "name": "",
          "type": "address"
        }
      ],
      "name": "userRewardPerTokenPaid",
      "outputs": [
        {
          "internalType": "uint256",
          "name": "",
          "type": "uint256"
        }
      ],
      "payable": false,
      "stateMutability": "view",
      "type": "function"
    },
    {
      "constant": true,
      "inputs": [],
      "name": "lastTimeRewardApplicable",
      "outputs": [
        {
          "internalType": "uint256",
          "name": "",
          "type": "uint256"
        }
      ],
      "payable": false,
      "stateMutability": "view",
      "type": "function"
    },
    {
      "constant": true,
      "inputs": [],
      "name": "rewardPerToken",
      "outputs": [
        {
          "internalType": "uint256",
          "name": "",
          "type": "uint256"
        }
      ],
      "payable": false,
      "stateMutability": "view",
      "type": "function"
    },
    {
      "constant": true,
      "inputs": [
        {
          "internalType": "address",
          "name": "account",
          "type": "address"
        }
      ],
      "name": "earned",
      "outputs": [
        {
          "internalType": "uint256",
          "name": "",
          "type": "uint256"
        }
      ],
      "payable": false,
      "stateMutability": "view",
      "type": "function"
    },
    {
      "constant": false,
      "inputs": [],
      "name": "stake",
      "outputs": [],
      "payable": true,
      "stateMutability": "payable",
      "type": "function"
    },
    {
      "constant": false,
      "inputs": [
        {
          "internalType": "uint256",
          "name": "amount",
          "type": "uint256"
        }
      ],
      "name": "withdraw",
      "outputs": [],
      "payable": false,
      "stateMutability": "nonpayable",
      "type": "function"
    },
    {
      "constant": false,
      "inputs": [],
      "name": "exit",
      "outputs": [],
      "payable": false,
      "stateMutability": "nonpayable",
      "type": "function"
    },
    {
      "constant": false,
      "inputs": [],
      "name": "getReward",
      "outputs": [],
      "payable": false,
      "stateMutability": "nonpayable",
      "type": "function"
    },
    {
      "constant": false,
      "inputs": [
        {
          "internalType": "uint256",
          "name": "reward",
          "type": "uint256"
        }
      ],
      "name": "notifyRewardAmount",
      "outputs": [],
      "payable": false,
      "stateMutability": "nonpayable",
      "type": "function"
    }
  ],
  "bytecode": "0x608060405262093a80600555600060075560006008556000600b553480156200002757600080fd5b50d380156200003557600080fd5b50d280156200004357600080fd5b506040516200292e3803806200292e833981810160405260408110156200006957600080fd5b8101908080519060200190929190805190602001909291905050506000620000966200018560201b60201c565b905080600260006101000a81548173ffffffffffffffffffffffffffffffffffffffff021916908373ffffffffffffffffffffffffffffffffffffffff1602179055508073ffffffffffffffffffffffffffffffffffffffff16600073ffffffffffffffffffffffffffffffffffffffff167f8be0079c531659141344cd1fd0a4f28419497f9722a3daafe3b4186f6b6457e060405160405180910390a35081600460006101000a81548173ffffffffffffffffffffffffffffffffffffffff021916908373ffffffffffffffffffffffffffffffffffffffff1602179055508060068190555050506200018d565b600033905090565b612791806200019d6000396000f3fe6080604052600436106101805760003560e01c80637b0a47ee116100d1578063c8f33c911161008a578063e9fad8ee11610064578063e9fad8ee146108c2578063ebe2b12b146108f3578063f2fde38b14610938578063fc7e286d146109a357610180565b8063c8f33c91146107f3578063cd3daf9d14610838578063df136d651461087d57610180565b80637b0a47ee146105c357806380faa57d146106085780638b8763471461064d5780638da58897146106cc5780638da5cb5b1461071157806397afd87d1461078257610180565b80631be052891161013e5780633c6b16ab116101185780633c6b16ab1461048d5780633d18b912146104e257806370a0823114610513578063715018a61461059257610180565b80631be05289146103e95780632e1a7d4d1461042e5780633a4b66f11461048357610180565b80628cc262146101855780630700037d146102045780630d68b761146102835780630e15561a146102ee578063101114cf1461033357806318160ddd146103a4575b600080fd5b34801561019157600080fd5b50d3801561019e57600080fd5b50d280156101ab57600080fd5b506101ee600480360360208110156101c257600080fd5b81019080803573ffffffffffffffffffffffffffffffffffffffff169060200190929190505050610a22565b6040518082815260200191505060405180910390f35b34801561021057600080fd5b50d3801561021d57600080fd5b50d2801561022a57600080fd5b5061026d6004803603602081101561024157600080fd5b81019080803573ffffffffffffffffffffffffffffffffffffffff169060200190929190505050610b09565b6040518082815260200191505060405180910390f35b34801561028f57600080fd5b50d3801561029c57600080fd5b50d280156102a957600080fd5b506102ec600480360360208110156102c057600080fd5b81019080803573ffffffffffffffffffffffffffffffffffffffff169060200190929190505050610b21565b005b3480156102fa57600080fd5b50d3801561030757600080fd5b50d2801561031457600080fd5b5061031d610c2f565b6040518082815260200191505060405180910390f35b34801561033f57600080fd5b50d3801561034c57600080fd5b50d2801561035957600080fd5b50610362610c35565b604051808273ffffffffffffffffffffffffffffffffffffffff1673ffffffffffffffffffffffffffffffffffffffff16815260200191505060405180910390f35b3480156103b057600080fd5b50d380156103bd57600080fd5b50d280156103ca57600080fd5b506103d3610c5b565b6040518082815260200191505060405180910390f35b3480156103f557600080fd5b50d3801561040257600080fd5b50d2801561040f57600080fd5b50610418610c64565b6040518082815260200191505060405180910390f35b34801561043a57600080fd5b50d3801561044757600080fd5b50d2801561045457600080fd5b506104816004803603602081101561046b57600080fd5b8101908080359060200190929190505050610c6a565b005b61048b610f2c565b005b34801561049957600080fd5b50d380156104a657600080fd5b50d280156104b357600080fd5b506104e0600480360360208110156104ca57600080fd5b81019080803590602001909291905050506111f2565b005b3480156104ee57600080fd5b50d380156104fb57600080fd5b50d2801561050857600080fd5b506105116114f4565b005b34801561051f57600080fd5b50d3801561052c57600080fd5b50d2801561053957600080fd5b5061057c6004803603602081101561055057600080fd5b81019080803573ffffffffffffffffffffffffffffffffffffffff169060200190929190505050611766565b6040518082815260200191505060405180910390f35b34801561059e57600080fd5b50d380156105ab57600080fd5b50d280156105b857600080fd5b506105c16117af565b005b3480156105cf57600080fd5b50d380156105dc57600080fd5b50d280156105e957600080fd5b506105f261193a565b6040518082815260200191505060405180910390f35b34801561061457600080fd5b50d3801561062157600080fd5b50d2801561062e57600080fd5b50610637611940565b6040518082815260200191505060405180910390f35b34801561065957600080fd5b50d3801561066657600080fd5b50d2801561067357600080fd5b506106b66004803603602081101561068a57600080fd5b81019080803573ffffffffffffffffffffffffffffffffffffffff169060200190929190505050611953565b6040518082815260200191505060405180910390f35b3480156106d857600080fd5b50d380156106e557600080fd5b50d280156106f257600080fd5b506106fb61196b565b6040518082815260200191505060405180910390f35b34801561071d57600080fd5b50d3801561072a57600080fd5b50d2801561073757600080fd5b50610740611971565b604051808273ffffffffffffffffffffffffffffffffffffffff1673ffffffffffffffffffffffffffffffffffffffff16815260200191505060405180910390f35b34801561078e57600080fd5b50d3801561079b57600080fd5b50d280156107a857600080fd5b506107b161199b565b604051808273ffffffffffffffffffffffffffffffffffffffff1673ffffffffffffffffffffffffffffffffffffffff16815260200191505060405180910390f35b3480156107ff57600080fd5b50d3801561080c57600080fd5b50d2801561081957600080fd5b506108226119c1565b6040518082815260200191505060405180910390f35b34801561084457600080fd5b50d3801561085157600080fd5b50d2801561085e57600080fd5b506108676119c7565b6040518082815260200191505060405180910390f35b34801561088957600080fd5b50d3801561089657600080fd5b50d280156108a357600080fd5b506108ac611a5f565b6040518082815260200191505060405180910390f35b3480156108ce57600080fd5b50d380156108db57600080fd5b50d280156108e857600080fd5b506108f1611a65565b005b3480156108ff57600080fd5b50d3801561090c57600080fd5b50d2801561091957600080fd5b50610922611a80565b6040518082815260200191505060405180910390f35b34801561094457600080fd5b50d3801561095157600080fd5b50d2801561095e57600080fd5b506109a16004803603602081101561097557600080fd5b81019080803573ffffffffffffffffffffffffffffffffffffffff169060200190929190505050611a86565b005b3480156109af57600080fd5b50d380156109bc57600080fd5b50d280156109c957600080fd5b50610a0c600480360360208110156109e057600080fd5b81019080803573ffffffffffffffffffffffffffffffffffffffff169060200190929190505050611c96565b6040518082815260200191505060405180910390f35b6000610b02600d60008473ffffffffffffffffffffffffffffffffffffffff1673ffffffffffffffffffffffffffffffffffffffff16815260200190815260200160002054610af4670de0b6b3a7640000610ae6610acf600c60008973ffffffffffffffffffffffffffffffffffffffff1673ffffffffffffffffffffffffffffffffffffffff16815260200190815260200160002054610ac16119c7565b611cae90919063ffffffff16565b610ad888611766565b611cf890919063ffffffff16565b611d7e90919063ffffffff16565b611dc890919063ffffffff16565b9050919050565b600d6020528060005260406000206000915090505481565b610b29611e50565b73ffffffffffffffffffffffffffffffffffffffff16600260009054906101000a900473ffffffffffffffffffffffffffffffffffffffff1673ffffffffffffffffffffffffffffffffffffffff1614610beb576040517f08c379a00000000000000000000000000000000000000000000000000000000081526004018080602001828103825260208152602001807f4f776e61626c653a2063616c6c6572206973206e6f7420746865206f776e657281525060200191505060405180910390fd5b80600360006101000a81548173ffffffffffffffffffffffffffffffffffffffff021916908373ffffffffffffffffffffffffffffffffffffffff16021790555050565b600b5481565b600360009054906101000a900473ffffffffffffffffffffffffffffffffffffffff1681565b60008054905090565b60055481565b33610c736119c7565b600a81905550610c81611940565b600981905550600073ffffffffffffffffffffffffffffffffffffffff168173ffffffffffffffffffffffffffffffffffffffff1614610d4e57610cc481610a22565b600d60008373ffffffffffffffffffffffffffffffffffffffff1673ffffffffffffffffffffffffffffffffffffffff16815260200190815260200160002081905550600a54600c60008373ffffffffffffffffffffffffffffffffffffffff1673ffffffffffffffffffffffffffffffffffffffff168152602001908152602001600020819055505b600654421015610dc6576040517f08c379a000000000000000000000000000000000000000000000000000000000815260040180806020018281038252600f8152602001807f506f6f6c3a206e6f74207374617274000000000000000000000000000000000081525060200191505060405180910390fd5b60008211610e3c576040517f08c379a00000000000000000000000000000000000000000000000000000000081526004018080602001828103825260178152602001807f506f6f6c3a2043616e6e6f74207769746864726177203000000000000000000081525060200191505060405180910390fd5b610e8e82600e60003373ffffffffffffffffffffffffffffffffffffffff1673ffffffffffffffffffffffffffffffffffffffff16815260200190815260200160002054611cae90919063ffffffff16565b600e60003373ffffffffffffffffffffffffffffffffffffffff1673ffffffffffffffffffffffffffffffffffffffff16815260200190815260200160002081905550610eda82611e58565b3373ffffffffffffffffffffffffffffffffffffffff167f7084f5476618d8e60b11ef0d7d3f06914655adb8793e28ff7f018d4c76d505d5836040518082815260200191505060405180910390a25050565b33610f356119c7565b600a81905550610f43611940565b600981905550600073ffffffffffffffffffffffffffffffffffffffff168173ffffffffffffffffffffffffffffffffffffffff161461101057610f8681610a22565b600d60008373ffffffffffffffffffffffffffffffffffffffff1673ffffffffffffffffffffffffffffffffffffffff16815260200190815260200160002081905550600a54600c60008373ffffffffffffffffffffffffffffffffffffffff1673ffffffffffffffffffffffffffffffffffffffff168152602001908152602001600020819055505b600654421015611088576040517f08c379a000000000000000000000000000000000000000000000000000000000815260040180806020018281038252600f8152602001807f506f6f6c3a206e6f74207374617274000000000000000000000000000000000081525060200191505060405180910390fd5b600034116110fe576040517f08c379a00000000000000000000000000000000000000000000000000000000081526004018080602001828103825260148152602001807f506f6f6c3a2043616e6e6f74207374616b65203000000000000000000000000081525060200191505060405180910390fd5b600061115234600e60003373ffffffffffffffffffffffffffffffffffffffff1673ffffffffffffffffffffffffffffffffffffffff16815260200190815260200160002054611dc890919063ffffffff16565b905080600e60003373ffffffffffffffffffffffffffffffffffffffff1673ffffffffffffffffffffffffffffffffffffffff168152602001908152602001600020819055506111a0611f15565b3373ffffffffffffffffffffffffffffffffffffffff167f9e71bc8eea02a63969f509818f2dafb9254532904319f9dbda79b67bd34a5f3d346040518082815260200191505060405180910390a25050565b600360009054906101000a900473ffffffffffffffffffffffffffffffffffffffff1673ffffffffffffffffffffffffffffffffffffffff16611233611e50565b73ffffffffffffffffffffffffffffffffffffffff161461129f576040517f08c379a00000000000000000000000000000000000000000000000000000000081526004018080602001828103825260218152602001806127136021913960400191505060405180910390fd5b60006112a96119c7565b600a819055506112b7611940565b600981905550600073ffffffffffffffffffffffffffffffffffffffff168173ffffffffffffffffffffffffffffffffffffffff1614611384576112fa81610a22565b600d60008373ffffffffffffffffffffffffffffffffffffffff1673ffffffffffffffffffffffffffffffffffffffff16815260200190815260200160002081905550600a54600c60008373ffffffffffffffffffffffffffffffffffffffff1673ffffffffffffffffffffffffffffffffffffffff168152602001908152602001600020819055505b6006544211156114775760075442106113b7576113ac60055483611d7e90919063ffffffff16565b600881905550611419565b60006113ce42600754611cae90919063ffffffff16565b905060006113e760085483611cf890919063ffffffff16565b90506114106005546114028387611dc890919063ffffffff16565b611d7e90919063ffffffff16565b60088190555050505b4260098190555061143560055442611dc890919063ffffffff16565b6007819055507fde88a922e0d3b88b24e9623efeb464919c6bf9f66857a65e2bfcf2ce87a9433d826040518082815260200191505060405180910390a16114f0565b61148c60055483611d7e90919063ffffffff16565b6008819055506006546009819055506114b2600554600654611dc890919063ffffffff16565b6007819055507fde88a922e0d3b88b24e9623efeb464919c6bf9f66857a65e2bfcf2ce87a9433d826040518082815260200191505060405180910390a15b5050565b336114fd6119c7565b600a8190555061150b611940565b600981905550600073ffffffffffffffffffffffffffffffffffffffff168173ffffffffffffffffffffffffffffffffffffffff16146115d85761154e81610a22565b600d60008373ffffffffffffffffffffffffffffffffffffffff1673ffffffffffffffffffffffffffffffffffffffff16815260200190815260200160002081905550600a54600c60008373ffffffffffffffffffffffffffffffffffffffff1673ffffffffffffffffffffffffffffffffffffffff168152602001908152602001600020819055505b600654421015611650576040517f08c379a000000000000000000000000000000000000000000000000000000000815260040180806020018281038252600f8152602001807f506f6f6c3a206e6f74207374617274000000000000000000000000000000000081525060200191505060405180910390fd5b600061165b33610a22565b90506000811115611762576000600d60003373ffffffffffffffffffffffffffffffffffffffff1673ffffffffffffffffffffffffffffffffffffffff168152602001908152602001600020819055506116f83382600460009054906101000a900473ffffffffffffffffffffffffffffffffffffffff1673ffffffffffffffffffffffffffffffffffffffff16611fc79092919063ffffffff16565b3373ffffffffffffffffffffffffffffffffffffffff167fe2403640ba68fed3a2f88b7557551d1993f84b99bb10ff833f0cf8db0c5e0486826040518082815260200191505060405180910390a261175b81600b54611dc890919063ffffffff16565b600b819055505b5050565b6000600160008373ffffffffffffffffffffffffffffffffffffffff1673ffffffffffffffffffffffffffffffffffffffff168152602001908152602001600020549050919050565b6117b7611e50565b73ffffffffffffffffffffffffffffffffffffffff16600260009054906101000a900473ffffffffffffffffffffffffffffffffffffffff1673ffffffffffffffffffffffffffffffffffffffff1614611879576040517f08c379a00000000000000000000000000000000000000000000000000000000081526004018080602001828103825260208152602001807f4f776e61626c653a2063616c6c6572206973206e6f7420746865206f776e657281525060200191505060405180910390fd5b600073ffffffffffffffffffffffffffffffffffffffff16600260009054906101000a900473ffffffffffffffffffffffffffffffffffffffff1673ffffffffffffffffffffffffffffffffffffffff167f8be0079c531659141344cd1fd0a4f28419497f9722a3daafe3b4186f6b6457e060405160405180910390a36000600260006101000a81548173ffffffffffffffffffffffffffffffffffffffff021916908373ffffffffffffffffffffffffffffffffffffffff160217905550565b60085481565b600061194e42600754612098565b905090565b600c6020528060005260406000206000915090505481565b60065481565b6000600260009054906101000a900473ffffffffffffffffffffffffffffffffffffffff16905090565b600460009054906101000a900473ffffffffffffffffffffffffffffffffffffffff1681565b60095481565b6000806119d2610c5b565b14156119e257600a549050611a5c565b611a59611a486119f0610c5b565b611a3a670de0b6b3a7640000611a2c600854611a1e600954611a10611940565b611cae90919063ffffffff16565b611cf890919063ffffffff16565b611cf890919063ffffffff16565b611d7e90919063ffffffff16565b600a54611dc890919063ffffffff16565b90505b90565b600a5481565b611a76611a7133611766565b610c6a565b611a7e6114f4565b565b60075481565b611a8e611e50565b73ffffffffffffffffffffffffffffffffffffffff16600260009054906101000a900473ffffffffffffffffffffffffffffffffffffffff1673ffffffffffffffffffffffffffffffffffffffff1614611b50576040517f08c379a00000000000000000000000000000000000000000000000000000000081526004018080602001828103825260208152602001807f4f776e61626c653a2063616c6c6572206973206e6f7420746865206f776e657281525060200191505060405180910390fd5b600073ffffffffffffffffffffffffffffffffffffffff168173ffffffffffffffffffffffffffffffffffffffff161415611bd6576040517f08c379a00000000000000000000000000000000000000000000000000000000081526004018080602001828103825260268152602001806126926026913960400191505060405180910390fd5b8073ffffffffffffffffffffffffffffffffffffffff16600260009054906101000a900473ffffffffffffffffffffffffffffffffffffffff1673ffffffffffffffffffffffffffffffffffffffff167f8be0079c531659141344cd1fd0a4f28419497f9722a3daafe3b4186f6b6457e060405160405180910390a380600260006101000a81548173ffffffffffffffffffffffffffffffffffffffff021916908373ffffffffffffffffffffffffffffffffffffffff16021790555050565b600e6020528060005260406000206000915090505481565b6000611cf083836040518060400160405280601e81526020017f536166654d6174683a207375627472616374696f6e206f766572666c6f7700008152506120b1565b905092915050565b600080831415611d0b5760009050611d78565b6000828402905082848281611d1c57fe5b0414611d73576040517f08c379a00000000000000000000000000000000000000000000000000000000081526004018080602001828103825260218152602001806126f26021913960400191505060405180910390fd5b809150505b92915050565b6000611dc083836040518060400160405280601a81526020017f536166654d6174683a206469766973696f6e206279207a65726f000000000000815250612171565b905092915050565b600080828401905083811015611e46576040517f08c379a000000000000000000000000000000000000000000000000000000000815260040180806020018281038252601b8152602001807f536166654d6174683a206164646974696f6e206f766572666c6f77000000000081525060200191505060405180910390fd5b8091505092915050565b600033905090565b611e6d81600054611cae90919063ffffffff16565b600081905550611ec581600160003373ffffffffffffffffffffffffffffffffffffffff1673ffffffffffffffffffffffffffffffffffffffff16815260200190815260200160002054611cae90919063ffffffff16565b600160003373ffffffffffffffffffffffffffffffffffffffff1673ffffffffffffffffffffffffffffffffffffffff16815260200190815260200160002081905550611f123382612237565b50565b611f2a34600054611dc890919063ffffffff16565b600081905550611f8234600160003373ffffffffffffffffffffffffffffffffffffffff1673ffffffffffffffffffffffffffffffffffffffff16815260200190815260200160002054611dc890919063ffffffff16565b600160003373ffffffffffffffffffffffffffffffffffffffff1673ffffffffffffffffffffffffffffffffffffffff16815260200190815260200160002081905550565b612093838473ffffffffffffffffffffffffffffffffffffffff1663a9059cbb905060e01b8484604051602401808373ffffffffffffffffffffffffffffffffffffffff1673ffffffffffffffffffffffffffffffffffffffff16815260200182815260200192505050604051602081830303815290604052907bffffffffffffffffffffffffffffffffffffffffffffffffffffffff19166020820180517bffffffffffffffffffffffffffffffffffffffffffffffffffffffff8381831617835250505050612371565b505050565b60008183106120a757816120a9565b825b905092915050565b600083831115829061215e576040517f08c379a00000000000000000000000000000000000000000000000000000000081526004018080602001828103825283818151815260200191508051906020019080838360005b83811015612123578082015181840152602081019050612108565b50505050905090810190601f1680156121505780820380516001836020036101000a031916815260200191505b509250505060405180910390fd5b5060008385039050809150509392505050565b6000808311829061221d576040517f08c379a00000000000000000000000000000000000000000000000000000000081526004018080602001828103825283818151815260200191508051906020019080838360005b838110156121e25780820151818401526020810190506121c7565b50505050905090810190601f16801561220f5780820380516001836020036101000a031916815260200191505b509250505060405180910390fd5b50600083858161222957fe5b049050809150509392505050565b804710156122ad576040517f08c379a000000000000000000000000000000000000000000000000000000000815260040180806020018281038252601d8152602001807f416464726573733a20696e73756666696369656e742062616c616e636500000081525060200191505060405180910390fd5b60008273ffffffffffffffffffffffffffffffffffffffff168260405180600001905060006040518083038185875af1925050503d806000811461230d576040519150601f19603f3d011682016040523d82523d6000602084013e612312565b606091505b505090508061236c576040517f08c379a000000000000000000000000000000000000000000000000000000000815260040180806020018281038252603a8152602001806126b8603a913960400191505060405180910390fd5b505050565b60606123d3826040518060400160405280602081526020017f5361666545524332303a206c6f772d6c6576656c2063616c6c206661696c65648152508573ffffffffffffffffffffffffffffffffffffffff166124609092919063ffffffff16565b905060008151111561245b578080602001905160208110156123f457600080fd5b810190808051906020019092919050505061245a576040517f08c379a000000000000000000000000000000000000000000000000000000000815260040180806020018281038252602a815260200180612734602a913960400191505060405180910390fd5b5b505050565b606061246f8484600085612478565b90509392505050565b60606124838561267e565b6124f5576040517f08c379a000000000000000000000000000000000000000000000000000000000815260040180806020018281038252601d8152602001807f416464726573733a2063616c6c20746f206e6f6e2d636f6e747261637400000081525060200191505060405180910390fd5b600060608673ffffffffffffffffffffffffffffffffffffffff1685876040518082805190602001908083835b602083106125455780518252602082019150602081019050602083039250612522565b6001836020036101000a03801982511681845116808217855250505050505090500191505060006040518083038185875af1925050503d80600081146125a7576040519150601f19603f3d011682016040523d82523d6000602084013e6125ac565b606091505b509150915081156125c1578092505050612676565b6000815111156125d45780518082602001fd5b836040517f08c379a00000000000000000000000000000000000000000000000000000000081526004018080602001828103825283818151815260200191508051906020019080838360005b8381101561263b578082015181840152602081019050612620565b50505050905090810190601f1680156126685780820380516001836020036101000a031916815260200191505b509250505060405180910390fd5b949350505050565b600080823b90506000811191505091905056fe4f776e61626c653a206e6577206f776e657220697320746865207a65726f2061646472657373416464726573733a20756e61626c6520746f2073656e642076616c75652c20726563697069656e74206d61792068617665207265766572746564536166654d6174683a206d756c7469706c69636174696f6e206f766572666c6f7743616c6c6572206973206e6f742072657761726420646973747269627574696f6e5361666545524332303a204552433230206f7065726174696f6e20646964206e6f742073756363656564a26474726f6e582082674ce045267ce9cae7457d223d0fa3d6942f1bbc5bc5f4fbb5141df8f1224864736f6c634300050f0031",
  "source": "pragma solidity ^0.5.15;\n\nimport '@openzeppelin/contracts/math/Math.sol';\nimport '@openzeppelin/contracts/math/SafeMath.sol';\nimport '@openzeppelin/contracts/token/ERC20/IERC20.sol';\nimport '@openzeppelin/contracts/utils/Address.sol';\nimport '@openzeppelin/contracts/token/ERC20/SafeERC20.sol';\nimport '../interfaces/IRewardDistributionRecipient.sol';\n\ncontract TokenWrapper {\n    using SafeMath for uint256;\n\n    uint256 private _totalSupply;\n    mapping(address => uint256) private _balances;\n\n    function totalSupply() public view returns (uint256) {\n        return _totalSupply;\n    }\n\n    function balanceOf(address account) public view returns (uint256) {\n        return _balances[account];\n    }\n\n    function stake() public payable {\n        _totalSupply = _totalSupply.add(msg.value);\n        _balances[msg.sender] = _balances[msg.sender].add(msg.value);\n    }\n\n    function withdraw(uint256 amount) public  {\n        _totalSupply = _totalSupply.sub(amount);\n        _balances[msg.sender] = _balances[msg.sender].sub(amount);\n        Address.sendValue(msg.sender, amount);\n    }\n}\n\ncontract TRXPool is TokenWrapper, IRewardDistributionRecipient {\n    using SafeERC20 for IERC20;\n    IERC20 public basisCash;\n    uint256 public DURATION = 7 days;\n\n    uint256 public starttime;\n    uint256 public periodFinish = 0;\n    uint256 public rewardRate = 0;\n    uint256 public lastUpdateTime;\n    uint256 public rewardPerTokenStored;\n    uint256 public totalRewards = 0;\n    mapping(address => uint256) public userRewardPerTokenPaid;\n    mapping(address => uint256) public rewards;\n    mapping(address => uint256) public deposits;\n\n    event RewardAdded(uint256 reward);\n    event Staked(address indexed user, uint256 amount);\n    event Withdrawn(address indexed user, uint256 amount);\n    event RewardPaid(address indexed user, uint256 reward);\n\n    constructor(\n        address basisCash_,\n        uint256 starttime_\n    ) public {\n        basisCash = IERC20(basisCash_);\n        starttime = starttime_;\n    }\n\n    modifier checkStart() {\n        require(block.timestamp >= starttime, 'Pool: not start');\n        _;\n    }\n\n    modifier updateReward(address account) {\n        rewardPerTokenStored = rewardPerToken();\n        lastUpdateTime = lastTimeRewardApplicable();\n        if (account != address(0)) {\n            rewards[account] = earned(account);\n            userRewardPerTokenPaid[account] = rewardPerTokenStored;\n        }\n        _;\n    }\n\n    function lastTimeRewardApplicable() public view returns (uint256) {\n        return Math.min(block.timestamp, periodFinish);\n    }\n\n    function rewardPerToken() public view returns (uint256) {\n        if (totalSupply() == 0) {\n            return rewardPerTokenStored;\n        }\n        return\n            rewardPerTokenStored.add(\n                lastTimeRewardApplicable()\n                    .sub(lastUpdateTime)\n                    .mul(rewardRate)\n                    .mul(1e18)\n                    .div(totalSupply())\n            );\n    }\n\n    function earned(address account) public view returns (uint256) {\n        return\n            balanceOf(account)\n                .mul(rewardPerToken().sub(userRewardPerTokenPaid[account]))\n                .div(1e18)\n                .add(rewards[account]);\n    }\n\n    // stake visibility is public as overriding LPTokenWrapper's stake() function\n    function stake()\n        public\n        payable\n        updateReward(msg.sender)\n        checkStart\n    {\n        require(msg.value > 0, 'Pool: Cannot stake 0');\n        uint256 newDeposit = deposits[msg.sender].add(msg.value);\n        deposits[msg.sender] = newDeposit;\n        super.stake();\n        emit Staked(msg.sender, msg.value);\n    }\n\n    function withdraw(uint256 amount)\n        public\n        \n        updateReward(msg.sender)\n        checkStart\n    {\n        require(amount > 0, 'Pool: Cannot withdraw 0');\n        deposits[msg.sender] = deposits[msg.sender].sub(amount);\n        super.withdraw(amount);\n        emit Withdrawn(msg.sender, amount);\n    }\n\n    function exit() external {\n        withdraw(balanceOf(msg.sender));\n        getReward();\n    }\n\n    function getReward() public updateReward(msg.sender) checkStart {\n        uint256 reward = earned(msg.sender);\n        if (reward > 0) {\n            rewards[msg.sender] = 0;\n            basisCash.safeTransfer(msg.sender, reward);\n            emit RewardPaid(msg.sender, reward);\n            totalRewards = totalRewards.add(reward);\n        }\n    }\n\n    function notifyRewardAmount(uint256 reward)\n        external\n        \n        onlyRewardDistribution\n        updateReward(address(0))\n    {\n        if (block.timestamp > starttime) {\n            if (block.timestamp >= periodFinish) {\n                rewardRate = reward.div(DURATION);\n            } else {\n                uint256 remaining = periodFinish.sub(block.timestamp);\n                uint256 leftover = remaining.mul(rewardRate);\n                rewardRate = reward.add(leftover).div(DURATION);\n            }\n            lastUpdateTime = block.timestamp;\n            periodFinish = block.timestamp.add(DURATION);\n            emit RewardAdded(reward);\n        } else {\n            rewardRate = reward.div(DURATION);\n            lastUpdateTime = starttime;\n            periodFinish = starttime.add(DURATION);\n            emit RewardAdded(reward);\n        }\n    }\n}\n",
  "sourcePath": "/Users/howard/src/trx-basis/tronbasiscash/contracts/distribution/TRXPool.sol",
  "compiler": {
    "name": "solc",
    "version": "0.5.15+commit.fd7f48cf.Emscripten.clang"
  },
  "schemaVersion": "2.0.1",
  "updatedAt": "2021-01-15T10:11:21.438Z"
}